:400000000080002011000000010100000101000008B5044B1A6803F53F5302331A6000F089F800BFFA46004010B5054C237833B9044B13B10448AFF300800123237010BDF2
:400040009081FF1F00000000600F0000084B10B51BB108480849AFF300800848036803B910BD074B002BFBD0BDE81040184700BF00000000600F00009481FF1F0881FF1F53
:400080000000000010B400EB4000044C2254421CA154023023545DF8044B7047BC81FF1F10B59020144912A3D3E9002300F0B4F9002412E0A4F15003012B07D82046002146
:4000C0002246C4F19003FFF7DDFF05E0204600210A460B46FFF7D6FF01348F2CEADD00F02BFA052000F0BEFBFBE700BFAFF300809A99999999992940BC81FF1FAFF30080CC
:40010000FEE700BF08B5094B1A681044084BC31A802B02DC054B186005E000F073FE0C2303604FF0FF32104608BD00BF0C81FF1F8083FF1F08B5104E104D16E029686B68F3
:40014000AC68002204E051F8040B43F8040B0432A242F8D1E868002203E0002143F8041B04328242F9D11035013E002EE6D100F04FFEFFF795FFFEE701000000D00F000057
:4001800008B5134A134B1A60134A136843F40073136000230AE0032B03D8104A52F8231000E00F490F4A42F8231001332F2BF2D90D4B1A780D4B1A700A4A0D4B1A6000F032
:4001C000B1F800F081FA00220A4B1A6008BD00BF0004FA050CED00E014ED00E000000000010100000080FF1FBC7600400481FF1F08ED00E00081FF1FFEE700BFF0B4002226
:40020000174611E050F82760F3B226F0FF0608E001EB420511F812406D78A5550132013BDBB2002BF4D101370C2FEBD9F0BC7047064B1B78DBB203F00701054A11701B09A6
:40024000013213704422034B1A707047CF0100496E5800407658004008B50A46002100F010FE08BD38B50122244B1A801C2202331A70022203F27E231A7008224FF040238F
:400280001A70032103F5007319701D4B1B78DBB21C490B701C4B1A8041F25122023B1A80002419250CE0194B1B7803F0010343EA440404F003044FF4F07000F0F5F9013D4B
:4002C0000DB1032CEFD115B90320FFF795FF104B4FF480721A8007221A7000220D490A704820023108701A700222033B1A700A4A137843F00103137038BD00BF8040004031
:4003000008010049A146004022420040254200400440004006400040A243004008B500F0A5FD08BD70B572B62F4A137843F00403137000240CE02D4963001A1952000A44EC
:4003400023445B00C8589188FFF786FF0134E4B2082CF0D900240BE02449A3001A1952000A44906BD16B8022FFF7D8FF0134E4B2002CF1D04FF090401D49FFF73FFF1D48E1
:400380000421FFF769FF1C4A137843F0020313701032137843F002031370184C237843F040032370A2F58632513A137843F010031370134813490822FFF7B0FF124A1378E3
:4003C00043F008031370114E01253570FFF74AFF812333700E4B1D70FFF72AFF0D4821460E22FFF79BFF70BDE8460040640F0000340000480076004003500140A043004014
:400400000251004078010048224300400048004004000840B04300402DE9F04704468A4600203D49086000203C4900F05BFB06460F4600203A4932463B4600F053FB80461B
:4004400089462FA3D3E9002300F0B2FC002854D14046494600F0B6FC5FFA80F82AA1D1E9000132463B4600F03DFB00F0ABFCC5B227A1D1E9000132463B4600F033FB00F04A
:40048000A1FCC6B204EB4404264B1C6000F090F800F0B0F800F0D6F8234B83F80080701EC0B200F0DDF8681EC0B200F0B1F80120014641F6FF724FF4804300F0D7F81B4B3B
:4004C0001870BAF1000F0ED1204600F0C7FC124B186018B10122164B1A700AE00020114B1860BDE8F0870C4BC3F800A00022104B1A70094B1868BDE8F0870020BDE8F08737
:400500000000000000E06F40666666666666E63F666666666666D63F7483FF1F0000F03F0000F43FB881FF1F356500407883FF1F6C83FF1FAFF3008038B50F4B1B68CBB1F4
:4005400000F054F90D4C20700D4B1988FE22212300F066F92078084B198846F2455200F073F9084D2878217800F010F92878012100F0C4F838BD00BF7483FF1F6D83FF1F26
:40058000B881FF1F7883FF1F0622014B1A7070478465004008B500F08FF8044A137843F02003137000F08CF808BD00BF9465004008B5054B1B7823B9FFF7E6FF0122024B0F
:4005C0001A70FFF7E7FF08BDAC81FF1F0C22014B1A7070478565004008B500F06DF8044A137843F02003137000F06AF808BD00BF9565004008B5054B1B7823B9FFF7E6FF75
:400600000122024B1A70FFF7E7FF08BDAD81FF1F014B1870704700BF856500400622014B1A7070478665004008B500F045F8044A137843F02003137000F042F808BD00BF35
:400640009665004008B5054B1B7823B9FFF7E6FF0122024B1A70FFF7E7FF08BDAE81FF1F014B1870704700BF86650040F0B583B086460F4616461D460A4C00232370009334
:400680000193184671463A4600F08CF8207831462A4600F061F82078022100F04BF8207803B0F0BD1081FF1F0230800803D000BF01380046FCD17047EFF3108072B67047A0
:4006C00080F31088704700BF0B4A7F2313708021517007E0DA0002F1804202F5F042013BDBB21370002BF5D1DB0003F1804303F5F04300221A7070471481FF1F172815D8C2
:4007000031B103010A495A5C42F020025A5405E0030107495A5C02F0DF025A540001044A835C43F00103835400207047012070471070004017280BD80001064A835C03F068
:40074000F10301F0070143EA4101815400207047012070471070004041F6FF73994201D14FF4005141F6FF739A4201D14FF40052172808D8C00000F1804000F5EC40818051
:40078000C280002070470120704700BF172805D8034B03EB0010417200207047012070471070004017281BD810B4C00000F1804404F5EC44D201D2B201F07F0111432170BE
:4007C0009DF804201201D2B203F00F03134363709DF8083003F00F03A3700020E07001E0012070475DF8044B704700BF10B5FFF763FF0A4B5B78182B0BD9084A1478013BCD
:400800005370E30003F1804303F5F0431B78137000E0FF24FFF754FF204610BD1481FF1F10F0800F0CD111F4704F0BD1C00000F1804000F5F04001808270C37000207047C9
:40084000012070470120704710F0800F08D1C00000F1804000F5F0408180C280002070470120704710B5044605E0084B1868FFF71BFFA4F50044B4F5004FF6D8034B586850
:4008800000FB04F0FFF710FF10BD00BF1C81FF1F70B54FF0FF0C4CF4E06C1CEA11541DBF1CEA135594EA0C0F95EA0C0F00F0DEF82C4481EA030621EA4C5123EA4C5350EAE2
:4008C000013518BF52EA033541F4801143F4801338D0A0FB02CE4FF00005E1FB02E506F00042E0FB03E54FF00006E1FB03569CF0000F18BF4EF0010EA4F1FF04B6F5007F77
:4009000064F5407404D25FEA4E0E6D4146EB060642EAC62141EA55514FEAC52040EA5E504FEACE2EB4F1FD0C88BFBCF5E06F1ED8BEF1004F08BF5FEA500E50F1000041EB71
:40094000045170BD06F0004646EA010140EA020081EA0301B4EB5C04C2BFD4EB0C0541EA045170BD41F480114FF0000E013C00F3AB8014F1360FDEBF002001F0004170BD1B
:40098000C4F10004203C35DA0C341BDC04F11404C4F1200500FA05F320FA04F001FA05F240EA020001F0004221F0004110EBD37021FA04F642EB06015EEA430E08BF20EA61
:4009C000D37070BDC4F10C04C4F1200500FA04F320FA05F001FA04F240EA020001F0004110EBD37041F100015EEA430E08BF20EAD37070BDC4F1200500FA05F24EEA020E3B
:400A000020FA04F301FA05F243EA020321FA04F001F0004121FA04F220EA020000EBD3705EEA430E08BF20EAD37070BD94F0000F0FD101F00046400041EB010111F4801F5F
:400A400008BF013CF7D041EA060195F0000F18BF704703F00046520043EB030313F4801F08BF013DF7D043EA0603704794EA0C0F0CEA135518BF95EA0C0F0CD050EA410674
:400A800018BF52EA4306D1D181EA030101F000414FF0000070BD50EA410606BF1046194652EA430619D094EA0C0F02D150EA013613D195EA0C0F05D152EA03361CBF1046EB
:400AC00019460AD181EA030101F0004141F0FE4141F470014FF0000070BD41F0FE4141F4780170BD70B54FF0FF0C4CF4E06C1CEA11541DBF1CEA135594EA0C0F95EA0C0F6B
:400B000000F0A7F8A4EB050481EA030E52EA03354FEA013100F088804FEA03334FF0805545EA131343EA12634FEA022245EA111545EA10654FEA00260EF000419D4208BF27
:400B4000964244F1FD0404F5407402D25B084FEA3202B61A65EB03055B084FEA32024FF480104FF4002CB6EB020E75EB030E22BFB61A754640EA0C005B084FEA3202B6EBA7
:400B8000020E75EB030E22BFB61A754640EA5C005B084FEA3202B6EB020E75EB030E22BFB61A754640EA9C005B084FEA3202B6EB020E75EB030E22BFB61A754640EADC003A
:400BC00055EA060E18D04FEA051545EA16754FEA06164FEAC30343EA52734FEAC2025FEA1C1CC0D111F4801F0BD141EA00014FF000004FF0004CB6E711F4801F04BF01439A
:400C00000020B4F1FD0C88BFBCF5E06F3FF6AFAEB5EB030C04BFB6EB020C5FEA500C50F1000041EB045170BD0EF0004E4EEA113114EB5C04C2BFD4EB0C0541EA045170BD35
:400C400041F480114FF0000E013C90E645EA060E8DE60CEA135594EA0C0F08BF95EA0C0F3FF43BAF94EA0C0F0AD150EA01347FF434AF95EA0C0F7FF425AF104619462CE7A1
:400C800095EA0C0F06D152EA03353FF4FDAE1046194622E750EA410618BF52EA43067FF4C5AE50EA41047FF40DAF52EA43057FF4EBAE12E74FF0FF3C06E000BF4FF0010C4E
:400CC00002E000BF4FF0010C4DF804CD4FEA410C7FEA6C5C4FEA430C18BF7FEA6C5C1BD001B050EA410C0CBF52EA430C91EA030F02BF90EA020F0020704710F1000F91EAF6
:400D0000030F58BF994208BF90422CBFD8176FEAE37040F0010070474FEA410C7FEA6C5C02D150EA013C07D14FEA430C7FEA6C5CD6D152EA033CD3D05DF8040B704700BF77
:400D40008446104662468C461946634600E000BF01B5FFF7B7FF002848BF10F1000F01BD4DF808EDFFF7F4FF0CBF012000205DF808FB00BF4DF808EDFFF7EAFF34BF012060
:400D800000205DF808FB00BF4DF808EDFFF7E0FF94BF012000205DF808FB00BF4DF808EDFFF7CEFF94BF012000205DF808FB00BF4DF808EDFFF7C4FF34BF012000205DF81E
:400DC00008FB00BF4A0011D212F5001211D20DD56FF47873B3EB62520ED44FEAC12343F0004343EA505323FA02F070474FF00000704750EA013002D14FF0FF3070474FF0E3
:400E000000007047014B1868704700BF8C81FF1F0E4B70B51E460E4C0025E41AA410A54204D056F8253098470135F8E700F0BEF8084B094C1E46E41AA4100025A54204D0E5
:400E400056F8253098470135F8E770BDB80F0000B80F0000B80F0000C00F0000024B0146186800F017B800BF8C81FF1F10B5431E0A44914204D011F8014B03F8014FF8E733
:400E800010BD03460244934202D003F8011BFAE77047000070B5CC1C24F0030408340C2C38BF0C24002C064603DA0C233360002070BD8C42F9D3204A136810461946A1B1D3
:400EC0000A68121B0ED40B2A03D90A608B188C501FE08B420BBF5A684A6802605A6018BF0B4616E00B464968E9E7144D2B681BB9304600F025F828603046214600F020F8A9
:400F0000421C0346D1D0C51C25F0030585420AD11C6003F10B001A1D20F00700821A0AD05142995070BD3046E91A00F009F80130BBD02B46ECE770BDB481FF1FB081FF1FA8
:400F400038B5064C0023054608462360FFF7DAF8431C02D1236803B12B6038BD7C83FF1F00000000105100406000C05100401000F051004010000000014000100014014084
:400F8000800000150140000700400140000A004C01400002005001402000000080140140F80000488000000043000000F8B500BFF8BC08BC9E4670474D0000008101000063
:400FC000F8B500BFF8BC08BC9E46704729000000E00F00000881FF1F88000000F0010000000000008083FF1FFF0000007F800000010000000000E02EC05D000018000000D7
:4010000000366E010000000000000000000000000000000000000000000000000000000000000000A80F000000000000000000000000000000000000000000000000000054
:401040000000000000000000000000000000000000000000000000000000000000000000000000002C81FF1F000000000000000000000000000000000000000000000000A5
:401080000000000000000000000000000000000000000000000000000000000000000000000000000000000000000000000000000000000000000000000000000000000030
:4010C00000000000000000000000000000000000000000000000000000000000000000000000000000000000000000000000000000000000000000000000000000000000F0
:4011000000000000000000000000000000000000000000000000000000000000000000000000000000000000000000000000000000000000000000000000000000000000AF
:40114000000000000000000000000000000000000000000000000000000000000000000000000000000000000000000000000000000000000000000000000000000000006F
:020000040003F7
:0200000480007A
:4000000003650040101401403315014004160140051701400240014003410140024201400243014002480140044901400250014001510140847F857F867F08090A021008DF
:4000400014071608180A1A0520043001340F3E015602573358045B045F010120048805100740092A0C020E2210801688180819211DB81E201F202401260127262D202F20A9
:4000800036113F8045A0462047044CC45608574259015F026001662071027280740287209B409E209F02A702B302C0F2C2BEC458CA60CCA0CE10D030D220D681D828EE8068
:4000C000560257375B045F015F0266207740D680D8203C20CE205210A410D4209E10A4109E10A4109E10A41086109E10B010E24010011A01100100000000040051002E000F
:4001000017002800080A20050005020A6F0000000053002C0400020000001000006C0013113F004000000000000F20401F70403080000002000040546201000000600BECE7
:4001400036FFFFFF0020F000001000000000023704040404000000010000E001000100016001000110501050000000000000000000000000000000000001010001000000DA
:40018000000000000000000000000000000000000000000000000000000000000000000000000000000000000000000000000000000000000000000000000000000000003F
:4001C00000000000000000000000000000000000000000000000000000000000000000000000000000000000000000000000000000000000000000000000000000000000FF
:4002000000000000000000000000000000000000000000000000000000000000000000000000000000000000000000000000000000000000000000000000000000000000BE
:40024000000000000000000000000000000000000000000000000000000000000000000000000000000000000000000000000000000000000000000000000000000000007E
:0200000490006A
:0400000000004005B7
:0200000490105A
:04000000BC90ACAF55
:0200000490303A
:0200000070028C
:0200000490402A
:4000000000000000000000000000000000000000000000000000000000000000000000000000000000000000000000000000000000000000000000000000000000000000C0
:400040000000000000000000000000000000000000000000000000000000000000000000000000000000000000000000000000000000000000000000000000000000000080
:400080000000000000000000000000000000000000000000000000000000000000000000000000000000000000000000000000000000000000000000000000000000000040
:4000C0000000000000000000000000000000000000000000000000000000000000000000000000000000000000000000000000000000000000000000000000000000000000
:0200000490501A
:0C00000000012E12306900012E18A06BC8
:00000001FF