:400000000080002011000000592300005923000008B5044B1A6803F53F5302331A6002F0B3F900BFFA46004010B5054C237833B9044B13B10448AFF300800123237010BDD1
:400040002887FF1F0000000030A30000084B10B51BB108480849AFF300800848036803B910BD074B002BFBD0BDE81040184700BF0000000030A300002C87FF1F0881FF1F4F
:40008000000000008C46F0B50027674502F1040217D232F8044C32F8023CA4089B0850F824E050F82310A6009D0040F8241040F823E0341D2B1D0659C55802370551C65078
:4000C000E3E7F0BD8C462DE9F04F028895B001EB8203029351088C0004910299E34689464368D20803EB02120CEB040503900C4410920193019A10990BF1100B8A4205F1C3
:40010000100504F1100409F1100900F00E8112935BF8103C59F8102C05935BF80C3C114606935BF8083C0598079355F8103CCDF84CC0089355F80C3C1192099355F8083CE3
:4001400059F80CAC0A9355F8043C59F8088C0B9354F8103C59F8046C0C9354F80C3C5BF8047C0D9354F8083C0E9354F8043C0F9309F0B6F951464BF8100C069809F0B0F98D
:4001800041464BF80C0C079809F0AAF931464BF8080C384609F0A4F9119A4BF8040C1146059809F09BF951460590069809F096F941468246079809F091F931460690384673
:4001C00009F08CF9079008980C9909F089F90D9945F8100C099809F083F90E9945F80C0C0A9809F07DF90F9945F8080C0B9809F077F9089945F8040C0C9809F06FF909996E
:4002000080460D9809F06AF90A9908900E9809F065F90B9909900F9809F060F9019B0A901E68059831465F6809F062FA39460B90504609F05DFA0B9A0146104609F050F919
:40024000314649F8100C504609F052FA39468246059809F04DFA0146504609F03FF9394649F80C0C404609F043FA31468246089809F03EFA0146504609F030F9394644F83F
:40028000100C089809F034FA31460746404609F02FFA0146384609F023F9019B44F80C0C9E6806981033314653F8047C019309F01FFA39468046079809F01AFA0146404698
:4002C00009F00EF9314649F8080C079809F010FA39468046069809F00BFA0146404609F0FDF8394649F8040C099809F001FA314680460A9809F0FCF90146404609F0EEF816
:40030000394644F8080C0A9809F0F2F931460746099809F0EDF90146384609F0E1F844F8040CDDF84CC0129BE4E6BDF81040604621461A46022300F0B7FC2146039B029810
:400340005A68022315B0BDE8F04F00F0ADBC03882DE9F04F4FEA53080B464FEA8802A5B013440093134403931344029343680D6801934FEA58031293009B0D9053F828401C
:40038000049128462146069209F0AAF821468346284609F0A3F8049B81465D68039B28465C68214609F09CF821468246284609F095F8009B05905F68029B58465E68049BC5
:4003C00053F82850039B294653F8284009F088F8214609F085F8049B43F8080B0993009B5046596809F07CF8029B596809F078F8049B39465860484609F072F8314609F03E
:400400006DF8049B294643F82800009B059808330E9309F063F8214609F062F8009B29465860584609F05AF8214609F057F8009B394643F82800039B504608330F9309F0E3
:400440004DF8314609F04AF8039B39465860484609F044F8314609F043F8039B294643F82800029B05980833109309F039F8214609F034F84FF00009CA46029B069A5860B7
:40048000019B043A18331193129B023B5B082093099B0B93039B043B0893029B13440793DDF844C00E9BCDF8309006930F9B0A93109B05930B9BA9F1080908330B930C9B30
:4004C0000CF1180C08330C93089B083B0893079B083B0793069B083306930A9B08330A93059B08330593209B9A4500F0BB810B9BCDF88CC053F8085C0A9B284653F8084CBE
:40050000214608F0EDFF21468046284608F0E6FF0B9B139053F8045C0A9B284653F8044C214608F0DDFF21460746284608F0D6FF069B149053F804BC059B594653F8046CE2
:40054000139808F0CDFF314608F0C8FF069B159053F8085C059B294653F8084C149808F0BDFF214608F0BCFF29461690404608F0B5FF214608F0B2FF59461790384608F0A6
:40058000ADFF314608F0AAFF59461890139808F0A5FF314608F0A4FF29461990149808F09FFF214608F09AFF29461490404608F097FF214608F094FF0B9B43F8080C069BD6
:4005C000384653F8041C08F08BFF059B53F8041C08F086FF0B9B43F8040C009B53F80950029B284653F80940214608F079FF21468046284608F072FF009B834603EB090201
:40060000029B55684B445C68284621462292139308F066FF21461A90284608F05FFF089B1B909D68079B28469C68214608F056FF5946219008F054FF089B1C905F68079B3E
:4006400039465E681B9808F049FF314608F048FF39461D90404608F041FF314608F03EFF29461E901A9808F039FF214608F036FF219B59461F90184608F030FF394683468C
:40068000304608F02BFF1B9908F028FF294606461A9808F025FF214608F022FF229A089B50605968404608F01BFF079B596808F017FF009B0C9A43F80900019B15989C582B
:4006C000134421465D6809F013F829468046169809F00EF80146404608F002FF069B214643F8080C169809F003F829468046159808F0FEFF0146404608F0F0FE069B294638
:4007000043F8040C1D9808F0F3FF214680461C9808F0EEFF0146404608F0E0FE089B294698601C9808F0E4FF214605461D9808F0DFFF0146284608F0D3FE089B0C9A586011
:40074000019B179853F8124003EB0A1321465D6908F0CEFF29460746189808F0C9FF0146384608F0BDFE0A9B214643F8080C189808F0BEFF29460746179808F0B9FF0146CE
:40078000384608F0ABFE0A9B214643F8040C1F9B0AF1010A03F1004008F0AAFF294607461E9808F0A5FF0146384608F097FE139B294658601F9808F09BFF214605461E9848
:4007C00008F096FF0146284608F088FE029BDDF88CC043F809005CF8184C199821465CF8145CCDF84CC008F083FF29460746149808F07EFF0146384608F072FE059B214647
:4008000043F8080C149808F073FF29460746199808F06EFF0146384608F060FE059B294643F8040C304608F063FF21460746584608F05EFF0146384608F050FE079B294679
:400840009860584608F054FF21460546304608F04FFF0146284608F043FE079BDDF84CC0586027E6099A4FEACA031A440199069203F1080211441A924FEA0A1C019A0CF1C4
:40088000100C624418911821179201FB0AF207920799119ACDF864C00A4416920E9AD7180F9A1A440592109A02EB0309099B53F83A500F9B284653F83A40214608F010FE95
:4008C00021460890284608F009FE069B83465D68059B28465C68214608F002FE21460A90284608F0FBFDD7F80480D9F804600B904146584608F0F4FD314608F0EFFD0E9B98
:400900000C9053F83A50109B0B9853F83A40294608F0E4FD214608F0E3FD29461390089808F0DCFD214608F0D9FD414614900A9808F0D4FD314608F0D1FD41461590584657
:4009400008F0CCFD314608F0CBFD294683460B9808F0C6FD214608F0C1FD29460646089808F0BEFD214608F0BBFD099B43F83A0079680A9808F0B4FDD9F8041008F0B0FDD8
:40098000069B1A9A5860019B0C989D58189B29465C6808F0ADFE21468046139808F0A8FE0146404608F09CFD0E9B294643F83A00139808F09DFE214605460C9808F098FEE9
:4009C0000146284608F08AFDDDF864C0019B786053F80C50179B149829465C6808F088FE21460746159808F083FE0146384608F077FD0F9B294643F83A00159808F078FEEC
:400A000021460546149808F073FE0146284608F065FD059B079A5860119B58469D58169B29465C6808F064FE21460746304608F05FFE0146384608F053FD109B294643F889
:400A40003A00304608F054FE21460546584608F04FFE0146284608F041FDC9F80400BDF8484004982146019A042300F01DF90D9B009821465A68042300F016F90D9B03985D
:400A800021465A68042300F00FF921460D9B02985A68042325B0BDE8F04F00F005B9012A2DE9F04106460D461746984604881BD0B4F5807F2BD009D8202C28D001D8102C55
:400AC00002E0402C28D0802C1CD02BE0B4F5806F18D002D8B4F5007F04E0B4F5006F16D0B4F5805F18D01DE00B1D0022A24203F10803DDD253F8081C013201F1004143F850
:400B0000081CF3E730462946FFF7DCFA0AE030462946FFF71CFC05E0284621467268012300F0C2F8B8F1000F04D02846B189B268FFF7A8FA012F1FD1204608F081FD01469E
:400B40004FF07E5008F088FE07460026A64205F1080511D255F8080C394608F0C9FD45F8080C55F8040C394600F1004008F0C0FD013645F8040CE9E7BDE8F0812DE9F04147
:400B80000D46164600F108040EB354F8080C54F8048C014608F0ACFD41460746404608F0A7FD0146384608F09BFC002739468046043508F04FFF28B1404602F06FFC45F876
:400BC000040C01E045F8047C013E0834DCE7BDE8F0812DE9F84F80468B46924699460568012400275C450CD058F824602846314608F01CFF08B92E4600E027460134354614
:400C0000F0E7CAF80050C9F80070BDE8F88F000003460180B1F5807F4FF00000586022D00CD8202923D003D8102928D1154A1FE040291AD0802922D1134A19E0B1F5806FB1
:400C40000FD004D8B1F5007F19D1104A10E0B1F5006F04D0B1F5805F11D10D4A08E00D4A06E00D4A04E00D4A02E00D4A00E00D4A918999819168526899605A6000E0FF20F9
:400C800040B27047DCA30000ACA300008CA300005CA300006CA300007CA300009CA30000BCA30000CCA300002DE9F04FABB00B9394460B460D900E910993099B0D99DB08D6
:400CC0000193099B0198DB000A93019B0C1DDA000D9B182113449A469A180C9228224243039230224243069238224243414308920C9A0291A2EBC0024101059118920101C8
:400D00000022049107921093029B54F8046C5AF8035030462946CDF868C008F0E1FB29468046304608F0DAFB079B0F901A46109B53F832601993059B30465AF803502946A5
:400D400008F0CEFB29460746304608F0C7FB079A0C9B109053F83290039B48465AF80360314608F0BDFB31460546484608F0B6FB049B11905AF803B0069B58465AF8039067
:400D8000494608F0ADFB49460646584608F0A6FB29461290404608F0A1FB29461390404608F09EFB31460546384608F097FB31461490384608F094FB06462846314608F08B
:400DC0008FFB314644F8040C284608F087FB029B4AF803002668059B3046E558294608F07FFB29460746304608F078FB039BDAF80460E55815902946304608F071FB29460F
:400E00001690304608F06AFB049B834654F80380069B4046E558294608F062FB29460646404608F05BFB029B179054F80380089B4046E558294608F053FB29468146404661
:400E400008F04CFB31468046384608F047FB31460546384608F044FB49460746169808F03DFB49460646169808F03AFB81463846494608F035FB49462060384608F02EFBAD
:400E8000059B3146E050139808F02AFB079A0C9B314643F83200139808F020FB039B14994AF80300284608F019FB049B1499E050284608F015FB069B1299E050109808F021
:400EC0000DFB674908F014FC12990646109808F007FB634908F00CFC41460546584608F0FDFA5F4908F004FC41460746584608F0F7FA5B4908F0FCFB314683460F9808F021
:400F0000EDFA314681460F9808F0EAFA29460F90119808F0E3FA29461090119808F0E0FA39460646159808F0D9FA39460546159808F0D6FA59460746179808F0CFFA594676
:400F40008046179808F0CCFA83460F98594608F0C7FA079A189B594643F832000F9808F0BDFA069B41464AF80300484608F0B8FA059B41464AF80300484608F0AFFA049BE1
:400F800031464AF80300384608F0A8FA3146CAF80400384608F0A4FA089B1099E050284608F09CFA039B1099E050284608F098FA029B099AE050079B134407930A9B9A449F
:400FC0001C44079B0E9ADDF868C09342199BFFF49AAE019B072B40F28D8201220D980B9B07925CF83320D9000F921A015CF8022000F10C0A109218225A435CF80220119225
:401000005A015CF80220129228225A435CF80220139230225A435CF80220149238225A435CF8022015920CEB010254680A44169454680A44179454680A44189454680A44F7
:40104000199454680A441A9454680A4452681B941C9200F108021D929346079A0C9201E0F304353F2893059B5AF8045C5BF8034028462146CDF8A4C008F032FA2146074663
:40108000284608F02BFA019B1E905BF83350039B28465BF80340214608F022FA21460646284608F01BFA049B1F905BF80380069B40465BF80350294608F012FA294604461D
:4010C000404608F00BFA029B20905BF80390089B48465BF80380414608F002FA41460546484608F0FBF921462190384608F0F6F921468146384608F0F3F929460446304630
:4011000008F0ECF929462290304608F0E9F905462046294608F0E4F929464AF8040C204608F0DCF9059BDBF804505AF8034023902146284608F0D4F921468046284608F03C
:40114000CDF9019B24905AF83350039B28465AF80340214608F0C4F921460646284608F0BDF9049B25905AF80350069B28465AF80340214608F0B4F921460746284608F035
:40118000ADF9029B26905AF80320089B10465AF803502792294608F0A3F9279A04462946104608F09BF939462790404608F096F939460546404608F093F9214607463046CA
:4011C00008F08CF921468046304608F089F941460646484608F084F941460446484608F07DF931468046384608F07AF93146CBF80400384608F072F922990746284608F0FF
:401200006DF922990646284608F06AF905461298239908F06DFA39468146199808F068FA0146484608F05CF9059B39464BF80300129808F05DFA23990746199808F058FA93
:401240000146384608F04AF9059B21464AF80300109808F04DFA31460746179808F048FA0146384608F03CF9049B31464BF80300109808F03DFA21460646179808F038FADD
:401280000146304608F02AF9049B41464AF80300149808F02DFA294604461B9808F028FA0146204608F01CF9069B29464BF80300149808F01DFA414604461B9808F018FA41
:4012C0000146204608F00AF9069B21994AF803001F9808F003F9894908F00AFA219904461F9808F0FDF8854908F002FA27990746259808F0F3F8814908F0FAF927998146DA
:40130000259808F0EDF87D4908F0F2F9214605461E9808F0E3F821461F901E9808F0E0F839460446209808F0D9F839460646209808F0D6F849468046249808F0CFF84946A1
:401340000746249808F0CCF829468146269808F0C5F829461E90269808F0C2F8024620461146209208F0BCF8209A05461146204608F0B4F81E9904461F9808F0B1F81E9999
:4013800020901F9808F0AAF841461E90484608F0A5F841461F90484608F0A2F831468146384608F09BF831468046384608F098F8294606460F9808F09BF91F990746169853
:4013C00008F096F90146384608F08AF8019B1F994BF833000F9808F08BF929460746169808F086F90146384608F078F8019B21464AF83300159808F07BF9494605461C980D
:4014000008F076F90146284608F06AF8089B49464BF80300159808F06BF9214605461C9808F066F90146284608F058F8089B20994AF80300139808F05BF9414604461A98E0
:4014400008F056F90146204608F04AF8039B41464BF80300139808F04BF9209904461A9808F046F90146204608F038F8039B1E994AF80300119808F03BF93146044618984B
:4014800008F036F90146204608F02AF8029B31464BF80300119808F02BF91E990446189808F026F90146204608F018F8029B099A4AF803000C9BDDF8A4C013440C930A9BA2
:4014C0000E9A9B449A440C9B9342289BFFF4CAAD079A0199013207920B9A1D981344079A8A427FF47EAD0B9BDB009BB20B931346FFF7E2BB2BB0BDE8F08F00BFF304353F9A
:40150000024A136801331360704700BF20A9FF1F10B501F0B5FD0024204601F0E1FD28B92046BDE81040034901F0D2BD0134052CF2D110BD01150000FFF7EABF10B5A0B057
:4015400001A80021142208F0F3FA06A80021682208F0EEFA002213461449154802F08AFF0446F0214FF4A072002004F03DFF4FF4A072F021002004F04FFF0223204601A9A0
:40158000039303F06CFC0B4B204606930A4B06A907930A4B0A4A09930A4B0B930A4B0D930A4B03F07AFC20B010BD00BF304E0200884E0200051600001F1600003916000009
:4015C0000D59000061160000631600006D550000012908B503D100F045F8002008BD4FF0FF3008BD08B505484FF4005102F060F9BDE80840024802F0D1BD00BF4487FF1F8B
:40160000EC46020010B50446002001F0DFFD204601F08CFD01F084FDC307FBD510BD10B50446012001F0D2FD204601F07FFD01F077FDC307FBD510BD70B5054601200E464D
:401640002C4601F0C3FD631BB34208DA14F8010B01F06CFD01F064FDC307FBD5F3E770BDFEE7FEE708B50120FFF7CCFF0A2001F087FC3620FFF7C6FF8820FFF7D0FF3A20AE
:40168000FFF7C0FF5520FFF7CAFF1120FFF7BAFF2920FFF7B7FFBDE80840FA2001F070BC10B5044C00EB4000225420444170837010BD00BF44A9FF1F10B500240021204683
:4016C0000A460B460134FFF7EBFF902CF6D1BDE8104001F03DBE00002DE9F04180460D4616461F460E4C2068B8B1414608F0F6FA88B9E06820B1294632463B46FFF7D0FF6E
:40170000206920B1294632463B46FFF7C9FFBDE8F04101F01DBE1434E5E7BDE8F08100BF0C81FF1FF7B50024254601F07BFD002849D0002001F018FA0028F6D001F028FAEA
:4017400041F27073214E3060A0F5EA403038984203D9012001F046FD01E0002DE5D0306807F06EFF1A4F194D47F824000134A4B2B4F5006F25D3174C174EB4F8341317487C
:40178000FFF746FA94F83833144839462A79FFF786F938463146D4F83423FFF7EFF90023D4F8341301AA3360304605F10803FFF710FA002001F016FDFA2001F0E1FBA8680D
:4017C00001E00125B1E703B0F0BD00BF44A7FF1F04ABFF1F0C81FF1F04CBFF1FF4AAFF1F064B53F8142C2AB1143353F8241C8142F7D100E0024A1046704700BF2081FF1F36
:4018000044F8010070B54FF0FF3002F065FC4FF07F4002F063FC304802F062FC022002F08FFC0C2002F082FC02F0EEFC2B4802F057FC782114222A4802F0C4FE264802F04A
:401840004FFC284878213C2202F0BCFE264D78215022264802F0B6FE204802F041FCD5F840037821A02202F0ADFE002401F0DAFCF0B101F0CFFC06460028F7D102F0AFFBB9
:4018800002F02CFC30466421F0224FF4967302F0B3FE84F001044FF07F4002F01FFC05EB0413D3F840037821A02202F08BFEDDE701F0B8FC10B902F0A7FCF9E7074802F0BB
:4018C0000FFC782164220A4802F07CFE4FF4FA7001F056FB204670BD50FA01002028020056F8010065F801000C81FF1F80F80100A0F8010008B54FF0FF3002F0EDFB4FF03B
:401900007F4002F0EBFB094802F0EAFB022002F017FC0C2002F00AFC02F076FCBDE80840782103480A4602F04DBE00BFD8040200D0F8010013B54FF0FF3002F0CDFB4FF086
:401940007F4002F0CBFB1E4802F0CAFB022002F0F7FB0C2002F0EAFB02F056FC78212822184802F02FFE4FF0FF2002F0B7FB0A24C822134678210094282002F05FFE4FF0AE
:40198000FF3002F0ABFB7821A0220F4802F01AFE0E4802F0A3FBDC21C8224FF496730094282002F04BFE4FF0FF3002F097FB084878214FF4827202B0BDE8104002F002BE09
:4019C0002028020007F901001FF90100FF0000FF24F9010010B50446B44802F081FB022002F0AEFB0E2002F0A1FB2046B04908F075F938B978200D210C22082302F096FA1E
:401A0000AB48C1E22046AB4908F068F988B90823782014210C2202F089FA7821F022A54802F0C8FDA44802F05BFBA44890211422ACE22046A24908F051F938B9782014214C
:401A40000C22082302F072FA9D489DE220469D4908F044F938B978201B210C22082302F065FA984890E22046974908F037F988B90823782023210C2202F058FA7821F02236
:401A8000914802F097FD8C4802F02AFB8B48902123227BE220468D4908F020F938B9782023210C22082302F041FA88486CE22046874908F013F988B9082378202A210C2241
:401AC00002F034FA7821F022814802F073FD7A4802F006FB794890212A2257E220467D4908F0FCF838B978202A210C22082302F01DFA784848E22046774908F0EFF838B916
:401B0000782032210C22082302F010FA72483BE22046724908F0E2F888B90823782039210C2202F003FA7821F0226C4802F042FD614802F0D5FA61489021392226E2204603
:401B4000674908F0CBF838B9782039210C22082302F0ECF9624817E22046624908F0BEF888B90823782041210C2202F0DFF97821F0225C4802F01EFD4F4802F0B1FA4F4800
:401B80009021412202E22046574908F0A7F838B9782041210C22082302F0C8F95248F3E12046524908F09AF888B90823782048210C2202F0BBF97821F0224C4802F0FAFC38
:401BC0003D4802F08DFA3D4890214822DEE12046474908F083F838B9782048210C22082302F0A4F94248CFE12046424908F076F838B9782050210C22082302F097F93D485A
:401C0000C2E120463C4908F069F888B90823782057210C2202F08AF97821F022364802F0C9FC254802F05CFA244890215722ADE12046324908F052F838B9782057210C2293
:401C4000082302F073F92D489EE120462C4908F045F888B9082378205F210C2202F066F97821F022264802F0A5FC134802F038FA124890215F2289E12046224908F02EF8C4
:401C800038B9782064210C22082302F04FF91D487AE120461C4908F021F8B8BB782071210C22082302F042F917486DE1202802002EF9010031F901002015020035F9010014
:401CC00037F901003AF901003DF9010041F9010044F9010048F901004BF901004EF9010052F9010055F9010059F901005CF9010060F9010063F9010066F901006AF9010041
:401D00006DF9010071F9010074F901002046A14907F0E4FF88B97820014608230C2202F005F97821F0229B4802F044FC9A4802F0D7F99A489021782228E12046984907F0F8
:401D4000CDFF38B9782001460C22082302F0EEF8934819E12046934907F0C0FF88B9082378207F210C2202F0E1F87821F0228D4802F020FC884802F0B3F9884890217F220E
:401D800004E12046884907F0A9FF38B978207F210C22082302F0CAF88348F5E02046834907F09CFF88B90823782087210C2202F0BDF87821F0227D4802F0FCFB764802F044
:401DC0008FF9764890218722E0E02046784907F085FF38B9782087210C22082302F0A6F87348D1E02046734907F078FF38B978208E210C22082302F099F86E48C4E02046F7
:401E00006D4907F06BFF88B90823782096210C2202F08CF87821F022674802F0CBFB5E4802F05EF95D4890219622AFE02046634907F054FF38B9782096210C22082302F0A7
:401E400075F85E48A0E020465D4907F047FF88B9082378209D210C2202F068F87821F022574802F0A7FB4C4802F03AF94B4890219D228BE02046534907F030FF38B978208E
:401E80009D210C22082302F051F84E487CE020464D4907F023FF38B97820A5210C22082302F044F848486FE02046484907F016FF88B908237820AC210C2202F037F8782158
:401EC000F022424802F076FB334802F009F933489021AC225AE020463D4907F0FFFE38B97820AC210C22082302F020F838484BE02046384907F0F2FE38B97820B4210C22A2
:401F0000082302F013F833483EE02046324907F0E5FE38B97820B4210C22082302F006F82D4831E020462D4907F0D8FE88B908237820BB210C2201F0F9FF7821F02227483E
:401F400002F038FB144802F0CBF814489021BB221CE02046224907F0C1FE38B97820BB210C22082301F0E2FF1D480DE020461D4907F0B4FE38B97820C3210C22082301F0B0
:401F8000D5FF184800E018487821F022BDE8104002F010BB77F901002015020035F901007BF901007EF9010082F9010085F9010089F901008CF901008FF9010093F9010072
:401FC00096F901009AF901009DF90100A0F90100A4F90100A7F90100ABF90100AEF90100B2F90100B5F90100B8F9010010B514242146631C1420DC2201F00EFB04F164018A
:4020000004F165031420DC220F3401F005FB5F2CEED110BD10B54FF0FF3002F05DF84FF07F4002F05BF802F0EFF8194C143454F8283C63B302F0E8F8FFF7D8FF54F8280C9E
:40204000FFF7C8FC642254F81C0C13460021FFF727FB6422134654F8180C0021FFF720FB01F076F94FF47A7000F08AFF002154F81C0C0A460B46FFF713FB002154F8180CC8
:402080000A460B46FFF70CFB01F062F9CEE710BD2081FF1F2DE9F34104464FF0FF3002F01BF84FF07F4002F019F8022002F048F80C2002F03BF802F0A7F8FFF797FF514892
:4020C000002500EB04108468D0F80C802068FFF781FC002164230A462068FFF7FDFA4A4801F0FEFF4949002201A807F0D3FD484864214FF48C7202F065FA01A8A0214FF41C
:402100008C7202F05FFA01F08DF8002877D0FFF709FB404BAE00D3F85C33C01AFFF760FB54F82570394607F0D9FD002856D101F071F80028FBD000210B466422A059FFF709
:40214000CBFA322000F01CFF4FF0FF3001F0C6FFA059FFF73FFCFFF7AFFA2B4801F0C0FF2B4864214FF48C7202F02CFAA0214FF48C7201A802F026FA01354FF07F4001F0FA
:40218000ADFFFFF733FF01A820492A4607F082FD454511DB20487821F02202F013FA1C4864214FF48C7202F00DFA01A8A0214FF48C7202F007FA22E0154864214FF48C72E5
:4021C00002F000FA043601A8A0214FF48C7202F0F9F9A059FFF7FEFBA0590AE00022384664211346FFF778FA322000F0C9FE54F8250000210A466423FFF76EFA83E702B08D
:40220000BDE8F0814884FF1F20150200DFF90100C1F901000C81FF1FC7F901000000000010B562B600F088FC00F096FC00F0C0FF02F01AF840A3D3E900239020404900F0F6
:40224000FBFF0024631E062B05D8DFE803F00A1D232C41046F00FFF72FFA0124FFF76AFBF0E700F0D7FF28B900F0D4FF0028FBD00224E7E700F0D6FF0028E3D100F0D2FFA4
:402280000028FBD00424DDE7FFF7BCFAFFF702FF0324D7E700F0C6FF0028D3D100F0C2FF0028FBD0CDE7FFF725FB254B6422002183F8BD2083F8BE1083F8BF2083F8BA2061
:4022C00083F8BB1083F8BC20052401F041F8B9E7FFF728FA1B4CC4F85C034FF0FF3001F0FBFE4FF07F4001F0F9FE174801F0F8FE01F08AFFD4F85C231449154807F0CAFCF4
:4023000013487821A02202F05DF90D4B002483F8BD4083F8BE4083F8BF4083F8BA4083F8BB4083F8BC4001F013F88BE7FFF772FE88E700BFAFF300809A9999999999294032
:4023400044A9FF1F0C81FF1F20150200D2F9010034A9FF1FAFF30080FEE70000084908B50B68084A1844821A802A01DC086005E007F084FB0C2303604FF0FF33184608BD67
:402380007086FF1F80DCFF1F08B51148114AC8B1A2F1100132C9234604391E1BAE4204D051F8046F43F8046BF7E71D4652F8041C5C1B8C4203D0002443F8044BF8E7013874
:4023C0001032E4E707F060FBFFF72AFFFEE700BF010000003854020008B5124A124B1A60124A136843F4007313600023032B98BF0F4A4FEA830094BF52F823100D490E4A0D
:402400000133302B1150F1D10C4B19780C4B19700C4B1A6000F036F800F0F2FC0A4B00221A6008BD0004FA050CED00E014ED00E000000000592300000080FF1FBC76004056
:402440000481FF1F08ED00E00081FF1F012807D8044B53F8202018441178037A0B431370704700BF0CFA0100012808D8044B53F820201844017A137823EA01031370704723
:402480000CFA0100F8B572B6704A0024137843F0040313706E4A062303FB04230021D3F80A00DA89013407F043FB082CF2D16948002450F8041F04F1105303F1320221F089
:4024C000FF053333C9B20B4452005B0002329A4205D012F8026C12F8017CAF55F6E75E4B0C449842E5D15D4B0A221A705C4A5D49002313600A785C4C42F002020A700A7C0D
:402500005A4D42F002020A742278A1F5863142F04002227041390A78EE3542F010020A70534A192603CA45F8EE0C45F8EA1C07CA03C52A804F4A983D03CA45F83E0C45F811
:402540003A1C07CA03C54C492A800A78502042F008020A70012281F8DE24A1F2A2210B8088708A80454A1C2111704549032218200A80887043491D460868434908600220D5
:4025800081F8000208214FF04020017080F800223E4A1278D2B280F8A1263D4A118041F2512122F8021C3B4B4FF4F0701B7803F0010343EA450303F0030500F011FC013EA4
:4025C00042D0032DEFD1344B4FF480721A80334907221A70482000220A7088701A70022203F8032C0422DA7191F89C332C4D43F0070381F89C3391F89B3343F0010381F8BA
:402600009B332378812143F080032370254B197003F5F723012104331970234B23491B78DBB203F00700D34008704B70204B4021197083F89329442203F209731A7094E8B6
:402640000F0007C52B80F8BDFEE700BFE84600400CFA0100FCFFFF4760000048835800400076004003500140A04300400251004000050048140500482243004086400040A9
:402680008840004028050048004100400801004922420040254200400440004006400040B043004000480040CF0100496E5800406D510040F8B5074600F09AFB06460E4D77
:4026C0000E4C2B78032043F003032B70237843F0030323700A4B1F7000F066FC2B78304603F0FC032B70237803F0FC032370BDE8F84000F081BB00BFF8460040F9460040BE
:4027000092580040F8B5A24B0024012805461C704CD1A04B38221A7004229A700622DA701C713F225C7106331A7050229C70DC701C71987383F87E2A0A2283F87F2A2C2282
:4027400083F8802A442283F8814A83F8842A482283F8852A0227122283F8860A83F8887A83F8892A282283F88A2AEB2283F88B2A5220FFF79FFF884B582205261A70204694
:402780005C709E71DF711C725C7200F03FFA43F23332824B304629461A6000F043FA1820294600F0ADFA1D207D49ECE002284CD1784B38221A7004229A700622DA701C714C
:4027C0003F225C7106331A70012650229C70DC701C719E7383F87E2A272283F87F2A2C2283F8802A552283F8814A83F8842A5A2283F8852A0527112283F8867A83F8886A83
:4028000083F8892A192283F88A2A972283F88B2A4420FFF74FFF604B58221A7020465C709F71DD711C725C7200F0F0F95B4B4FF47A42082031461A6000F0F4F925203146A4
:4028400000F05EFA1D2057499DE003284DD1514B38221A7004229A700622DA701C713F225C7106331A70012550229C70DC701C719D7383F87E2A272283F87F2A2C2283F8E7
:40288000802A552283F8814A83F8842A5A2283F8852A0526112283F8866A83F8885A83F8892A192283F88A2A972283F88B2A4420FFF700FF384B58221A7002225C70204605
:4028C0009E71DA711C725C7200F0A0F9334B4FF47A42082029461A6000F0A4F92520294600F00EFA1D2030494DE004284FD1294B38221A7006229870DA701C713F225C7116
:4029000006331A70012550229C70DC701C719D7383F87E2A272283F87F2A2C2283F8802A552283F8814A83F8842A5A2283F8852A0526112283F8866A83F8885A83F8892A64
:40294000192283F88A2A972283F88B2A4420FFF7B1FE114B58221A7002225C7020469E71DA711C725C7200F051F90C4B4FF47A42082029461A6000F055F92520294600F00C
:40298000BFF90A491D20BDE8F84000F021BBF8BD54A7FF1F004E00409458004004DBFF1FE92B0000EB2B0000ED2B0000EF2B000070B5264C264E0025012310203370657049
:4029C00000F094F9102000F001FA1D20072100F00DFB204B04221A701F4A5D701D72137843F0180313701D4B0A221D7083F8F55283F8F652133B1A705B225D70DD701A7205
:402A00005E225A725D731422A3F67F231A7048F6F052628049F2DA020F2323712372237323743378E2806281E28114F823200C4B1A70337804EB830434F8022C094B1A8092
:402A40003078BDE87040FFF75DBE00BF54A7FF1F7486FF1F96580040075B0040935800400E4E00400C4E004070B500F0C1F9294B294D1B78294B2A4C1A78064642F00102DE
:402A80001A701A78032042F010021A701A7C42F001021A741A7C42F010021A742B78214A43F002032B70237843F002032370137843F00303137000F077FA2B781A4A03F05F
:402AC000FD032B702378304603F0FD032370137843F006031370154B7A221A70144A137843F001031370137C43F001031374537843F001035370537C43F0010353740D4AFB
:402B00004FF000531360A2F5C0721360BDE8704000F072B97486FF1FF8460040AA430040F9460040915800407758004082580040A143004080E200E010B5064CA37C2BB9D0
:402B4000E37C0BB9FFF734FF0123A374BDE81040FFF78ABF54A7FF1F024A137843F0010313707047004E0040074B1A7812B15B78DBB203E0054B1B7803F00103012B01D0EA
:402B80000028F1D01846704754A7FF1F014E0040104B114A1B78114903F00303012B03D81388088880B20DE0022B08D112880B780B490878000240EA0240184304E008884E
:402BC000138880B240EA0340064B1A780AB100225A707047144E0040124E0040104E0040114E004054A7FF1F704770477047704708B50020FFF738FC0120FFF735FC024B4A
:402C0000FF221A7008BD00BF7586FF1F10B50446FFF7EEFF2046FFF719FC014B1C7010BD7586FF1FF0B52B4B2B4E1F78328807F0070792B290424BD0284D2C78E4B26FB939
:402C400032B158B91A7842F040021A703080F0BD30801A7802F0BF021A70F0BD14F0010421D01F4F1F4B00264FF0010E1E7087F800E03E7117F8086C06F07F0607F8086CF4
:402C8000144E3678360700D568B9174E328007221A701A7812F00102FBD12B7803F0FE032B70104B1A702B780C4ADD070BD50E4B0029188014BF03220122013B1A701A7843
:402CC000D207FCD4F0BD044B188013781C431470F0BD00BF8240004080400040A2430040104000400140004002400040034A00F0F800137803431370704700BF8240004002
:402D0000F0B52C4B2C4E1F78328807F0070792B290429E464CD0294D2C78E4B26FB932B158B91A7842F040021A703080F0BD30801A7802F0BF021A70F0BD14F0010422D0B1
:402D40001F4F204B00264FF0010C1E7087F800C007F8046C17F80C6C06F07F0607F80C6C9EF80060360700D568B9174E328007221A701A7812F00102FBD12B7803F0FE0366
:402D80002B70104B1A702B780C4ADD070BD50E4B0029188014BF03220122013B1A701A78D207FCD4F0BD044B188013781C431470F0BD00BF0241004000410040A14300400A
:402DC000144000400140004002400040034A00F0F800137803431370704700BF024100400230800803D000BF01380046FCD17047EFF3108072B6704780F31088704700BF99
:402E0000074A7F23802113705170064A013BDBB202F80839002BF9D1034A1370704700BF7886FF1FF87B00400078004017280FD8084B0001C25C11B142F0200201E002F023
:402E4000DF02C254C25C42F00102C25400207047012070471070004017289FBF074A0001835C01F007019FBF03F0F10343EA41018154002088BF0120704700BF1070004075
:402E800041F6FF73994208BF4FF400519A4208BF4FF4005217289FBFC00000F1804000F5EC4081809ABFC280002001207047000017289FBF034B00011954002088BF012057
:402EC000704700BF19700040172810B51AD8C00001F07F0100F1804441EAC21204F5EC44D2B222709DF8082003F00F0343EA0213DBB263709DF80C30002003F00F03A3700C
:402F0000E07010BD012010BD10B5FFF771FF0B4A5378182B81BF147803F1FF335370E30083BF03F1804303F5F0431B78FF2488BF1370FFF761FF204610BD00BF7886FF1F58
:402F400030B504060CD411F4704509D1C40004F1804404F5F0442180A270E370284630BD012030BD03065FBFC00000F1804000F5F04081805ABFC2800020012070470000C4
:402F800010B50446B4F5004F064B05D91868FFF727FFA4F50044F5E758686043BDE81040FFF71EBF8086FF1F024B1B7A5843FFF717BF00BF8086FF1F044B00F00F021B6838
:402FC00053F8220043F82210704700BF08ED00E0054A00F01F00126800F1100352F8230042F82310704700BF08ED00E000F01F0000F16040490100F56440C9B20170704785
:403000000F4B10B50F2000240E495C609C60DC601C615C61FFF7D0FF0B4A136843F0040313600A4B4FF47A72DB68B3FBF2F3084A1360084B4FF400421C60C3F8E82010BD54
:4030400068A7FF1FAD30000010E000E08086FF1F14E000E018E000E0024A136843F002031360704710E000E008B5FFF7F5FF034A136843F00103136008BD00BF10E000E040
:4030800010B5054CA3691BB9FFF7BAFF0123A361BDE81040FFF7E8BF68A7FF1F024B1868C0F30040704700BF10E000E010B5FFF7F5FF012808D10024044B53F8243003B107
:4030C00098470134052CF7D110BD00BF6CA7FF1F024B03EB800358685960704768A7FF1F024B03EB80004068704700BF68A7FF1F08B5FFF77DFE094A137843F02003137000
:40310000937843F010039370D37843F01003D370FFF772FEBDE8084000F070B89B640040014B1878704700BF6D640040034B1B785B07FBD5024B1870704700BF6D640040EB
:403140004D64004008B50B4B1B789B0602D50A4B1B78F8E7FFF74CFE084B1A7842F001021A701A7802F0FE021A70BDE80840FFF743BE00BF6E6400405D6400409D64004090
:4031800008B5074B0F221A70FFF7DCFF054B064A1B78064B1B7800231370537008BD00BF8B6400406D6400408D6400406E64004010B5054C23781BB9FFF7E2FF01232370DA
:4031C000BDE81040FFF794BF84A7FF1F044A4001137800F0200003F0DF0303431370704720510040044AC000137800F0080003F0F70303431370704760510040044A137850
:4032000043F004031370137C43F0040313747047A2430040024B1878C0F34000704700BF61510040024B1878C0F34010704700BFF1510040000000002DE9F74F3C4D8246E8
:403240008B46002400203B492C6005F063FF06460F4632463B460020374905F05BFF2EA3D3E900238046894606F0BAF8019000284ED14946404606F0BDF8304C0AEB4A0AFF
:403280005FFA80F8C4F800A000F098F800F0B2F800F0D2F822A1D1E90001294B324683F800803B4605F036FF06F0A4F80138C0B200F0D0F81CA1D1E9000132463B4605F0A2
:4032C00029FF06F097F80138C0B200F0A1F801204FF48043014641F6FF7200F0C1F8194BDDF804C01870BBF1000F0AD1504606F0F1FB286018B1144B01221A7006E02060D8
:4033000007E0114BC5F800B083F800C0286800E0204603B0BDE8F08F0000000000E06F40666666666666D63F666666666666E63F2CA9FF1F0000F03F0000F43F18A9FF1F30
:403340003064004030A9FF1F1CA9FF1FAFF3008038B50F4D2B68D3B1FFF7D6FD0D4B0E4C1988FE2221232070FFF7EAFD29880B4D207846F24042FFF7F5FD21782878FFF7BE
:4033800097FD28780121BDE83840FFF74FBD38BD2CA9FF1F18A9FF1F24A9FF1F30A9FF1F08B5FFF725FD044A137843F020031370BDE80840FFF720BD91640040044B1A7892
:4033C00022B9044A0621117001221A70FFF7E8BF85A7FF1F8164004008B5FFF709FD044A137843F020031370BDE80840FFF704BD90640040044B1A7822B9044A0C21117048
:4034000001221A70FFF7E8BF86A7FF1F80640040014B1870704700BF8064004008B5FFF7E7FC044A137843F020031370BDE80840FFF7E2BC9F640040044B1A7822B9044A4F
:403440000621117001221A70FFF7E8BF87A7FF1F8F640040014B1870704700BF8F640040F7B586460F4616461D460B4C0020714603463A46009001902070FFF725FD31469B
:403480002A462078FFF7FCFC20780221FFF7E4FC207803B0F0BD00BF9086FF1F70B58AB0064600F049F8224D044695F90030013308D0304600F096F820B13046002106F0E9
:4034C000B5FA10B920460AB070BD1A4901220023304601910092089305F09EFC2C78CDE90401CDE902017CB900220023CDE90623684600F075F888B1089BA3B9DDE9060119
:4035000005F098FF0AB070BD0020002102460B4605F000FE022CCDE90601E9D106F0AEFA21230360E8E706F0A9FA089B0360E5E79186FF1F48FA010020F00042B2F1FF4F6C
:4035400070B5034604462DD25AB300283DDBB2F5000F4FEAE0502CD3002631467F38C3F31603C20743F4000348BF5B0040105B0019244FF080728D189D4202DC5B1BA918EF
:403580001644013C4FEA43034FEA5202F3D113B106F001031E44761006F17C5606EBC05070BD70BD014606F0A3F8214605F098FF70BD14F400020FD15B00190202F101028C
:4035C000FAD5C2F101021044C6E7014605F086FF014606F041F970BD01221044BCE700BF0020704730F0004001D102207047A0F50003B3F1FE4F01D204207047054B421E3E
:403600009A4201D803207047A0F1FF40B0FA80F040097047FEFF7F002DE9F7431E4CD4F800E0DEF85050DEF84C406F181D449EF818302618013B9BB21444F21AADF80020A1
:403640001A19ADF804206846FA1A2B44ADF80220ADF8063003F0CCFBD8B107F1010805F1FF3922463946304602F0D0F922462946304602F0CBF94A464146304602F0EEF988
:403680004A464146204602F0E9F903F0EFFA0028E7D103B0BDE8F0839486FF1F074B10B55A685C6A01325A605A6B02EBC0014C60002102F83010586210BD00BF0CDBFF1FA9
:4036C00010B50E4944680F2301EBC302126C94420A4A03D213F1FF33F6D210BD0F2B0CD81168091B11608168C06801B1486008B1016010BD02EBC303596410BD0CDBFF1F17
:40370000F8B5274E0546F368B26B013B0818134498420C4605D84B591BB943681D44FFF7CFFFB36B9C420BD954F8043C5B42E718E3582BB97B6838461D443C46FFF7C0FF80
:403740000F2306EBC302126C954203D213F1FF33F7D223E00F2B21D8083306EBC30251686019002284E82400A160246140F8045C04F1080001B1486006EBC303A160E260BE
:40378000586033680649EA1896F8293032602BB9CB689B1A8A68934288BF8B602846F8BD0CDBFF1F2DE9F74F234F8346B846FE68BC6B013E264494E82800A3BB61198E42E8
:4037C00031D954F805A0BAF1000F2CD07B6B13F83A30012B27D1D8F82C302046D1F8049000930191FFF76CFF0199D8F83420086802EBC002546020464A4606F07EF9009B95
:4038000004EB09019A4508BFD8F83430284604BF5B1BC8F83430FFF773FFBBF1000F01D0584505D24D462C44A642C4D8012000E0002003B0BDE8F08F0CDBFF1F28B1034BD7
:40384000DA6B026002B15060D86370470CDBFF1F034B5B6B03EBC00040680830704700BF0CDBFF1F054BDA690132DA615A6B12F83030013302F83030FFF7EABF0CDBFF1FC8
:4038800030B50368094953F8085C4C6B14F83530012B03D9CA690AB1013ACA61013B04F8353000230360184630BD00BF0CDBFF1F024B21F0030118605960704788A7FF1F6A
:4038C00010B5044660B1074B5B6B03EBC00359684868FFF715FF2046BDE81040FFF7DEBE10BD00BF0CDBFF1F2DE9F041224CE36A3BB9224B9D685B680835B3FBF5F50235AF
:4039000003E023691D1D05EBD305E80000F0C2F8804660B3616B226901EBC0035E68184B08361B68D2003046E76A9847226966631346C4F82C80691E8B4205D2013306EBDE
:40394000C30040F8043CF7E706EBC3064FF00008C6F80480636862629B1A2B446360256138463FB1FFF7ACFF4046BDE8F0810120BDE8F081BDE8F0810CDBFF1F88A7FF1FA5
:40398000B486FF1F70B5184A92F8283053BB012382F82830154B1021D960996811B95968890899605A2111621026002102EBC10006FA01F5013110290B4C0564F6D15868C7
:4039C0001968A0F114030B440125022222616363A163E0605D6065626560FFF791FEFFF783FF256370BD00BF0CDBFF1F88A7FF1F2DE9F0410746264E0337FFF7C3FF27F05B
:403A00000307306C0437F26B874238BF0746144634B154F8043C9F4223682CD01C46F7E7F368B26B02EB030858F8045CC5EB08052B6833B12046FFF7B5FE58F8045CC5EB05
:403A400008052B680BBB6B689F421EDC28461C1DFFF736FEF3686868DB1BF3607369E41B3B44C01B2C44736102D02946FFF748FE44F8047C09E00BB161685960616801B199
:403A80000B60A24201D12368F3632046BDE8F0810CDBFF1F2DE9F8430446394EFFF772FF356C3368AC4224BF033424F003050C35AB42334C3ED3236B62689A420FD97368E5
:403AC000776A013B7360736B4FEAC70803EB080252687262012203F8372057B92AE0013B2363FFF701FF236B013323630028E6D020E00F2306EBC302126C95420CD213F1DE
:403B0000FF33F7D208E094682CB16268954214D9A268002AF7D101330F2B03D806EBC302526CF6E72846FFF73DFE0028E1D03846FFF7B4FD0020BDE8F883D4F80490336CC9
:403B4000C5EB09020C339A4238BF4D462046FFF7B7FD736B611998444D454FF00003C8F8044027606560A360246141F8045C03DAC5EB0900FFF7C4FD3846BDE8F88300BFB2
:403B80000CDBFF1F08B1FFF785BF704773B50646FFF7F8FF054660B1FFF764FE064B02AC44F8040D1B683246002198472046FFF767FE284602B070BDB886FF1F4D4B2DE9E2
:403BC000F04F1A688BB0D169CC69A389984208DBE589854205D32568C31A06954FF0FF3613E0A368002B7CD01D88A84279DB5E88864276D35B68401B666880B203EB80050B
:403C0000069633F92030B5F90260581C099368D091F818B0A17CB2F92A900BFB01F34846B2F92270B2F92480079394F810A001F0B7FE079B089018462E4D099B2968CA6936
:403C4000896B0591069900FB03100490A37C4146039301230293D37E38460193937E524600935B4602F03CF8731C1AD049F0020001F096FE2A680699D369926B3846059266
:403C8000079A02FB06160496A27C4146039201220292DA7E01929B7E524600935B4602F01FF82B68DB695A7E1B7E9A4215D9B9F1020F12D089F0040001F072FE0D4B1B687E
:403CC000D869437E827E017EC07E434400FB01810AFB0272384601F0EBFE9DF8200001F05FFE044B617C1A68538C0B4453840BB0BDE8F08F9486FF1F044B1B68DB69DB6909
:403D000009B11A7C0A60587C704700BF9486FF1F02230B807047C3699A89914202DBDA898A420FD2986880B1038899420CD342888A4209D3C91A436833F82100C043C0F359
:403D4000C0307047012070470020704738B103888B4202D843888B4201D28068F6E770472DE9F04F384C89B023680646B3F92A80DB690146D869FFF7E9FF002860D005881D
:403D80004768751B07EBC506404696F802A001F007FED4F800C017F83520DCF81CE0DCF838309EF818B0BCF924108146BCF92200059373684FF0010C0493CDF80CA0CDF8EE
:403DC00008C09EF81BC05B46CDF804C09EF81AE0CDF800E001F084FF2368DA69537E92F818A00793534520D9B8F1020F1DD092F81BB000F0FBF8804600F0F1F800F06EF9D6
:403E0000226817F83550B2F92410B2F92200D269079BD27E0BFB031305FB02020BFB0A1101F046FE404600F059F9484601F0B8FD23687178DA69907E5A8C00FB01225A8472
:403E400009B0BDE8F08F00BF9486FF1F38B50C4B02461B680C46DD690146E869FFF776FF60B103884168D21A01EBC200AB7E407858431CB111F832205343236038BD00BF74
:403E80009486FF1F01230B80704708B5C069FFF75DFF003018BF012008BD2DE9F04F0746144698465B4385B0019302FB02F302910093002500F1FF3A6E1CB04533DB06FB09
:403EC00006F0009B5843019BB0FBF3F0009B181A03F05EFA844208BF0446029B18BF04F1FF345B1BC4EB070B3C44194622468146384603EB4505039301F088FD039B5246A4
:403F00001946584601F082FD012E09DD52462946584601F07BFD22462946384601F076FD35464C46C8E705B0BDE8F08FF7B50D4616461F46044600F0A3F8144B01301B68FB
:403F40004010DA6C1B6D06441444A2B21D44B3B2D11A07441344ADF80430AAB2BBB2ADF800106846D11A1344ADF80210ADF8063002F03EFF40B13B46324629462046FFF71D
:403F80008CFF02F073FEF5E703B0F0BD9486FF1FC3B2CAB29A1A92B210B514B2002CBCBF524214B204FB04F2C0F30723C1F307241B1B9BB21CB2090C002CC1EB1041B8BF73
:403FC0005B4289B208B2B8BF1CB204FB04230028BCBF494208B280B200FB003010BD08B502F0EEF8BDE8084001F0F0BF08B502F0EFF8BDE8084001F0E9BF10B538B309B308
:404000000AB3B2F90040B1F90030A342A8BF2346B2F902400380B1F90230A342A8BF2346B2F904404380B1F90430B2F90620A342B8BF23468380B1F906309342B8BF13469A
:40404000C38010BD11460B6803604B68436010BD68B1038889B20B440380838892B219444388818013444380C3881A44C2807047024B1B6858849984002070479486FF1F23
:40408000014B1B68187E70479486FF1FB0F90220B1F906309A4214DCB1F90220B0F906309A420EDCB0F90020B1F904309A4208DCB0F90400B1F900308342CCBF0020012045
:4040C00070470020704708B502F056F902F0BCF9BDE8084002F00CBF01F0BEBF01F0C2BF034B1B68DA6900B1D8611046704700BF9486FF1F094B10B41880094B0A46198014
:40410000084B1B68597C084B53F82130D9680C6A01461846234610BC184700BFF4DBFF1FE4DBFF1F9486FF1F1CDCFF1F034B1B68B3F92C2098851046704700BF9486FF1F34
:40414000034B1B68B3F92A2058851046704700BF9486FF1F70B50B4D00240B4E45F8044B3368702221462846984733680422214606489847064B1D60064B1C70064B1C6063
:4041800070BD00BF98A7FF1FB886FF1F1CDCFF1F9486FF1F04DCFF1FE0DBFF1F014BD860704700BF9486FF1F2DE9F3410446042016461F460D4601F0F3FB124B80461B68B2
:4041C0006846DA6C1B6D14441D4416441F44ADF80040ADF80460ADF80250ADF8067002F007FE28B9404601F0DBFB02B0BDE8F0813B4632462946204601F05AFC02F036FDA6
:40420000EFE700BF9486FF1F002110B50846FFF72FFFBDE8104043F6FF7302491A460846FFF7C2BF01C0FFFF024BDA6FD8674260704700BF98A7FF1F10B5094C23686BB977
:4042400001232360FDF7CEF9FDF778F92046BDE81040044B40F8803FFFF7E6BF10BD00BF98A7FF1F5541000070B5FFF7E5FF2F4B2E222F4C2F4D1A70FDF75EF92E4B04F1B9
:404280000C0123672B681A1DDA6303F10802A2615A7C9B631B64294B53F82200C3681B6B9847274B6366EB6823622B680833A36101232377E37702F015FF032384F868305E
:4042C000204BE064606F6363A36301F0C5FEA86801F0C8FE1C4A1D4B1A6001F021FE054601F0E0FF064601F0E3FF06B140B901F0CDFF064601F0CDFF0146304601F0CCFF78
:4043000000210846FFF7F6FE02F044FEA36F43B1A36F33B11B6803B19847A36F5B68A367F6E70B4B01221A70284670BDD5DBFF1F98A7FF1F9486FF1F0C4E02001CDCFF1FAF
:40434000044E0200785634FF204E020014DCFF1FFCDBFF1F002809DC054B53F8200020B1C3681B681BB10068F9E77047002070471CDCFF1FFFF762BAF8B51C1E06460D46DE
:40438000174601DD0020F8BD1C20FFF731FB0028F8D00DB1056109E0084B53F8241029B10B680BB11946FBE70B6903610023836084618782C66003604360F8BD1CDCFF1FB3
:4043C00081690A4A52F821309842036804D142F821300BB100225A60426802B11360036803B15A6000230360436070471CDCFF1F30B508B9012030BD8469002CFADC1B4BFF
:404400001A789442A4BF01221A70194A52F8243015461BB942F82400184630BD5A680AB11346FBE7C2681268D9680968914203DD1B68002BF8D1DDE709D1818A012906D149
:40444000196821B10B46C96809688A42F8DD5A6812B11060426001E045F824005860984208BF00230360002030BD00BFCDDBFF1F1CDCFF1F38B51D46FFF77EFF044648B1EF
:40448000FFF7B6FFE3681B6823B9034B16351B6843F82540204638BD9486FF1F2DE9F04F054685B000287FD002F09CFF404C07462368A146B3F9228002F07CFF226886B2B7
:4044C000938C9B1B93842B78002B61D047F6FF71284602F0EFFF01468246284603F014F82268938D03F00303012B04D0022B04D190FBF3F302E0034600E00023518C1FFA20
:4045000080FBCB1A9BB219B25184ADF80810B2F924200BF1FF310B44ADF80C30ADF80A20BBB2013A1A44ADF80E20514602AA2846019303F019F82268BDF80A102846918459
:40454000514600F0FFF82A5C05EB000E0A2A019B01D00D2A12D12268918D01F00301013901298ABF118CA2F8228051849EF800100A290AD1918C0B44938406E0BDF80800AC
:40458000D9F800308344A3F822B09EF8003043B923689A8C16449A8D9E8422F003029A8502E00EF101058EE705B0BDE8F08F00BF9486FF1F024B1B6859849A84FFF76EBF60
:4045C0009486FF1FF8B50B4B05461B680E46B3F92C00174640F00200FFF7A8FD04463A4628463146FFF7E6FF2046BDE8F840FFF79DBD00BF9486FF1FF7B50F4C2568EC6C5C
:404600002D6D26186F1814441D446846ADF80060ADF80440ADF80270ADF8065002F0E8FB40B12B4622463946304601F041FA02F01DFBF5E703B0F0BD9486FF1F2DE9F04F21
:40464000314D8BB02E68149CF56C366D05EB000A06EB010B15441E4408A8ADF820A0ADF82450ADF822B0ADF8266002F0C1FB002847D06300009304FB04F30193CBEB060389
:4046800001330593CAEB050301330693059B009A934232DB1346069A93422EDCA0465F460BEB040302930AEB040303932B1B0493029B9F421ADC019B08FB183002F068FE71
:4046C000049A039B02EB00091B1A394618464A46079301F09BF9079B311B41444A46184601F094F9013708F1FF38E1E7331B013B2A463946504601F0DBF902F0B7FA002819
:40470000C4D10BB0BDE8F08F9486FF1F024B1A6802B9186000F032B828A8FF1FF8B5084E0468336805461B6820469847336807465B6820469847204428603846F8BD00BF18
:4047400014DCFF1FF8B506460D46064F00243DB13B6830465B689847013D06440444F6E72046F8BD14DCFF1F0078704701207047012070470170012070470000024B1B68EF
:4047800003B11847704700BF88A8FF1F074A00F01F01C0F3C423D35C525CC0F3451003EB0243034A105C03EB0020704710520200D0510200074AC1B2C0F30743D35C525C6C
:4047C000C0F3072003EBC223034A105C03EB4010704700BFD04F0200D04E02004FF6FF7070470000F0B5DFF854E00646DEF800E00D4614461F46BEF1000F03D0F446BDE8BF
:40480000F04060470B490C4856F8042B013CC2F307435FFA82FECB5C11F80EE0C2F30722825C03EBCE2303EB42132B803D44EBD1F0BD00BFD04F0200D04E020090A8FF1F80
:40484000F0B5154E864676680F4614461D461EB1B446BDE8F0406047501E02F1804103FB00E0013907EB81010C4E0D4F0288013C02F01F0316F803E04FEAD223F35CC2F3CD
:404880004512BA5C03EB0E4303EB022341F80439A0EB0500EAD1F0BD90A8FF1F10520200D0510200104670474068801A01387047084670470068401A0138704710B4846848
:4048C000D4F8F840A44610BC60478368D3F8F4301847F7B5164604460D468768FFF7F5FF0190019ABB6A2946534020463246FFF7E5FF03B0F0BD13B584680092D4F8F040F3
:40490000A04702B010BD13B584680093D4F8F0400B46A04702B010BD10B48468D4F8F040A44610BC604730B48468D4F8EC40A44630BC60477047000073B5079E84680C4D00
:4049400076B1286888B906980090D4F8A8602046B047D4F8A8302B60064BC4F8A83004E02B6813B1C4F8A8302E6002B070BD00BF98A8FF1F35490000026CD0F8DC309069BA
:404980001847026CD0F8E030906918472DE9F34791468A4698460A9C85680B9F00942846D5F8A860B0473946C9EB0404CAEB0806621C286C06FB0222D5F8E430806902B069
:4049C000BDE8F04718472DE9F34791468A4698460A9C85680B9F00942846D5F8A860B0473946C9EB0404CAEB0806621C286C06FB0222D5F8E830806902B0BDE8F0471847AC
:404A00000139172928D8DFE801F01427272727272727270E101219290C272727272727231E250F4870470F4870470F4870470F48704703689B68D3F80401704703689B688F
:404A4000D3F8FC00704703689B68D3F80001704707487047074870470020704706487047334E00001F4E00000B4E0000B14D0000154D000039490000494E000001398068FD
:404A80000D2923D8DFE801F0090B0D0F2222221125070713181D01207047006870474068704780687047C0687047806B704788B1406B00F00100704760B1406BC0F340003A
:404AC000704738B1406BC0F3800070474FF0FF30704700207047836801290CBF586C00207047826800230B804B801368013B8B805368013BCB807047F0B5104C91B06D46F7
:404B0000264607460FCE0FC596E80F00203485E80F000FCC08AD0FC594E80F0085E80F007B6B10AA02EB830353F8402C53F8203CC7F80821C7F80C3111B0F0BD484E0200E8
:404B400007B580698DE806006A460321FCF740FD03B05DF804FB0846704708467047084670471046704710467047104670474068801A013870470068401A01387047006888
:404B8000401A013870474068801A013870474068801A013870470068401A013870472DE9F34184689846E38C0E469B0717462ED5D4F80831204698470546D4F80C313A469E
:404BC000314620469847A36922699D42D4BF002301239542B8BF43F00103626906469042B8BF43F0010313B9E36998420ADD62682368013A00920022D4F8A870013B1146F9
:404C00002046B847D4F8AC303246294601E0D4F8AC302046984741462046D4F8A43002B0BDE8F0411847F7B584680E46E38C17469B0743D5D4F8083120469847D4F80C3179
:404C4000314605463A4620469847D4F8983006461BB10022012120469847A36922699D42D4BF002301239542B8BF43F0010362699642B8BF43F0010313B9E3699E420ADD73
:404C800062682368013A00920022D4F8A870013B11462046B8472946D4F8AC30324620469847D4F8A03020469847D4F8983005467BB101220021204698470AE0D4F8AC30F9
:404CC000204698472046D4F8A03003B0BDE8F0401847284603B0F0BD38B5856804469DB94FF4BE70FEF784FE084B4FF4BE721B68A06029469847A3680222DA8401221A6293
:404D0000034A1C64C3F8102138BD00BFB886FF1FF94A000070B506460D461446FFF7DCFFB368002B3BD0262D02D0272D16D070BD9A6B102A02D0122A08D070BD184AC3F82C
:404D4000DC40C3F8B820C3F8B42070BD154AC3F8E040C3F8BC20C3F8C02070BD9A6B102A02D0122A0ED070BD3CB10F4AC3F8E440C3F8CC20C3F8C82070BDC3F8CC40C3F8B9
:404D8000C84070BD3CB1094AC3F8E840C3F8D020C3F8D42070BDC3F8D040C3F8D44070BD79490000834900008D490000C749000070B50646FFF790FF4FF4FA70B568FEF724
:404DC00017FEA866B0FA80F4A86B2B680730C0105843FEF70DFE002200284FF00101E866B0694FEA541408BF0124FCF7F1FBD5F810310443284698472846D5F8B030984730
:404E0000002CD4BF0020012070BD70B506460D461446FFF761FFB3681D605C6070BD70B506460D461446FFF757FFB3689D60DC6070BD10B50446FFF74FFFA06900220621C0
:404E4000BDE81040FCF7C4BB10B50446FFF744FFA06900220521BDE81040FCF7B9BB38B50C460546FFF738FF2268AB68DA6262681A63A2685A63520707D51A68596883E855
:404E800006009A68D968DA609960A2899A84226912B122EAE2721A6238BD2DE9F041044688461E461746FFF717FFA5686822414605F58A7004F016FE2046B8472046B04706
:404EC00023699B689847A862BDE8F0810B0A80F8713080F87210D0F820310221713018472DE9F04115460446806E0E460021A5B1034636F8022B0131170AFA2903F8027B89
:404F0000427007D1D4F820314FF4FA71A06E9847A36E0021013D1846E9E731B1D4F82031A06E4900BDE8F0411847BDE8F08108B5D0F8B830984708BD89B2FFF7C7BF000028
:404F40002DE9F04F3E4E82468568306885B0007C884610F0010F14469946A3EB01003DD043000393471C0E9B9C4266DCD5F8CCB0EE6EBBF1000F01D1C34607E08DE85000B3
:404F80004B46224641465046D8470DE0CB450ADC5946D5F8F4302246504698470BF1010B26F8020BF2E7EE6E039AB31E1644B34205D0A96A33F8022F4A401A80F7E700946D
:404FC00022464B4641462846D5F8A860B0473A46E96E2846FFF784FF0134C4E70E9FBC1A671C00FB07770E980090D5F8A8402846A0473368AE6EDB6B1C680123C4F307290E
:4050000006EB030AE4B2C7B1B846F92F28BF4FF0F9084FEA48013BB9D5F8203150469847C8EB07070023EEE7334672189342F3D083F8019003F8024FF8E705B0BDE8F08FAA
:405040009486FF1F2DE9F04F8FB00393836805900993199B0691082B08920CD8199A4FF48B73D340DB0706D5984B1B681B7C03F00303022B10D0069B1C9A18989918089A95
:40508000039B0244013A0092099ACB18D2F8A840013B089A0998A047039B1C9A013B0D93069B089F13440493049A0D9B13440C93089B189AFB1A9A4240F35382199B013BC1
:4050C0000F2B00F24882DFE813F01000C10046024801460246024602D80146024602460246024602460246024102059B9C681D9B5B680B93754B1B681B7C03F00303022BE5
:4051000022D0032B76D0012B74D01D9B039E1C9DDDF86CB0B3F80090BDF82CA04FF080089BF8002048FA05F31A4214BF5146494601352046FFF7CAFE082D04BF0BF1010B77
:405140000025013EECD106E21B9B00250A932B46DDF810B0D4F86CA0DDF87080CDF81CB00A9A92F80090802242FA08F219EA02090DD01BB9D4F86CA0DDF81CB0BDF82C309B
:405180000135AAF800300AF1020A012313E0012B10D1079B0097013B3A4659462046D4F8A860B0472A46E16E2046FFF799FE4D464B4600E04B46079A08F101080132B8F131
:4051C000080F079208BF0A9A039904BF01320A92049A08BF4FF000080A4407999142BFD1002D00F0B8810097D4F8A8600C9B3A465946A5E1039B049A1C9DDDF86C8007930C
:4052000003EB020A4FF0800B079B98F80020C3EB0A094BFA05F31A420DD0D4F8F4303A46494605989847A36A3A46434049460598D4F8F860B0470135079B082D04BF08F186
:4052400001080025013B0793DED184E1059B9C681D9B002B00F07F811B9B93F800B01B4B1B681B7C13F003030FD0022B40F07381049B00260A931B9BD4F86CA0DDF8709030
:405280000B93DDF81080324645E01C9D039EDDF86C904FF0C008C5F103035A00C2F1060348FA03F303EA0B03D3401D9A013532F823102046FFF70AFE042D02BF99F801B022
:4052C000002509F10109013EE5D144E19486FF1F1AB9D4F86CA0CDF82880079A1D9B013653F822300AF1020A2AF8023C012209F10109B9F1040F08F1010806D10B9B4FF0E5
:40530000000993F801B001330B93049B03990B44984500F0A680C9F103056D00C5F10603C02141FA03F303EA0B03EB400793CFD1012A10D1009708F1FF333A460A99204622
:40534000D4F8A850A8473246E16E2046FFF7C8FD079E3246CBE7079AC9E7059B9C681D9B002B00F0F8801B9B93F800B07E4B1B681B7C13F003030FD0022B40F0EC80049B5F
:4053800000260A931B9BD4F86CA0DDF870900B93DDF81080324642E01C9D039EDDF86C904FF0F008C5F101039A00C2F1040348FA03F303EA0B03D3401D9A013532F823102A
:4053C0002046FFF783FD022D02BF99F801B0002509F10109013EE5D1BDE01AB9D4F86CA0CDF82880079A1D9B013653F822300AF1020A2AF8023C012209F10109B9F1020F56
:4054000008F1010806D10B9B4FF0000993F801B001330B93039B04990B44984521D0C9F10105AD00C5F10403F02141FA03F303EA0B03EB400793D0D1012A10D1009708F1D6
:40544000FF333A460A992046D4F8A850A8473246E16E2046FFF744FD079E3246CCE7079ACAE7002E77D000973A46D4F8A8500C9B0A992046A847324665E0059B9C681D9B30
:40548000002B68D0384B1B681B7C13F003030FD0022B60D1DDF818A0039A00255244D4F86C80DDF86CB0CDF81CA02B460A9224E01B9D039B1B9A5B1B1344002B4BDD15F84E
:4054C000013B1D9A204632F82310FFF7FFFCF0E71BB9D4F86C80DDF81CA01D9B013553F8293008F1020828F8023C0123079A0132079207990A9A914219D01BF8019BB9F134
:40550000000FE5D1012B10D1079B0097013B3A4651462046D4F8A860B0472A46E16E2046FFF7DEFC4D464B46E0E74B46DEE70D9B069A13447DB13A4651460097D4F8A86057
:405540002046B0472A46E16E204602E0039A1B990998FFF7C5FC1B9B1A9A013713441B93A6E50FB0BDE8F08F9486FF1F10B50446FFF7B2FBA468104B0821C4F8EC300F4B5D
:405580002046C4F8F0300E4BC4F8F4300D4BC4F8F8300D4BC4F8A0300C4BC4F8A430D4F8CC30C4F80431D4F8943098471023A363074B636410BD00BF45500000414F00003E
:4055C000274C00009F4B00002F4F0000394F0000585202002DE9F04104460E461546D0F88C302A219847E16AD4F8903031442046C1F30F219847E16AB7B23944D4F890307C
:405600002046C9B29847E16AD4F8903031442046C1F30F219847E16AD4F8903039442046C9B29847D4F88C3020462B219847216BD4F8903029442046C1F30F219847216BCE
:40564000AEB23144D4F890302046C9B29847216BD4F8903029442046C1F30F219847216BD4F8903031442046C9B29847D4F88C302046BDE8F0412C2118472DE9F04104460D
:4056800088461F461646D0F88C302A21069D9847E16AD4F8903041442046C1F30F219847E16AD4F8903041442046C9B29847E16AD4F8903039442046C1F30F219847E16AA1
:4056C000D4F8903039442046C9B29847D4F88C3020462B219847216BD4F8903031442046C1F30F219847216BD4F8903031442046C9B29847216BD4F8903029442046C1F326
:405700000F219847216BD4F8903029442046C9B29847D4F88C302046BDE8F0412C21184713B504466B460D4A1068516803C3D4F88C302046362198472046636B02AAA18C63
:40574000134413F8083C21F0E0011943D4F8903089B202B0BDE81040184700BFBC4E020013B50446D0F814312E209847216AD4F83031684603319847236A0DEB03021DF839
:4057800003305078DB088008DB0243EA4013907843EAD00002B010BD1FB50446D0F834312E209847216AD4F85031684602319847226A0DEB42035B88C3F3C4005B1103F409
:4057C000FC6303433DF81200000200F47840184304B010BD70B505460C46D0F81431080A9847D5F81431E0B2BDE870401847D0F8343108461847D0F81831C8B21847D0F88F
:405800003831084618470000082902D0102905D07047064BC0F88C30054B03E0054BC0F88C30054BC0F89030704700BFD5570000F7570000EF570000FF570000F0B585B0A0
:405840000A9F8568BC1A581A0097013400FB0444D5F8A87028460B9EB847D5F814312E209847D5F83031296A02A89847D5F83031032102A898479DF80930013C4FEA930203
:405880009DF808304FEAD3034FEAC32343EA42139DF80A2043EAD20326F8023BE6D105B0F0BDF0B587B00C9F8568BC1A581A0097013400FB0444D5F8A87028460D9EB8476E
:4058C000D5F834312E209847D5F85031296A02A89847D5F85031022102A89847BDF80A30013CC3F3C4024FEA631303F4FC6343EA0203BDF808204FEA022222F4FF6243EA28
:40590000020326F8023BE4D107B0F0BD10B50446FFF7E2F9A368114A0021C3F8AC20104AC3F8BC10C3F8A8200E4AC3F8D010C3F8B0200D4AC3F8B8200C4A10685268C3F8F1
:40594000B400C3F8C820DA8C094822F00302DA84084AC3F8CC00C3F8942010BDD55500007B5600002157000061570000A486FF1F3D5800000958000070B5084B1B681A7C95
:4059800082EA0001490705D59C6BD96B25680E6826600D601874104670BD00BF9486FF1F014B1B689B681847AC86FF1F0A46154B30B41B680446B3F90A10914220DCB3F9E6
:4059C0000E108A421CDCB3F90810814218DCB3F90C10884214DC197C587C11F0010F0A4951F8200004D0C368214630BCDB691847C168DB6B8D691B682146AC4630BC6047C9
:405A000030BC70479486FF1F1CDCFF1F114B30B41C680D46B4F90A308B4219DCB4F90E30994215DCB4F90810B4F90C308142B8BF01469342A8BF1346994209DC607C064A4E
:405A400052F82000C26894682A46A44630BC604730BC70479486FF1F1CDCFF1F124B30B41C68B4F9083083421BDCB4F90C30984217DCB4F90A309942B8BF1946B4F90E3019
:405A80009342A8BF134699420BDC084A647C52F82440E268D5680A46AC460146204630BC604730BC704700BF9486FF1F1CDCFF1F73B5134C2468B4F90850B4F90C608542FE
:405AC000B8BF05469642A8BF1646AE4215DBB4F90A208A42B8BF0A46B4F90E108B42A8BF0B469A4209DC607C064951F82000C16800930C6933462946A04702B070BD00BFBC
:405B00009486FF1F1CDCFF1F2DE9F04F8FB0189DDFF8C8E10295199DDEF800E008951B9D079003950C4617460193DDF868A01C9EDDF874B01E9DBEF1000F02D0DEF8004093
:405B400054E0029B089A1343012B54D1614B1868B0F90A20531A002B0ADD0199C3EB010EBEF1000F40F3B280039901FB036602E00A46DDF804E0019B1C44B0F90E30013C07
:405B8000E41A002C05DDC4EB0E0EBEF1000F40F39D80079BB0F90C103B44013B5B1A002BC8BFFF1A079B591BB0F90830994209DA5B1A1D44FF1A23F0070306EBE5061944A4
:405BC00005F00705002F40F38180407C424B039C53F82000C368CDF874B01C951B961A94CDF864A0CDF860E05C683B46A4460FB0BDE8F04F60477546CAF108030B93029BC7
:405C0000DFF8D090013BCDF814E00D93059B019A93425BDA089BE3180993013B0A93D9F800300A99B3F90A208A4248DCB3F90E309C4244DC079B4FF0000806960093CDF811
:405C40001080049BBB423ADAB8F1000F05D1069B4FF008081D78013306930B9BCAEB080845FA03F313F0FF0105FA0AF5EDB204D1D9F80020127C920719D4D9F80020D26BBC
:405C800010680C90BBF1000F02D05BF8213000E0DBB2136000990D9A0A9B0A4400982146FFF706FFD9F800300C9ADB6B1A60049B029A01330493009B13440093C1E7059B58
:405CC000099C01330593039B1E449FE70FB0BDE8F08F00BF9486FF1F1CDCFF1FD8DBFF1F2DE9F04F8FB0189CDFF814E20294199C1D9E0894DEF800E01B9C05460394009155
:405D0000904601931A9F1C9C0496BEF1000F02D0DEF800407AE0029B089A1343012B7AD1754B01991868009BB0F90A20D31A002B07DDC91A002940F3DB80039E06FB03441B
:405D400000E0009A9DE848001E44B0F90E30013EF61A002E03DD891B002940F3C98005EB0803B0F90C60013B9B1BB0F90860002BC8BFC3EB0808B54231DA731B082FC3EBF5
:405D8000080827D00DDC022F14D0042F1AD0012F26D123F0070604EBE304354403F007031EE0182F18D0202F16D0102F18D104EB430413E023F0030604EBA304354403F05D
:405DC00003030DE023F0010604EB6304354403F0010305E01C4401E004EB830435460023B8F1000F40F38480467C444850F82600049ED0F80CE01C93039B18911A93294683
:405E000043461D961B941997DEF80440A4460FB0BDE8F04F6047F346C7F108030B93029BDFF8D4A0013BCDF818E00D93069B019A93425DDA009A089B13440993013B0A930D
:405E4000DAF800300A99B3F90A208A4248DCB3F90E30009A9A4243DC2E464FF000090794CDF81490059B43453ADAB9F1000F06D1079B4FF0080993F800B0013307930B9B0B
:405E80000BFA07F24BFA03F313F0FF015FFA82FBC7EB090904D1DAF80020127C920717D4DAF80020D26B10680C90049810B150F8213000E0DBB213600D9A0A9B32440099BF
:405EC0003046FFF7F5FDDAF800300C9ADB6B1A60059B029A01330593334613441E46C1E7069B01330693039B1C44099B00939DE70FB0BDE8F08F00BF9486FF1F1CDCFF1FE1
:405F0000D8DBFF1F044B1968044B4A7C083153F82200C3681B6B18479486FF1F1CDCFF1F07B5FFF7EFFF00F0B1F8002839D1FEF711FA019038B900F0FFF81B4B1A681B4B85
:405F40009A420CD12AE0C3680C215B6A01A89847034628B3019898470028ECD021E00020FEF7F8F90190C8B1002001F051FB0420FFF716FD43F6FF7300211A460846FFF72E
:405F800097FD0020FFF70CFD019B0E21DB6801A85B6A9847034608B101989847002000E0012003B05DF804FB0CA8FF1F785634FF044B1B685A7C044B53F822301B691B68C3
:405FC000184700BF9486FF1F1CDCFF1F044B1B685A7C044B53F822301B695B68184700BF9486FF1F1CDCFF1F044B1B681A7C52074CBF9B6BDB6B1860704700BF9486FF1FB0
:4060000008B5064B1B68196B814206D01863FFF7CFFFBDE80840FFF7E7BF08BD9486FF1F044B1B681A7C52074CBFDB6B9B6B1860704700BF9486FF1F08B5064B1B68596B5A
:40604000814206D05863FFF7B3FFBDE80840FFF7E7BF08BD9486FF1F014B1B685B681847AC86FF1F014B1B681B681847AC86FF1F10B5044C2068FDF7E1FB034A00232360FC
:40608000136010BD28DCFF1FB4A8FF1F38B50A4D2C6864B9094B18688000FDF7A9FC286038B10748074B40F8043FFEF7BDF8002038BD012038BD00BF28DCFF1FB086FF1F8B
:4060C000B4A8FF1F716000002DE9F843044618B387681FB3144D286820B32268B2F5807F1FDC124B00261B689A42A8BF1A469046464509DA57F82600D5F80090FFF758FF33
:4061000049F826000136F3E7094B1B680BB1204698472868BDE8F883BDE8F8833846BDE8F8830020BDE8F88328DCFF1FB086FF1FB4A8FF1FFFF7C8BF2DE9F74F00F013F99C
:406140001C4E8046B146DFF874A0002444452DDA2046FEF7FFF838B33368204693F811B05C7400F057F8082804DDD9F8003083F811B019E05AF824301A690F4B9A42F4D056
:40618000204600F04AF8034600259D42EDDAEFB238460193FFF71AFF39460246204600F00BF90135019BF0E70134CFE703B0BDE8F08F00BF9486FF1F405202001CDCFF1F44
:4061C000024B1B689B6B1868704700BF9486FF1F024B1B68DB6B1868704700BF9486FF1F10B50C46FEF7B6F828B1C3682146BDE810409B6A184710BD002801DCFFF7F0BF62
:4062000000207047014608B50020FFF7E9FF20EAE07008BD0821FFF7EFBF0921FFF7ECBF024B1B68587CFFF7F8BF00BF9486FF1F034B082153F82000C3689B6A184700BF56
:406240001CDCFF1F10B5FEF785F828B1BDE81040C3680221DB6A184710BD0000024B1B68587CFFF7EFBF00BF9486FF1F024B53F820301B69586870471CDCFF1F024B53F874
:4062800020301B69186870471CDCFF1F0120FFF7B9BF0220FFF7B6BF014B83E803007047C0A8FF1F014B1868704700BFC0A8FF1F014B5868704700BFC0A8FF1F00283BD0A7
:4062C00030F0010329D030F0030328D030F0070327D030F00F0326D030F01F0325D030F0FF0324D020F4FF7323F001030BB320F47F6323F00F03E3B120F4FF4323F07F03D8
:40630000BBB1030C1B04A3B1830C9B049BB110F07F4F0CBF182020207047012070470220704703207047042070470520704708207047102070471220704708B5FFF7BEFFCC
:4063400001280FD0831E062B09D9A0F10903072B07D911380F288CBF0020202008BD082008BD102008BD08B50020FDF7F3FF003018BF012008BD00000D4B10B51C461A682F
:40638000517C0C4A52F8210040B1C36813B11B68042B01D00068F7E7FEF712F823680022DA6503F108025A61BDE81040FFF7AABD9486FF1F1CDCFF1F37B50C461546FDF7D5
:4063C000C9FF019008B901200CE0C36810215B6A01A8984703460028F5D001982A4621469847002003B030BD37B50C461546FDF7B1FF019008B901200CE0C3680B215B6AD0
:4064000001A8984703460028F5D001982A4621469847002003B030BD37B50C461546FDF799FF019008B901200CE0C3680A215B6A01A8984703460028F5D001982A462146C2
:406440009847002003B030BD10B5074C2368186BFFF7AEFDFFF7C8FD2368586BFFF7A8FDBDE81040FFF7DCBD9486FF1F144B70B500241C60134B14481C60144B144D1C60C0
:40648000144B04701C60144B44601C60134B84601C60134B21461C6018222B680C309847104B21461C60104B08221C600F482B6898472B682146BDE8704008220C481847F3
:4064C00058DCFF1F40DCFF1FC8A8FF1F60DCFF1FB886FF1F68DCFF1F30DCFF1F50DCFF1F5CDCFF1F3CDCFF1F34DCFF1F74DCFF1F6CDCFF1FF0B507460C46164685B002ADE4
:40650000002F48D03846FDF7ADF9876A0146BB0701903AD526B13246284600F0DCFE02E003C885E8030029462046FDF7AFFD60B317F0010F019B1CD13EB1B3F90220B6F92A
:4065400002309342B8BF134601E0B3F90230B4F902209342B4F9062005DDBDF90A309A4213DB013B03E0BDF90E309A420DDDE3800BE0DF694FB138462A462146FFF7BAFFFF
:406580003846FDF765F9076AF4E7019B01A81F6AFDF776F9B4E705B0F0BD2DE9FF4106460F469046002502AC002E35D03046FDF759F9866A0146B207019027D5B8F1000FCD
:4065C00004D04246204600F086FE02E003C884E8030021463846FDF759FDB8B1F30705D4BDF80C30012501333B800FE0019BDE6966B1224639463046FFF7CFFF0028304630
:4066000018BF0125FDF724F9066AF1E7019B01A81E6AFDF735F9C7E7284604B0BDE8F081F0B505460E46174685B002AC7DB32846FDF718F9856A0146AA07019021D527B1C2
:406640003A46204600F047FE02E003C884E8030021463046FDF71AFD98B1EB0704D4BDF80830013BB3800CE0019BDD694DB1284622463146FFF7D4FF2846FDF7E9F8056AF8
:40668000F4E7019B01A81D6AFDF7FAF8CEE705B0F0BD000073B506460D462846FDF7E2F8836A014613F00204019004D101A8FDF7E7F8204612E0304600F0F0FD019B01A824
:4066C0009C693CB9FDF7DCF8054B1868431B5842584103E0FDF7D4F82546DEE702B070BD34DCFF1F2DE9FF4106460C4600294CD0FDF7B8F800238461019003622046FDF762
:40670000B1F8C76904AC44F8080D2FB9C66101A8FDF7B6F8204636E0019B38469D6AFDF7A1F80DF1100805F0080548F8040D75B9836A1A070BD5019B01A81F62029BDE61D4
:40674000FDF79EF82046FDF79BF840461BE02046FDF796F84046FDF793F83846FDF778F80390039B1C6A0CB91E620BE02046FDF76FF8002DF4D1836A1B07F1D5039B1E62C5
:40678000019B1C6201A8FDF77BF804B0BDE8F08103460846B3F90220B3F90010FDF758BC114B30B51C6885B0626C0546BAB11068516802AB03C30D4B186800B9A06CFDF709
:4067C00051F804AC02A944F80C0DFFF7E1FF2046FDF756F802A8294600F060FD02A802F0D7F805B030BD00BF9486FF1F30DCFF1F1FB50E4B1B6893F854200AB10C4811E0DF
:40680000986CFDF72FF802AC019003C884E8030001A8FDF735F8074B196811B12046FFF739FF2046FFF7BCFF04B010BD9486FF1FDCA8FF1F30DCFF1F13B5044600B3FDF778
:4068400011F8836A01909B0717D5406A40B10D4B1B689C4204D000F063FF019B00225A62204600F045FC04463CB12046FFF7E4FF2046FCF7EDFF046AF6E701A8FDF700F8DD
:4068800002B010BD64DCFF1FB0F90020B0F904309A4208DCB0F90230B0F906008342CCBF0020012070470020704700007FB50D4604461646FCF7CCFF816A01908B0733D5EB
:4068C0002846FFF7E1FF78B340F601030B40012B2AD02046FCF7C6FF02AC024601902946204600F0F8FC2046FFF7CEFFC8B144F22001019B9A6A03F10805114029B12246F3
:4069000029462846FDF779FB0BE0324394E8030085E803009A62054A138801331380FDF72DFF01A8FCF7ACFF04B070BD44DCFF1F2022FFF7BBBFF0B50F4685B01546064608
:4069400048B3FCF78FFF836A04AC9B07024644F80C0D03D42046FCF793FF1CE0394602A800F0B9FC0028F5D02046FCF789FF2A4602A93046FFF79AFF304600F0B9FB0446E1
:406980004CB120462A4602A9FFF7D5FF2046FCF75FFF046AF4E705B0F0BD2DE9FF41804617461D460C4681B30846FCF75BFF866A0246B307019025D5414602A800F08BFC0B
:4069C00000B340F601033340012B07D101992B460A6A02A88969FFF7E0FF04E02A4602A92046FFF763FF019BDC695CB1BC4209D020462A4602A9FFF79EFF2046FCF728FF2D
:406A0000046AF2E701A8FCF73BFF04B0BDE8F0812023FFF7C2BF1FB504AB43F8101D1946019000F027FB05B05DF804FB00230B8002884B8083889B1A8B804288C3889B1A27
:406A4000CB807047F0B50F4687B00546002833D0FCF708FF866A0190B2072AD503C804ACF30384E8030002D52846FFF7E5FE5FB13868796802AB03C302A90198FFF788FE78
:406A800002A9204600F00AFC29462046FFF702FE78B140F601033340012B06D1019B20461A6A9969FFF7B4FF03E021462846FFF73FFF01A8FCF7E4FE07B0F0BD0021FFF715
:406AC000C1BF00000B4B70B51A680546966C1C4608B9094B1D689564FFF714FA2846FCF7B7FE2368B0F90020DA64B0F9022030461A6570BD9486FF1F48DCFF1F2DE9F74F68
:406B0000DDF830A098464C4B05460E461746D3F80090BAF1000F24D1484B1B8833B3484B1B685A1C012A21D99A465046FCF79AFEB0F90010B0F9022001900D4416441FB9CF
:406B4000B0F904305F1A0137B8F1000F05D1B0F90630C2EB030808F1010801A8FCF790FE04E0BAF1FF3FE0D14FF0000A0F982C30FDF70CF80446002859D0304A0D9B0DF1B9
:406B8000080B49EA0309138801331380FCF76AFE0E9B826A03612B4B4BF8080D09EA0303058046803D4446441343013D013E83628580C6805846FCF763FE234B186848B1D4
:406BC000FCF746FE05462046FCF742FE6B6943616C6100E01C6051462046FFF783FD19F0200F02D02046FFF76DFF19F0010F1FBF164A13680133136019F0400F02D020468B
:406C000000F086FA19F0020F0DD02046FCF72AFE836A009043F0020383625846FCF730FE2046FFF74BFF01212046FFF7F4FE204603B0BDE8F08F00BF50DCFF1F2CDCFF1F91
:406C400034DCFF1F9F3F3F0048DCFF1F68DCFF1F1FB5089C0394079C0294069C019400240094FFF74BFF04B010BD00002DE9FF415D4F3B6893F85400002800F0B1805B4ABB
:406C8000136A1446012B03DD013B13620020A7E0D36902AD013302F1140696E80300D36185E8030023B99389ADF80830D38910E0138BD28A0133ADF80A20B4F910201BB280
:406CC0009A42ADF8083006DAA389ADF80830638B0133ADF80A30BDF90A20B4F91230DFF80C819A4204DD236A0020013B236277E03B68986CFCF7B6FDBDF90820B8F90C3024
:406D000001909A421CD1B8F81230ADF80E30B8F81030ADF80C30344B1B689A6C5AB11046FCF796FD804600222946006AFFF7E2FBD8F81820F2E7019B2946D869FFF7DAFBD8
:406D4000BDF80830ADF80C303B689A6C6AB11046FCF77EFD002280462946006AFFF71DFC0028EDD1D8F81820F0E7019B2946D869FFF713FC0028E3D1B4F91030BDF9082030
:406D8000ADF80C309A4207DD95E8030086E8030001A8FCF775FD97E73B689A6C52B11046FCF756FD074600222946006AFFF738FCBA69F3E704AF57F80C3D2946D869FFF70D
:406DC0002FFC3846FCF75CFD44F62063E2699A4289DC95E8030086E80300FFF709FD012004B0BDE8F08100BF9486FF1FC8A8FF1F2DE9F041394E86B03268804692F8543086
:406E000013B9FFF7F5FC64E0354F3B6A3D460133012B3B625DDC906CFCF724FD4FF0FF33FB61304B00901B7813B102AB083004E0836A13F002040CD002AB03C802AC83E80E
:406E40000300B8F1000F0CD04146204600F026FA07E03B6A6846013B3B62FCF711FD204638E03368204F5A6CC2B1009B10685168019304AB03C33B6833B101A8FCF700FDB4
:406E80003868FCF7EFFC019004A90198FFF780FC204604A900F002FA01A800E06846FCF7EFFC396819B12046FFF7F4FB28B133682046996CFFF7EEFB18B92B6A013B2B6254
:406EC00008E00A4B94E8030083E80300FFF7CEFE00E0012006B0BDE8F08100BF9486FF1FC8A8FF1F4DDCFF1F30DCFF1FD4A8FF1F024B01221B6883F8542070479486FF1F78
:406F000010B5044623684068172B10D007DC0E2B0FD0142B14D1E16800F0D2F810E0222B0CD0282B0CD1BDE81040FFF7C7BDE06010BD2146BDE8104000F02DB9024B00E0A7
:406F40000023E36010BD00BF785634FF036810B50E2B044602D00F2B09D011E0C3685A68012A12D1BDE810401868FDF7CFBB074B1868074B984203D0FDF7AEF8FDF744F90B
:406F80002046BDE81040FFF7BBBF10BD54DCFF1F785634FF30B51D4C85B02178002932D11B4B084619601B4BA1601B681A4D59641A4B19801A4B198004230293194B0193B7
:406FC0000223009343F6FF731A46FFF741FE164A164B28601A60FFF771FD154800F068F8144800F065F82868FFF76CFDFFF780FF204601232370104B40F8243F05B0BDE84B
:407000003040FDF711B905B030BD00BFC8A8FF1F48DCFF1F9486FF1F34DCFF1F44DCFF1F2CDCFF1F4D6F0000785634FF54DCFF1F74DCFF1F6CDCFF1F6D64000008B500F0CA
:407040005FF818B1FCF704FCC06908BD08BD38B50546FFF7F3FF044654B1AC4207D02046FCF7F6FB036A9D4202D01C46F4E70024204638BD70B50D4C064623680D46132B0C
:4070800012DCFCF7E5FB02696E6042B1236828460133236090472368013B236070BD2846BDE87040FFF72CBF70BD00BFF8A8FF1F024B1A6802601860704700BF58DCFF1F26
:4070C00037B50D4658B151B1FCF7CCFB02AC44F8040D2946FFF7AAFC2046FCF7D1FB03B030BD0000014B1868704700BF34DCFF1F08B5034610B1FCF7ABFBC369184608BDA2
:4071000008B5034610B1FCF7A3FB8369184608BD2DE9F043044687B0002839D0FCF7A2FB034604AD019003C885E8030001A81E6AD3F82890FCF7A4FB2046FFF788FF074621
:4071400030B32046FFF7DCFF19F0020F804604D0014632462846FFF75BFC2046FCF782FB01904046FCF77EFB03903846FCF77AFB039B019AD96906620290116201A8DC6127
:40718000FCF77EFB03A8FCF77BFB02A8FCF778FB07B0BDE8F08338B505460C4641B1FFF7AFFF28B1A5602146BDE83840FFF762BF38BD0000F7B5061E0C4662DC324D6B6830
:4071C00003B19847012C04D0022C20D0002C58D133E005EB8605AF68AFB93046FDF7BAF8019000284DD0C3680D215B6A01A898470346002845D0214601989847AB683846ED
:407200000133AB603EE0781CA86020463AE03046FDF7A0F80190002833D0C3680D215B6A01A89847044600282BD02B6803B1984702210198A047002024E0B4002B199B681C
