:400000000080002011000000C1240000C124000008B5044B1A6803F53F5302331A6002F069FA00BFFA46004010B5054C237833B9044B13B10448AFF300800123237010BD48
:40004000E085FF1F0000000004A80000084B10B51BB108480849AFF300800848036803B910BD074B002BFBD0BDE81040184700BF0000000004A80000E485FF1F0881FF1F31
:4000800000000000F0B4002519E032F81540A4086B1C32F813309B0850F8246050F8237040F8247040F82360013450F82460013350F8237040F8247040F823600235A942D5
:4000C000E3D8F0BC704700BF2DE9F04F95B0054612900C461391038801EB8302104610926F685A08119292008D1800EB020BDE088246B84637461BE1D4F8009063680193C7
:40010000A2680292E1680391DAF800008646DAF80460DAF808000490DAF80CC0CDF814C02B680E936A680692A9680791E8680890DBF800C0CDF824C0DBF804300A93DBF8E9
:4001400008200B92DBF80C100C914846CDF834E0714609F02FFC20600198314609F02AFC60600298049909F025FCA06004F1100ECDF83CE00398059909F01CFCE060484620
:400180000D9909F015FC0D900198314609F010FC06460298049909F00BFC01900398059909F006FC05900E9C2046099909F002FC286006980A9909F0FDFB686007980B9992
:4001C00009F0F8FBA86005F1100908980C9909F0F1FBE8600998214609F0EAFB02900A98069909F0E5FB03900B98079909F0E0FB04900C98089909F0DBFB0690D8F8004000
:40020000D8F804500D98214609F0DCFC07903046294609F0D7FC08903046214609F0D2FC09900D98294609F0CDFC06460798089909F0C0FBCAF800000998314609F0B8FB04
:40024000CAF804000298294609F0BCFC07900398214609F0B7FC06460398294609F0B2FC05460298214609F0ADFC04460798314609F09EFBCBF800002846214609F09AFBB6
:40028000CBF80400D8F8084008F110020292D8F80C500198214609F095FC0390DDF814804046294609F08EFC06464046214609F089FC80460198294609F084FC019003986C
:4002C000314609F077FBCAF808000AF110064046019909F06DFBCAF80C000498294609F071FC8046DDF818A05046214609F06AFC01905046294609F065FC05460498214694
:4003000009F060FC82464046019909F051FBCBF808000BF110042846514609F04BFBCBF80C00013FDDF80880B246A3464D460F9C002F7FF4E1AEBDF8444013982146129D66
:400340006A68022300F0E4FC109821466A68022300F0DEFC15B0BDE8F08F00BF2DE9F04F9FB01C900E46189104886408A3000A461A441992D11808461A9119440D461B91BF
:40038000A2F10408071FA5F1040E7146CDF80CE0194401911C9BD3F804B063081D93366852F824503046294609F004FB81463046294609F0FDFA8246189E76681A9D6D686B
:4003C0003046294609F0F6FA05903046294609F0EFFA0690199AD2F804E0CDF810E07046CDF81CA0514609F0E5FA1B9E7568294609F0DEFA8246189951F824600698314650
:4004000009F0D6FA1A9951F824E0CDF808E0714609F0D0FA08904846314609F0C9FA029909F0C6FA09900598049909F0C1FA294609F0BEFA0A900798049909F0B9FA0146AF
:40044000284609F0B7FA04900698314609F0B2FA029909F0ADFA05464846314609F0AAFA0146029809F0A6FADDF8609049F8080B199E7068059909F09DFA1B9B596809F02E
:4004800099FA1899486041F824A0199E06F1080ADDF820E0C6F804E0DDF824E046F824E01A990B4601F1080202920A995960049943F824101B9B03F108065D600BF108028A
:4004C00009920BF110020A920BF1180B1D9B023B5B080493CDF82CB0C346B8463746DFE1D9F80050029E34682846214609F062FA06902846214609F05BFA0790D9F80450C8
:40050000029674682846214609F054FA08902846214609F04DFA0446DAF8043005931846079909F047FA7E68314609F041FA0D90DAF800500C942046294609F039FA3C68C9
:40054000214609F037FA0E900698294609F030FA214609F02DFA0F900898059909F028FA314609F025FA10900798059909F020FA0146304609F01EFA05900C98294609F0AF
:4005800019FA214609F014FA11900698294609F011FA0146204609F00DFA4B4643F8080B0C93DAF80400089909F004FA796809F001FAC9F804005BF8045C039E56F8044CE3
:4005C0002846214609F0F6F906902846214609F0EFF90790DBF80050039634682846214609F0E8F908902846214609F0E1F98146D8F80050019B1C682846214609F0D8F96E
:400600001390079909F0D6F9149058F8046CCDF848904846314609F0CBF9019A52F8049C494609F0C7F915900698314609F0C0F9494609F0BDF916900898294609F0B8F916
:40064000214609F0B5F917901398079909F0B0F913904846314609F0ABF9129909F0A8F907900898294609F0A5F90146204609F0A1F95C4644F80809089458F8040C069947
:4006800009F098F9019951F8041C09F093F94BF8040C099B1D4655F8084B06955D680D9E3046214609F08EFA0990DDF838B05846294609F087FA81465846214609F082FAA7
:4006C00083463046294609F07DFA06460998494609F070F9534643F8080B09935846314609F066F9CAF80400DDF854A05046294609F068FA8146DDF850B05846214609F085
:4007000061FA06465846294609F05CFA05465046214609F057FA04464846314609F048F9424642F808090D922846214609F042F948F8040C0A9C23462568646803F1100E56
:40074000CDF828E00F9E3046294609F03BFA8246DDF840B05846214609F034FA80465846294609F02FFA81463046214609F02AFA06465046414609F01DF9DDF80880C3469F
:400780004BF8080B4846314609F012F9C8F80400DDF85CA00AF10040294609F013FA8046DDF858904846214609F00CFA06464846294609F007FA05465046214609F002FA9E
:4007C00004464046314609F0F3F8DDF80C904E4646F808092046294609F0EAF849F8040C0B9D2B462C686D6803F1180ECDF82CE00598214609F0E6F98246DDF84480404649
:40080000294609F0DFF981464046214609F0DAF980460598294609F0D5F902905046494609F0C8F8B94649F8080B4046029909F0BFF878600798294609F0C4F98046DDF894
:400840004CA05046214609F0BDF907465046294609F0B8F905460798214609F0B3F982464046394609F0A4F8019F3C4644F808092846514609F09EF847F8040C0499013963
:4008800004914F46CDF808B0DDF824A0069D099501940396DDF83480DDF820B0DDF83090049B002B7FF41CAEDDF82CB03E46D9F80050029F3C682846214609F07BF8019052
:4008C0002846214609F074F88046D9F8045002977C682846214609F06DF803902846214609F066F80746DAF804502846CDF81C80414609F05FF8D6F80480414609F058F829
:400900000490DAF8004008973846214609F050F83768394609F04EF805900198214609F047F8394609F044F806900398294609F03FF8414609F03CF80B900798294609F048
:4009400037F80146404609F035F807900898214609F030F8394609F02BF880460198214609F028F80146384609F024F8C9F80000DAF80400039909F01DF8716809F01AF81D
:40098000C9F8040009990D684C680498294609F019F981460598214609F014F907460598294609F00FF905460498214609F00AF904464846394608F0FDFFCAF800002846A1
:4009C000214608F0F5FFCAF804000A990D684C680698294609F0F6F80746DDF82CA05046214609F0EFF881465046294609F0EAF805460698214609F0E5F80446384649462F
:400A000008F0D8FF029F38602846214608F0D0FF7860DBF80050DBF80440DDF81CA05046294609F0CFF807464046214609F0CAF881464046294609F0C5F8054650462146FB
:400A400009F0C0F804463846494608F0B3FF30602846214608F0ACFF7060BDF87440189821461C9E7268042300F052F9199821467268042300F04CF91A982146726804230E
:400A800000F046F91B9821467268042300F040F91FB0BDE8F08F00BF2DE9F84307460C469046994605882E46012A0AD10431002205E00B6803F1004341F8083B0132B242DC
:400AC000F7D3B5F5807F1FD00AD8202D1CD002D8102D14D023E0402D1BD0802D0FD01EE0B5F5806F0BD003D8B5F5007F11D016E0B5F5006F08D0B5F5805F0AD00FE0384689
:400B00002146FFF7E1FA0AE038462146FFF726FC05E0204629467A68012300F0F9F8B9F1000F04D02046B989BA68FFF7ABFAB8F1010F1AD1284608F0EDFF01464FF07E50B9
:400B400009F0F4F8074600250DE02068394609F039F82060606800F10040394609F032F8606008340135B542EFD3BDE8F88300BF2DE9F0410E4615461FE0044654F8081B6D
:400B80004768084609F01EF880463846394609F019F80146404608F00DFF8046371D002109F0C2F920B1404602F0E2FE306001E000233360013D3E462046002DDDD1BDE8A4
:400BC000F08100BF2DE9F84F884692469946031D06684C1E00270CE01D1DD3F800B03046594609F08DF910B1C4EB08075E46013C2B46002CF0D1CAF80060C9F80070BDE8D9
:400C0000F88F00BF018000234360B1F5807F3DD00AD8202955D002D810295BD063E0402946D080293BD05EE0B1F5806F1CD003D8B1F5007F21D056E0B1F5006F0BD0B1F5F5
:400C4000805F50D1294B9A8982819A6882605B684360002048E0264B9A8982819A6882605B68436000203FE0224B9A8982819A6882605B684360002036E01F4B9A89828185
:400C80009A6882605B68436000202DE01B4B9A8982819A6882605B684360002024E0184B9A8982819A6882605B68436000201BE0144B9A8982819A6882605B6843600020E6
:400CC00012E0114B9A8982819A6882605B684360002009E00D4B9A8982819A6882605B684360002000E0FF2040B2704730A8000040A8000050A8000060A8000070A80000C5
:400D000080A8000090A80000A0A80000B0A800002DE9F04FAFB02A922D93269125918346259BDE080024A146B04609EB08031F464344009303EB080A0AEB080404EB08012F
:400D4000019141440291414403914FEAC90008905BF83960E50009955BF834503046294608F028FE07903046294608F021FE04903A46FF000A970F925BF83260019DEF0073
:400D80000B975BF835503046294608F013FE05903046294608F00CFE1190009BDD000C955BF83370029EF3000D935BF836503846294608F0FFFD10903846294608F0F8FD38
:400DC00006904FEACA065BF83A50039AD1000E915BF832702846394608F0ECFD12902846394608F0E5FD1390079D2846109F394608F0DEFD07902846394608F0DBFD0746E7
:400E00000598129D294608F0D3FD12900598294608F0D0FD05463846294608F0CBFD4BF839003846294608F0C3FD4BF83400089C043414945BF80450099F04375BF8074084
:400E40002846214608F0B6FD05902846214608F0AFFD08900A9C043415945BF804500B9C043416945BF804402846214608F0A2FD09902846214608F09BFD0A900C9D043518
:400E80005BF805E00D990C1D5BF804C0CDF830E07046CDF834C0614608F08CFD0B900C980D9908F085FD0C9004365BF806E00E99043117915BF801C0CDF838E07046CDF84A
:400EC00040C0614608F076FD0D900E98109908F06FFD109005980B9908F06AFD0E9005980B9908F067FD059009980D9908F060FD0B9009980D9908F05DFD86460598CDF882
:400F000024E0714608F056FD14994BF801000598099908F04DFD4BF8070007980B9F394608F048FD009B4BF833000798394608F03FFD029B4BF833000E98129F394608F0A6
:400F400037FD4BF805000E98394608F033FD4BF80400119D2846139C214608F029FD6E4908F030FE00902846214608F023FD6A4908F028FE04460A98109F394608F018FDBF
:400F8000654908F01FFE05460A98394608F012FD614908F017FE07460498009908F008FD02900498009908F005FD00900698214608F0FEFC05900698214608F0FBFC06905E
:400FC0000898294608F0F4FC04460898294608F0F1FC05460C98394608F0EAFC04900C98394608F0E7FC07460098394608F0E2FC0F994BF831000098394608F0D9FC039A07
:401000004BF832000298049908F0D4FC019F4BF837000298049908F0CBFC4BF83A002846069F394608F0C4FC159B4BF803002846394608F0BFFC17994BF801002046059DD3
:40104000294608F0B5FC169B4BF803002046294608F0B0FC4BF80600259B9944269B4B453FF663AE4646072E40F2D48201232C9300232B935C46C3462B9B2D9A13441D466C
:401080002B9303EB4300C118CA18D3185F192A9E2B9D56F835E0CDF848E02D0156F805E0CDF84CE056F830E0CDF89CE056F831E0CDF850E056F832E0CDF854E056F833E044
:4010C000CDF858E056F837E0CDF85CE0B6462B9E0EEBC606D6F804E0CDF860E004352A9E56F805E0CDF864E006EBC00040681A9006EBC10149681B9106EBC20252682892D3
:4011000006EBC3035B68299306EBC7035B681C932C9DD946AB4601E0F304353F0BEB0903009303EB090101914944029101EB090637464F44039707EB090004904844059093
:401140004FEACB0554F83B704FEAC6081D9654F836603846314608F02DFC09903846314608F026FC0690009AD3000D9354F83270039EF3000E9354F836603846314608F080
:4011800019FC07903846314608F012FC1F90019BDF000F9754F833A0049FF900109154F837605046314608F005FC0A905046314608F0FEFB08900299CF0054F83160059A5D
:4011C000D100119154F832A03046514608F0F2FB0B903046514608F0EBFB2090099E3046DDF828A0514608F0E3FB09903046514608F0E0FB824607980B9E314608F0D8FB44
:401200000A900798314608F0D5FB06465046314608F0D0FB44F83B005046314608F0C8FB07900435665908F1040ECDF884E054F80E803046414608F0BDFB0B9030464146F9
:4012400008F0B6FB0C900D9B1E1D229654F806800E9B1E1D54F806A04046514608F0AAFB0D904046514608F0A3FB0E900F9B0433239354F8038010990A1D249254F802A064
:401280004046514608F096FB0F904046514608F08FFB1090043754F807A0119901F1040854F808E05046CDF878E0714608F082FB119050461E9908F07BFB1E900B980F996C
:4012C00008F076FB82460B980F9908F073FB0B900D98119908F06CFB0F900D98119908F069FB0D9009980F9908F064FB119009980F9908F05DFB09900B980D9908F05AFBD3
:4013000060510B980D9908F053FB054650460A9908F04EFB0B9050460A9908F04BFB82461498079908F04EFC0A901B98294608F049FC0D901498294608F044FC0F901B9805
:40134000079908F03FFC05460A980D9908F032FB1D9B44F833000F98294608F029FB219D60511398119908F02DFC079019980B9D294608F027FC0A901398294608F022FC60
:401380000B901998119908F01DFC054607980A9908F010FB019B44F833000B98294608F007FB239D60511698099908F00BFC0190299D2846514608F005FC0790169851468E
:4013C00008F000FC82462846099908F0FBFB05460198079908F0EEFA049B44F833005046294608F0E5FA249BE050DDF87CA05046209D294608F0DCFA884908F0E3FB01903D
:401400005046294608F0D6FA844908F0DBFB05460E98DDF878A0514608F0CAFA7F4908F0D1FB04900E98514608F0C4FA7B4908F0C9FB82460698019908F0BAFA079006989F
:40144000019908F0B7FA01900898294608F0B0FA06900898294608F0ADFA08900C98049908F0A6FA05460C98049908F0A3FA04901098514608F09CFA09901098514608F0E0
:4014800099FA82460198514608F094FA0A900198514608F08DFA82460798099908F08AFA01900798099908F083FA07900498089908F07EFA09900498089908F07BFA0490EB
:4014C0002846069908F074FA08902846069908F071FA069012980A9908F074FB0B901898099908F06FFB05461298099908F06AFB099018980A9908F065FB0A900B982946F4
:4015000008F058FA009A44F8320009980A9908F04FFA229D60511798514608F053FB00901C98049908F04EFB05461798049908F049FB04901C98514608F044FB824600986D
:40154000294608F037FA059A44F832000498514608F02EFA44F808001598019908F032FB0090289D2846DDF82080414608F02AFB82461598414608F025FB80462846019905
:4015800008F020FB05460098514608F013FA039B44F833004046294608F00AFAA051DDF89C804046079908F00DFB82461A98069D294608F007FB06464046294608F002FBD7
:4015C00080461A98079908F0FDFA05465046314608F0F0F9029944F831004046294608F0E7F9E051259B9B44269B5B453FF696ADCB462C9B01332C934B45FFF43DAD4E4661
:40160000A3462D9BDB009BB22D93CDF89490072E3FF686AB2FB0BDE8F08F00BFF304353F024A136801331360704700BFD8A7FF1F10B501F08FFF002409E0204601F0A0FF98
:4016400020B92046064901F093FF02E00134042CF3D9042C02D9002001F0A0FE10BD00BF2116000008B5FFF7E3FF08BD08B500F097F808BD30B5A1B000241B941C941D9404
:401680001E941F9401A82146682208F0BBFC154815492246234603F057F905462046F0214FF4A07205F00AF92046F0214FF4A07205F01CF902231D9328461BA903F039FE97
:4016C0000A4B01930A4B02930A4B04930A4B06930A4B0893284601A9094A0A4B03F047FE21B030BD745302001C530200391700005517000071170000991700009D170000B5
:40170000E15D0000415A0000012904D108B5FFF7ADFF002008BD4FF0FF30704708B504484FF4005102F02EFB024802F0A1FF08BDFC85FF1FD84B020010B50446002001F02B
:4017400099FF204601F04AFF01F03CFF10F0010FFAD010BD10B50446012001F08BFF204601F03CFF01F02EFF10F0010FFAD010BD70B506460D46012001F07CFF002408E0FF
:40178000305D01F02BFF01F01DFF10F0010FFAD00134AC42F4DB70BDFEE700BFFEE700BF08B50120FFF7C8FF0A2001F0F9FD3620FFF7C2FF8820FFF7CDFF3A20FFF7BCFF05
:4017C0005520FFF7C7FF1120FFF7B6FF2920FFF7B3FFFA2001F0E4FD08BD00BF10B400EB4000044C2254421CA154023023545DF8044B7047FCA7FF1FF0B583B00024254647
:40180000002001F071FB0028FAD001F085FB214B1860A0F5EA40303841F27073984203D9012001F033FF0125002DE9D0194B186808F070F9184B43F824000134A4B2B4F566
:40184000006FDDD3154E164C30462188FFF7DAF9114F104D304639462A792379FFF71CF9104E384631462268FFF782F9002333603046216801AA05F10803FFF7A3F900203F
:4018800001F004FF4FF4C87001F08AFDA86803B0F0BD00BFFCA5FF1FBCA9FF1FACA9FF1F0C81FF1FBCC9FF1F054B03E05968814204D00C331A68002AF8D1024A1046704777
:4018C0001481FF1F18FD010038B54FF0FF3002F06DFE4FF07F4002F06BFE354D284602F069FE022002F096FE0C2002F089FE02F0F5FE304C204602F05DFE2F48782114221E
:4019000003F0CAF8284602F055FE2C4878213C2203F0C2F82A487821502203F0BDF8204602F048FE274BD3F8F8017821A02203F0B3F8002523E001F0C3FE00BB6C1C224BAB
:401940001C4003D5013C64F001040134254602F0B0FD02F02DFE00206421F0224FF4967303F0B4F84FF07F4002F022FE154B03EB0414D4F8F8017821A02203F08DF801F0A0
:40198000A7FE0028D7D101E002F0A8FE01F0A0FE0028F9D0074802F00DFE0C487821A02203F07AF84FF4FA7001F0FAFC284638BD3CFF01000C2D02002CFD01003CFD010087
:4019C00058FD01000C81FF1F0100008078FD010008B54FF0FF3002F0E9FD4FF07F4002F0E7FD084802F0E6FD022002F013FE0C2002F006FE02F072FE034878210A4603F023
:401A00004BF808BDC409020088FD010010B582B04FF0FF3002F0CAFD4FF07F4002F0C8FD1D4802F0C7FD022002F0F4FD0C2002F0E7FD02F053FE19487821282203F02CF8B6
:401A40004FF0FF2002F0B4FD0A24009428207821C822134603F05CF84FF0FF3002F0A8FD0F487821A02203F017F80E4802F0A0FD00942820DC21C8224FF4967303F048F858
:401A80004FF0FF3002F094FD074878214FF4827203F002F802B010BD0C2D0200C8FD0100E0FD0100FF0000FFE8FD010010B50446B94802F07FFD022002F0ACFD0E2002F08C
:401AC0009FFD2046B54908F073FB58B978200D210C22082302F094FCB0487821F02202F0D3FF10BD2046AE4908F062FB98B9782014210C22082302F083FCA9487821F02264
:401B000002F0C2FFA74802F055FDA7489021142202F0BAFF10BD2046A44908F049FB58B9782014210C22082302F06AFC9F487821F02202F0A9FF10BD20469D4908F038FBE3
:401B400058B978201B210C22082302F059FC98487821F02202F098FF10BD2046954908F027FB98B9782023210C22082302F048FC90487821F02202F087FF8A4802F01AFD0F
:401B800089489021232202F07FFF10BD20468A4908F00EFB58B9782023210C22082302F02FFC85487821F02202F06EFF10BD2046824908F0FDFA98B978202A210C22082333
:401BC00002F01EFC7D487821F02202F05DFF754802F0F0FC744890212A2202F055FF10BD2046774908F0E4FA58B978202A210C22082302F005FC72487821F02202F044FFDE
:401C000010BD20466F4908F0D3FA58B9782032210C22082302F0F4FB6A487821F02202F033FF10BD2046684908F0C2FA98B9782039210C22082302F0E3FB63487821F022E3
:401C400002F022FF574802F0B5FC57489021392202F01AFF10BD20465C4908F0A9FA58B9782039210C22082302F0CAFB57487821F02202F009FF10BD2046554908F098FA34
:401C800098B9782041210C22082302F0B9FB50487821F02202F0F8FE424802F08BFC42489021412202F0F0FE10BD2046494908F07FFA58B9782041210C22082302F0A0FB07
:401CC00044487821F02202F0DFFE10BD2046424908F06EFA98B9782048210C22082302F08FFB3D487821F02202F0CEFE2D4802F061FC2D489021482202F0C6FE10BD20466E
:401D0000364908F055FA58B9782048210C22082302F076FB31487821F02202F0B5FE10BD20462F4908F044FA58B9782050210C22082302F065FB2A487821F02202F0A4FEEF
:401D400010BD2046274908F033FA98B9782057210C22082302F054FB22487821F02202F093FE104802F026FC0F489021572202F08BFE10BD20461C4908F01AFAB0BB7820F9
:401D800057210C22082302F03BFB17487821F02202F07AFE10BD00BF0C2D0200F4FD0100F8FD01000C1A0200FCFD010000FE010004FE010008FE01000CFE010010FE0100C2
:401DC00014FE010018FE01001CFE010020FE010024FE010028FE01002CFE010030FE010034FE010038FE01003CFE01002046BD4908F0DEF998B978205F210C22082302F047
:401E0000FFFAB8487821F02202F03EFEB64802F0D1FBB64890215F2202F036FE10BD2046B34908F0C5F958B9782064210C22082302F0E6FAAE487821F02202F025FE10BDFD
:401E40002046AC4908F0B4F958B9782071210C22082302F0D5FAA7487821F02202F014FE10BD2046A44908F0A3F998B9782001460C22082302F0C4FA9F487821F02202F0FE
:401E800003FE994802F096FB98489021782202F0FBFD10BD2046994908F08AF958B9782001460C22082302F0ABFA94487821F02202F0EAFD10BD2046914908F079F998B910
:401EC00078207F210C22082302F09AFA8C487821F02202F0D9FD844802F06CFB834890217F2202F0D1FD10BD2046864908F060F958B978207F210C22082302F081FA814857
:401F00007821F02202F0C0FD10BD20467E4908F04FF998B9782087210C22082302F070FA79487821F02202F0AFFD6F4802F042FB6E489021872202F0A7FD10BD2046734942
:401F400008F036F958B9782087210C22082302F057FA6E487821F02202F096FD10BD20466B4908F025F958B978208E210C22082302F046FA66487821F02202F085FD10BDED
:401F80002046644908F014F998B9782096210C22082302F035FA5F487821F02202F074FD514802F007FB51489021962202F06CFD10BD2046584908F0FBF858B97820962131
:401FC0000C22082302F01CFA53487821F02202F05BFD10BD2046514908F0EAF898B978209D210C22082302F00BFA4C487821F02202F04AFD3C4802F0DDFA3C4890219D2299
:4020000002F042FD10BD2046454908F0D1F858B978209D210C22082302F0F2F940487821F02202F031FD10BD20463E4908F0C0F858B97820A5210C22082302F0E1F939487E
:402040007821F02202F020FD10BD2046364908F0AFF898B97820AC210C22082302F0D0F931487821F02202F00FFD1F4802F0A2FA1E489021AC2202F007FD10BD20462B49F2
:4020800008F096F858B97820AC210C22082302F0B7F926487821F02202F0F6FC10BD2046234908F085F858B97820B4210C22082302F0A6F91E487821F02202F0E5FC10BDFF
:4020C00020461C4908F074F8B0BB7820B4210C22082302F095F917487821F02202F0D4FC10BD00BF40FE01000C1A0200FCFD010044FE010048FE01004CFE010050FE010023
:4021000054FE010058FE01005CFE010060FE010064FE010068FE01006CFE010070FE010074FE010078FE01007CFE010080FE010084FE010088FE01002046204908F038F8B2
:4021400098B97820BB210C22082302F059F91B487821F02202F098FC194802F02BFA19489021BB2202F090FC10BD2046164908F01FF858B97820BB210C22082302F040F9DA
:4021800011487821F02202F07FFC10BD20460F4908F00EF858B97820C3210C22082302F02FF90A487821F02202F06EFC10BD08487821F02202F068FC10BD00BF8CFE010097
:4021C0000C1A0200FCFD010090FE010094FE010098FE010038B5002411E0C4EB041514202918DC2205F1150301F080FC142005F17801DC2205F1790301F078FC0134042C6F
:40220000EBDD38BD70B586B004464FF0FF3002F0CDF94FF07F4002F0CBF9022002F0FAF90C2002F0EDF902F059FAFFF7D3FF424B03EB041303F5FA7301AC0FCB84E80F0051
:40224000039D2868FFF732FC3C4802F0B3F905A83B49002207F088FF3A4864214FF48C7202F01AFC05A8A0214FF48C7202F014FC00245AE0FFF7C0FA2F4BD3F81432C01AA3
:40228000FFF712FB05EB840655F8241007F090FF00284AD101F014FA0028FBD04FF0FF3002F086F93068FFF701FC244802F082F9244864214FF48C7202F0EEFB05A8A021A7
:4022C0004FF48C7202F0E8FB4FF07F4002F070F9FFF780FF013405A81949224607F044FF049BA34211DC18487821F02202F0D4FB144864214FF48C7202F0CEFB05A8A0218C
:402300004FF48C7202F0C8FB13E00E4864214FF48C7202F0C1FB05A8A0214FF48C7202F0BBFB55F82400FFF7C1FB01F0D1F90028A0D106B070BD00BF0C81FF1F0C1A0200A7
:40234000A4FE0100A8FE0100B0FE01000000000038B562B601F080F902F0F0F900F0A8FD00F0BAFD902050494DA3D3E9002301F0B7F9002400E00024072CFCD801A353F807
:4023800024F000BFA5230000AD230000D3230000DF230000F3230000172400007723000073240000FFF732FB0124E5E701F088F928B901F085F90028FBD00224DCE701F095
:4023C00087F90028D8D101F083F90028FBD00424D2E7FFF779FAFFF715FF0324CCE701F077F90028C8D101F073F90028FBD00024C2E7FFF7EDFA5020002164221346FFF77C
:40240000EDF95120002164221346FFF7E7F901F0F7F90524B0E7FFF7EFF9244DC5F814024FF0FF3002F0C2F84FF07F4002F0C0F81F4802F0BFF802F051F91E4C20461E4967
:40244000D5F8142207F090FE20467821A02202F023FB502000210A460B46FFF7BFF9512000210A460B46FFF7B9F901F0C9F9002482E74FF0FF3002F099F84FF07F4002F027
:4024800097F802F02BF9FFF7A5FEFFF7B5F9074BD3F81432C01AFFF707FAFFF707FB6BE79A99999999992940FCA7FF1F0C81FF1F0C1A0200ECA7FF1FBCFE0100AFF300809A
:4024C000FEE700BF08B5094B1A681044084BC31A802B02DC054B186005E007F039FD0C2303604FF0FF32104608BD00BF2885FF1F38DBFF1F08B5104E104D16E029686B6814
:40250000AC68002204E051F8040B43F8040B0432A242F8D1E868002203E0002143F8041B04328242F9D11035013E002EE6D107F015FDFFF70DFFFEE701000000145902009F
:4025400008B5134A134B1A60134A136843F40073136000230AE0032B03D8104A52F8231000E00F490F4A42F8231001332F2BF2D90D4B1A780D4B1A700A4A0D4B1A6000F04E
:40258000F5F800F03DFE00220A4B1A6008BD00BF0004FA050CED00E014ED00E000000000C12400000080FF1FBC7600400481FF1F08ED00E00081FF1FFEE700BFF0B400225B
:4025C000174611E050F82760F3B226F0FF0608E001EB420511F812406D78A5550132013BDBB2002BF4D10137182FEBD9F0BC70470A4B1B78DBB203F00701094A11701B09AF
:40260000013213704022074B1A70042203F693131A704422A3F28A231A707047CF0100496E5800406D51004008B50A46002107F0E9FC08BD08B507F0BFFC08BD38B500243D
:40264000314B1C80502202331A70012202331A801C2202331A70032502331D80182202331A702A482A490422FFF7E4FF0222294B1A7008224FF040231A7003F500731D70DB
:40268000254B1B78DBB225490B70254B1A8041F25122023B1A8019250CE0224B1B7803F0010343EA440404F003044FF4F07000F097FD013D0DB1032CEFD115B90320FFF790
:4026C0007BFF194B4FF480721A8007221A70002216490A704820023108701A700222033B1A7004220A331A70114A137843F007031370013A137843F001031370013A13781D
:4027000043F08003137038BD8040004000410040280500480043004008010049A146004022420040254200400440004006400040A2430040012807D8044B53F820201844C1
:40274000017A13780B431370704700BFF8FE0100012808D8044B53F820201844017A137823EA010313707047F8FE010070B572B62F4A137843F00403137000240AE02D49FC
:4027800063001A1952000A44D068118AFFF74CFF0134E4B2072CF2D94FF090402649FFF70DFF0A25254B1D7025480421FFF73CFF244A137843F0020313701032137843F0E3
:4027C00002031370204C237843F040032370A2F58632513A137843F0100313701B481C490822FFF727FF1B481B492A46FFF722FF1A481B490822FFF71DFF1A481A492A4680
:40280000FFF718FF194A137843F008031370184E01253570FFF712FF81233370154B1D70FFF7E6FE144821460E22FFF703FF70BDE8460040F8FE0100640000488358004052
:402840000076004003500140A04300400251004000050048F0510040080500482251004014050048605100401C050048224300400048004004000840B043004038B59DF899
:402880001040651EEDB2032D4AD80138092826D8DFE800F00525250525250D15251D0F2B02D9214800781BE02048007818E00F2B02D91F48007813E01E48007810E00F2B7B
:4028C00002D91D4800780BE01C48007808E00F2B02D91B48007803E01A48007800E0002040B201EB401101FB02F2D20B91B20D2B0BD8C3F10E0192B20A4191B2124A02EB8C
:402900008402013302F8023C05E00F4B03EB84030F2203F8022C013C0B4B23F8241038BD002000F03BFD38BD180100491C010049190100491D0100491A0100491E01004925
:402940001B0100491F0100490CA6FF1FF8B5074600F04EFC06460D4D2B7843F003032B700B4C237843F0030323700A4B1F70032000F02CFD2B7803F0FC032B70237803F0CC
:40298000FC032370304600F037FCF8BDF8460040F9460040925800402DE9F04104460022C34B1A74012860D13822C24B1A70042202331A70062201331A70002501331D70C5
:4029C00001331D703F2201331A7002331D7001331D7001331D7001260A331E70502203F527631A700A2201331A702C2201331A7001331D70442203331A70482201331A703E
:402A000001331E704FF00208023383F80080122201331A70282201331A70EB2201331A705220FFF793FF5822A34B1A7001331D70052705331F70013383F8008001331D7006
:402A400001331D70284600F0B5FA43F233329B4B1A603846314600F0D1FA1820314600F051FB1D20964900F0CFFC022C5DD13822904B1A70042202331A70062201331A7036
:402A8000002501331D7001331D703F2201331A7002331D7001331D7001331D7001260A331E70502203F527631A70272201331A702C2201331A7001331D70552203331A7091
:402AC0005A2201331A70052701331F7002331E70112201331A70192201331A70972201331A704420FFF732FF5822734B1A7001331D7005331F70022201331A7001331D7011
:402B000001331D70284600F055FA4FF47A426B4B1A600820314600F071FA2520314600F0F1FA1D20674900F06FFC032C5DD13822604B1A70042202331A70062201331A7068
:402B4000002501331D7001331D703F2201331A7002331D7001331D7001331D7001260A331E70502203F527631A70272201331A702C2201331A7001331D70552203331A70D0
:402B80005A2201331A70052701331F7002331E70112201331A70192201331A70972201331A704420FFF7D2FE5822434B1A7001331D7005331F70022201331A7001331D70E1
:402BC00001331D70284600F0F5F94FF47A423B4B1A600820314600F011FA2520314600F091FA1D20384900F00FFC042C5DD13822304B1A70042202331A70062201331A70B7
:402C0000002401331C7001331C703F2201331A7002331C7001331C7001331C7001250A331D70502203F527631A70272201331A702C2201331A7001331C70552203331A7018
:402C40005A2201331A70052601331E7002331D70112201331A70192201331A70972201331A704420FFF772FE5822134B1A7001331C7005331E70022201331A7001331C70B6
:402C800001331C70204600F095F94FF47A420B4B1A600820294600F0B1F92520294600F031FA1D20094900F0AFFBBDE8F08100BF0CA6FF1F004E004094580040BCD9FF1F66
:402CC000852F0000892F00008D2F0000912F00002DE9F04182B0394D4FF0010885F80080374E00247474102000F076F9102000F0F7F91D20072100F09BFB0427314B1F7057
:402D000001331C7007331C702F4A137843F0180313702E4B1C7003F2F5231C7001331C700A22A3F209331A7001331C7002331C705B2205331A705E2201331A7004331C7092
:402D40001422A3F68C231A70CDF80080022048F6F0514FF400421023FFF790FD02230093204649F2DA014FF400421023FFF786FD03230093204649F2DA014FF400421023D8
:402D8000FFF77CFD0097204649F2DA014FF400421023FFF773FD2B7806EB830313F8022C0B4B1A702B78013B36F82320094B1A802878FFF7F1FD02B0BDE8F0812C85FF1FE7
:402DC0000CA6FF1F96580040075B0040935800400E4E00400C4E004070B500F009FA06462A4B1B782A4B1A7842F001021A701A7842F010021A7010331A7842F001021A70AC
:402E00001A7842F010021A70224D2B7843F002032B70214C237843F0020323701F4A137843F003031370032000F0D0FA2B7803F0FD032B70237803F0FD032370184A1378AE
:402E400043F0060313707A22164B1A70164A137843F0010313701032137843F0010313700F3A137843F0010313701032137843F0010313704FF000530C4A1360A2F5C072A7
:402E80001360304600F0B8F970BD00BF2C85FF1FAA430040F8460040F9460040915800407758004082580040A143004080E200E008B5084B9B7C4BB9064BDB7C13F0FF0F07
:402EC00001D1FFF705FF0122024B9A74FFF784FF08BD00BF0CA6FF1F024A137843F0010313707047004E0040094B1B7C13F0FF0F03D0074B5B7CDBB203E0064B1B7803F0A6
:402F00000103012B01D00028EED01846704700BF0CA6FF1F014E0040154B1B7803F00303012B07D8134B1888023B1B889BB243EA004013E0022B0AD10E4B1888023B1B7824
:402F400043EA00430C4A107843EA002006E00B4B188883B2074A108843EA0040084B1B7C13F0FF0F02D00022054B5A74704700BF144E0040124E0040114E0040104E00404D
:402F80000CA6FF1F704700BF704700BF704700BF704700BF10B5002404E02046FFF7D8FB0134E4B2012CF8D9FF22014B1A7010BD2D85FF1F10B50446FFF7ECFF2046FFF7C4
:402FC000B9FB014B1C7010BD2D85FF1F014B188880B2704780400040034B1A7800F0F80010431870704700BF82400040024B187800F00700704700BF8240004070B50546FC
:403000000E46FFF7F3FF0446FFF7E0FF854256D02B4B1B7803F0010294B900B185B938B9284B1D80284A137803F0BF03137070BD254A137843F040031370224B1D8070BD80
:4030400022B3002321490B7001240F310C7004310B700C390B7803F07F030B701A4B1B7813F0080F00D08DB9194B18800721013B1970164B1B7813F0010FFAD110490B786B
:4030800003F0FE030B700021104B19700C4B1B7813F0010F0DD00E4B1D800EB1032200E001220A4B1A70094B1B7813F0010FFAD170BD044B1D8002490B7813430B7070BD5C
:4030C000A243004080400040824000400140004002400040014B188880B2704700410040034B1A7800F0F80010431870704700BF02410040024B187800F00700704700BF6A
:403100000241004070B505460E46FFF7F3FF0446FFF7E0FF854256D02B4B1B7803F0010294B900B185B938B9284B1D80284A137803F0BF03137070BD254A137843F0400346
:403140001370224B1D8070BD22B3002321490B70012413310C7004390B7008390B7803F07F030B701A4B1B7813F0080F00D08DB9194B18800721013B1970164B1B7813F05F
:40318000010FFAD110490B7803F0FE030B700021104B19700C4B1B7813F0010F0DD00E4B1D800EB1032200E001220A4B1A70094B1B7813F0010FFAD170BD044B1D80024925
:4031C0000B7813430B7070BDA143004000410040024100400140004002400040000000000230800803D000BF01380046FCD17047EFF3108072B6704780F31088704700BF02
:403200000B4A7F2313708021517007E0DA0002F1804202F5F042013BDBB21370002BF5D1DB0003F1804303F5F04300221A7070473085FF1F172815D831B103010A495A5CC8
:4032400042F020025A5405E0030107495A5C02F0DF025A540001044A835C43F00103835400207047012070471070004017280BD80001064A835C03F0F10301F0070143EAD2
:403280004101815400207047012070471070004041F6FF73994201D14FF4005141F6FF739A4201D14FF40052172808D8C00000F1804000F5EC408180C280002070470120C6
:4032C000704700BF172805D8034B03EB0010417200207047012070471070004017281BD810B4C00000F1804404F5EC44D201D2B201F07F01114321709DF804201201D2B23D
:4033000003F00F03134363709DF8083003F00F03A3700020E07001E0012070475DF8044B704700BF10B5FFF763FF0A4B5B78182B0BD9084A1478013B5370E30003F1804354
:4033400003F5F0431B78137000E0FF24FFF754FF204610BD3085FF1F10F0800F0CD111F4704F0BD1C00000F1804000F5F04001808270C370002070470120704701207047EB
:4033800010F0800F08D1C00000F1804000F5F0408180C280002070470120704701BE704710B5044605E0084B1868FFF719FFA4F50044B4F5004FF6D8034B586800FB04F032
:4033C000FFF70EFF10BD00BF3885FF1F08B5034B1B7A03FB00F0FFF703FF08BD3885FF1F70B504460E46074B1D680F2802D90020FFF7D4FF04F00F0455F8240045F824606F
:4034000070BD00BF08ED00E070B504460E46074B1D681F2802D90020FFF7C0FF04F01F04103455F8240045F8246070BD08ED00E038B504460D46072902D90020FFF7AEFF53
:403440001F2C02D90020FFF7A9FF04F01F0000F1604000F564406D01EDB2057038BD00BF024A136843F002031360704710E000E008B5FFF7F5FF034A136843F001031360E3
:4034800008BD00BF10E000E020F07F40014B1860704700BF14E000E0012805D1054A136843F0040313607047024A136823F004031360704710E000E0024B1868C0F3004013
:4034C000704700BF10E000E010B5FFF7F5FF01280BD107E0054B03EB84035B6803B19847013400E00024042CF4D910BD20A6FF1F0022014B1A60704718E000E008B5002392
:4035000005E00F4A02EB8302002151600133042BF7D90F200B49FFF763FF0120FFF7BCFF094BDB680948A0FB03308009FFF7ACFFFFF7DEFF4FF40042054B1A6008BD00BFA3
:4035400020A6FF1FC93400003885FF1FD34D621000E100E008B5054B9B6923B9FFF7CEFF0122024B9A61FFF783FF08BD20A6FF1F024B03EB800358685960704720A6FF1F2E
:40358000024B03EB80004068704700BF20A6FF1F08B5FFF72DFE0A4A137843F0200313700232137843F0100313700132137843F010031370FFF720FE00F074F808BD00BFB5
:4035C0009B640040014B1878704700BF6D640040014B1878704700BF6E640040034B1B7813F0040FFAD0024B187070476D6400404D64004008B501E00A4B1B780A4B1B7808
:4036000013F0200FF8D1FFF7F3FD084B1A7842F001021A701A7802F0FE021A70FFF7ECFD08BD00BF5D6400406E6400409D64004008B50F22064B1A70FFF7DCFFFFF7C2FFEF
:40364000FFF7C6FF0023034A13700132137008BD8B6400408D64004008B5054B1B7823B9FFF7E6FF0122024B1A70FFF791FF08BD3CA6FF1F044A137803F0DF03400100F046
:40368000200018431070704720510040044A137803F0F703C00000F0080018431070704760510040054A137843F0040313701032137843F004031370704700BFA2430040EA
:4036C000024B1878C0F34000704700BF61510040024B1878C0F34010704700BFF15100402DE9F04704468A4600203D49086000203C4905F079FF06460F4600203A49324677
:403700003B4605F071FF804689462FA3D3E9002306F0D0F8002854D14046494606F0D4F85FFA80F82AA1D1E9000132463B4605F05BFF06F0C9F8C5B227A1D1E900013246B3
:403740003B4605F051FF06F0BFF8C6B204EB4404264B1C6000F090F800F0B0F800F0D6F8234B83F80080701EC0B200F0DDF8681EC0B200F0B1F80120014641F6FF724FF45A
:40378000804300F0D7F81B4B1870BAF1000F0ED1204606F009FC124B186018B10122164B1A700AE00020114B1860BDE8F0870C4BC3F800A00022104B1A70094B1868BDE8C7
:4037C000F0870020BDE8F0870000000000E06F40666666666666E63F666666666666D63FE4A7FF1F0000F03F0000F43FD0A7FF1F30640040E8A7FF1FD4A7FF1FAFF30080A9
:4038000038B50F4B1B68CBB1FFF78CFD0D4C20700D4B1988FE222123FFF79EFD2078084B198846F24042FFF7ABFD084D28782178FFF748FD28780121FFF7FCFC38BD00BFDB
:40384000E4A7FF1FDCA7FF1FD0A7FF1FE8A7FF1F0622014B1A7070478164004008B5FFF7C7FC044A137843F020031370FFF7C4FC08BD00BF9164004008B5054B1B7823B9CF
:40388000FFF7E6FF0122024B1A70FFF7E7FF08BD3DA6FF1F0C22014B1A7070478064004008B5FFF7A5FC044A137843F020031370FFF7A2FC08BD00BF9064004008B5054B53
:4038C0001B7823B9FFF7E6FF0122024B1A70FFF7E7FF08BD3EA6FF1F014B1870704700BF806400400622014B1A7070478F64004008B5FFF77DFC044A137843F020031370AD
:40390000FFF77AFC08BD00BF9F64004008B5054B1B7823B9FFF7E6FF0122024B1A70FFF7E7FF08BD3FA6FF1F014B1870704700BF8F640040F0B583B086460F4616461D462A
:403940000A4C0023237000930193184671463A46FFF7C4FC207831462A46FFF799FC20780221FFF783FC207803B0F0BD4885FF1F70B58AB0064600F049F8224D044695F989
:403980000030013308D0304600F096F820B13046002106F0B5FA10B920460AB070BD1A4901220023304601910092089305F09EFC2C78CDE90401CDE902017CB900220023B5
:4039C000CDE90623684600F075F888B1089BA3B9DDE9060105F098FF0AB070BD0020002102460B4605F000FE022CCDE90601E9D106F0AEFA21230360E8E706F0A9FA089BA3
:403A00000360E5E74985FF1F34FF010020F00042B2F1FF4F70B5034604462DD25AB300283DDBB2F5000F4FEAE0502CD3002631467F38C3F31603C20743F4000348BF5B004A
:403A400040105B0019244FF080728D189D4202DC5B1BA9181644013C4FEA43034FEA5202F3D113B106F001031E44761006F17C5606EBC05070BD70BD014606F0A3F8214624
:403A800005F098FF70BD14F400020FD15B00190202F10102FAD5C2F101021044C6E7014605F086FF014606F041F970BD01221044BCE700BF0020704730F0004001D1022008
:403AC0007047A0F50003B3F1FE4F01D204207047054B421E9A4201D803207047A0F1FF40B0FA80F040097047FEFF7F002DE9F7431E4CD4F800E0DEF85050DEF84C406F186E
:403B00001D449EF818302618013B9BB21444F21AADF800201A19ADF804206846FA1A2B44ADF80220ADF8063003F0CCFBD8B107F1010805F1FF3922463946304602F0D0F9FD
:403B400022462946304602F0CBF94A464146304602F0EEF94A464146204602F0E9F903F0EFFA0028E7D103B0BDE8F0834C85FF1F074B10B55A685C6A01325A605A6B02EBD7
:403B8000C0014C60002102F83010586210BD00BFC4D9FF1F10B50E4944680F2301EBC302126C94420A4A03D213F1FF33F6D210BD0F2B0CD81168091B11608168C06801B15A
:403BC000486008B1016010BD02EBC303596410BDC4D9FF1FF8B5274E0546F368B26B013B0818134498420C4605D84B591BB943681D44FFF7CFFFB36B9C420BD954F8043CE9
:403C00005B42E718E3582BB97B6838461D443C46FFF7C0FF0F2306EBC302126C954203D213F1FF33F7D223E00F2B21D8083306EBC30251686019002284E82400A16024612E
:403C400040F8045C04F1080001B1486006EBC303A160E260586033680649EA1896F8293032602BB9CB689B1A8A68934288BF8B602846F8BDC4D9FF1F2DE9F74F234F834604
:403C8000B846FE68BC6B013E264494E82800A3BB61198E4231D954F805A0BAF1000F2CD07B6B13F83A30012B27D1D8F82C302046D1F8049000930191FFF76CFF0199D8F875
:403CC0003420086802EBC002546020464A4606F07EF9009B04EB09019A4508BFD8F83430284604BF5B1BC8F83430FFF773FFBBF1000F01D0584505D24D462C44A642C4D812
:403D0000012000E0002003B0BDE8F08FC4D9FF1F28B1034BDA6B026002B15060D8637047C4D9FF1F034B5B6B03EBC00040680830704700BFC4D9FF1F054BDA690132DA611E
:403D40005A6B12F83030013302F83030FFF7EABFC4D9FF1F30B50368094953F8085C4C6B14F83530012B03D9CA690AB1013ACA61013B04F8353000230360184630BD00BF2A
:403D8000C4D9FF1F024B21F0030118605960704740A6FF1F10B5044660B1074B5B6B03EBC00359684868FFF715FF2046BDE81040FFF7DEBE10BD00BFC4D9FF1F2DE9F0411B
:403DC000224CE36A3BB9224B9D685B680835B3FBF5F5023503E023691D1D05EBD305E80000F0C2F8804660B3616B226901EBC0035E68184B08361B68D2003046E76A98478F
:403E0000226966631346C4F82C80691E8B4205D2013306EBC30040F8043CF7E706EBC3064FF00008C6F80480636862629B1A2B446360256138463FB1FFF7ACFF4046BDE88B
:403E4000F0810120BDE8F081BDE8F081C4D9FF1F40A6FF1F6C85FF1F70B5184A92F8283053BB012382F82830154B1021D960996811B95968890899605A2111621026002124
:403E800002EBC10006FA01F5013110290B4C0564F6D158681968A0F114030B440125022222616363A163E0605D6065626560FFF791FEFFF783FF256370BD00BFC4D9FF1FE8
:403EC00040A6FF1F2DE9F0410746264E0337FFF7C3FF27F00307306C0437F26B874238BF0746144634B154F8043C9F4223682CD01C46F7E7F368B26B02EB030858F8045CCF
:403F0000C5EB08052B6833B12046FFF7B5FE58F8045CC5EB08052B680BBB6B689F421EDC28461C1DFFF736FEF3686868DB1BF3607369E41B3B44C01B2C44736102D02946CB
:403F4000FFF748FE44F8047C09E00BB161685960616801B10B60A24201D12368F3632046BDE8F081C4D9FF1F2DE9F8430446394EFFF772FF356C3368AC4224BF033424F08D
:403F800003050C35AB42334C3ED3236B62689A420FD97368776A013B7360736B4FEAC70803EB080252687262012203F8372057B92AE0013B2363FFF701FF236B0133236359
:403FC0000028E6D020E00F2306EBC302126C95420CD213F1FF33F7D208E094682CB16268954214D9A268002AF7D101330F2B03D806EBC302526CF6E72846FFF73DFE00281D
:40400000E1D03846FFF7B4FD0020BDE8F883D4F80490336CC5EB09020C339A4238BF4D462046FFF7B7FD736B611998444D454FF00003C8F8044027606560A360246141F8E2
:40404000045C03DAC5EB0900FFF7C4FD3846BDE8F88300BFC4D9FF1F08B1FFF785BF704773B50646FFF7F8FF054660B1FFF764FE064B02AC44F8040D1B6832460021984775
:404080002046FFF767FE284602B070BD7085FF1F4D4B2DE9F04F1A688BB0D169CC69A389984208DBE589854205D32568C31A06954FF0FF3613E0A368002B7CD01D88A84253
:4040C00079DB5E88864276D35B68401B666880B203EB8005069633F92030B5F90260581C099368D091F818B0A17CB2F92A900BFB01F34846B2F92270B2F92480079394F867
:4041000010A001F0B7FE079B089018462E4D099B2968CA69896B0591069900FB03100490A37C4146039301230293D37E38460193937E524600935B4602F03CF8731C1AD00F
:4041400049F0020001F096FE2A680699D369926B38460592079A02FB06160496A27C4146039201220292DA7E01929B7E524600935B4602F01FF82B68DB695A7E1B7E9A42BE
:4041800015D9B9F1020F12D089F0040001F072FE0D4B1B68D869437E827E017EC07E434400FB01810AFB0272384601F0EBFE9DF8200001F05FFE044B617C1A68538C0B4448
:4041C00053840BB0BDE8F08F4C85FF1F044B1B68DB69DB6909B11A7C0A60587C704700BF4C85FF1F02230B807047C3699A89914202DBDA898A420FD2986880B103889942C0
:404200000CD342888A4209D3C91A436833F82100C043C0F3C0307047012070470020704738B103888B4202D843888B4201D28068F6E770472DE9F04F384C89B0236806465C
:40424000B3F92A80DB690146D869FFF7E9FF002860D005884768751B07EBC506404696F802A001F007FED4F800C017F83520DCF81CE0DCF838309EF818B0BCF924108146A7
:40428000BCF92200059373684FF0010C0493CDF80CA0CDF808C09EF81BC05B46CDF804C09EF81AE0CDF800E001F084FF2368DA69537E92F818A00793534520D9B8F1020FC9
:4042C0001DD092F81BB000F0FBF8804600F0F1F800F06EF9226817F83550B2F92410B2F92200D269079BD27E0BFB031305FB02020BFB0A1101F046FE404600F059F94846E0
:4043000001F0B8FD23687178DA69907E5A8C00FB01225A8409B0BDE8F08F00BF4C85FF1F38B50C4B02461B680C46DD690146E869FFF776FF60B103884168D21A01EBC2001C
:40434000AB7E407858431CB111F832205343236038BD00BF4C85FF1F01230B80704708B5C069FFF75DFF003018BF012008BD2DE9F04F0746144698465B4385B0019302FB14
:4043800002F302910093002500F1FF3A6E1CB04533DB06FB06F0009B5843019BB0FBF3F0009B181A03F05EFA844208BF0446029B18BF04F1FF345B1BC4EB070B3C4419460E
:4043C00022468146384603EB4505039301F088FD039B52461946584601F082FD012E09DD52462946584601F07BFD22462946384601F076FD35464C46C8E705B0BDE8F08FB8
:40440000F7B50D4616461F46044600F0A3F8144B01301B684010DA6C1B6D06441444A2B21D44B3B2D11A07441344ADF80430AAB2BBB2ADF800106846D11A1344ADF802106F
:40444000ADF8063002F03EFF40B13B46324629462046FFF78CFF02F073FEF5E703B0F0BD4C85FF1FC3B2CAB29A1A92B210B514B2002CBCBF524214B204FB04F2C0F307231D
:40448000C1F307241B1B9BB21CB2090C002CC1EB1041B8BF5B4289B208B2B8BF1CB204FB04230028BCBF494208B280B200FB003010BD08B502F0EEF8BDE8084001F0F0BFE6
:4044C00008B502F0EFF8BDE8084001F0E9BF10B538B309B30AB3B2F90040B1F90030A342A8BF2346B2F902400380B1F90230A342A8BF2346B2F904404380B1F90430B2F9C1
:404500000620A342B8BF23468380B1F906309342B8BF1346C38010BD11460B6803604B68436010BD68B1038889B20B440380838892B219444388818013444380C3881A44BC
:40454000C2807047024B1B6858849984002070474C85FF1F014B1B68187E70474C85FF1FB0F90220B1F906309A4214DCB1F90220B0F906309A420EDCB0F90020B1F9043019
:404580009A4208DCB0F90400B1F900308342CCBF0020012070470020704708B502F056F902F0BCF9BDE8084002F00CBF01F0BEBF01F0C2BF034B1B68DA6900B1D861104612
:4045C000704700BF4C85FF1F094B10B41880094B0A461980084B1B68597C084B53F82130D9680C6A01461846234610BC184700BFACDAFF1F9CDAFF1F4C85FF1FD4DAFF1F2D
:40460000034B1B68B3F92C2098851046704700BF4C85FF1F034B1B68B3F92A2058851046704700BF4C85FF1F70B50B4D00240B4E45F8044B33687022214628469847336878
:404640000422214606489847064B1D60064B1C70064B1C6070BD00BF50A6FF1F7085FF1FD4DAFF1F4C85FF1FBCDAFF1F98DAFF1F014BD860704700BF4C85FF1F2DE9F341C3
:404680000446042016461F460D4601F0F3FB124B80461B686846DA6C1B6D14441D4416441F44ADF80040ADF80460ADF80250ADF8067002F007FE28B9404601F0DBFB02B02A
:4046C000BDE8F0813B4632462946204601F05AFC02F036FDEFE700BF4C85FF1F002110B50846FFF72FFFBDE8104043F6FF7302491A460846FFF7C2BF01C0FFFF024BDA6F29
:40470000D8674260704700BF50A6FF1F10B5094C23686BB901232360FDF700F8FCF7AAFF2046BDE81040044B40F8803FFFF7E6BF10BD00BF50A6FF1F2946000070B5FFF7B0
:40474000E5FF2F4B2E222F4C2F4D1A70FCF78AFF2E4B04F10C0123672B681A1DDA6303F10802A2615A7C9B631B64294B53F82200C3681B6B9847274B6366EB6823622B6817
:404780000833A36101232377E37702F015FF032384F86830204BE064606F6363A36301F0C5FEA86801F0C8FE1C4A1D4B1A6001F021FE054601F0E0FF064601F0E3FF06B154
:4047C00040B901F0CDFF064601F0CDFF0146304601F0CCFF00210846FFF7F6FE02F044FEA36F43B1A36F33B11B6803B19847A36F5B68A367F6E70B4B01221A70284670BD88
:404800008DDAFF1F50A6FF1F4C85FF1FF8520200D4DAFF1FF0520200785634FF0C530200CCDAFF1FB4DAFF1F002809DC054B53F8200020B1C3681B681BB10068F9E77047B0
:4048400000207047D4DAFF1FFFF762BAF8B51C1E06460D46174601DD0020F8BD1C20FFF731FB0028F8D00DB1056109E0084B53F8241029B10B680BB11946FBE70B6903619E
:404880000023836084618782C66003604360F8BDD4DAFF1F81690A4A52F821309842036804D142F821300BB100225A60426802B11360036803B15A600023036043607047B8
:4048C000D4DAFF1F30B508B9012030BD8469002CFADC1B4B1A789442A4BF01221A70194A52F8243015461BB942F82400184630BD5A680AB11346FBE7C2681268D968096884
:40490000914203DD1B68002BF8D1DDE709D1818A012906D1196821B10B46C96809688A42F8DD5A6812B11060426001E045F824005860984208BF00230360002030BD00BF38
:4049400085DAFF1FD4DAFF1F38B51D46FFF77EFF044648B1FFF7B6FFE3681B6823B9034B16351B6843F82540204638BD4C85FF1F2DE9F04F054685B000287FD002F09CFFB4
:40498000404C07462368A146B3F9228002F07CFF226886B2938C9B1B93842B78002B61D047F6FF71284602F0EFFF01468246284603F014F82268938D03F00303012B04D02A
:4049C000022B04D190FBF3F302E0034600E00023518C1FFA80FBCB1A9BB219B25184ADF80810B2F924200BF1FF310B44ADF80C30ADF80A20BBB2013A1A44ADF80E2051468C
:404A000002AA2846019303F019F82268BDF80A1028469184514600F0FFF82A5C05EB000E0A2A019B01D00D2A12D12268918D01F00301013901298ABF118CA2F82280518433
:404A40009EF800100A290AD1918C0B44938406E0BDF80800D9F800308344A3F822B09EF8003043B923689A8C16449A8D9E8422F003029A8502E00EF101058EE705B0BDE825
:404A8000F08F00BF4C85FF1F024B1B6859849A84FFF76EBF4C85FF1FF8B50B4B05461B680E46B3F92C00174640F00200FFF7A8FD04463A4628463146FFF7E6FF2046BDE830
:404AC000F840FFF79DBD00BF4C85FF1FF7B50F4C2568EC6C2D6D26186F1814441D446846ADF80060ADF80440ADF80270ADF8065002F0E8FB40B12B4622463946304601F049
:404B000041FA02F01DFBF5E703B0F0BD4C85FF1F2DE9F04F314D8BB02E68149CF56C366D05EB000A06EB010B15441E4408A8ADF820A0ADF82450ADF822B0ADF8266002F039
:404B4000C1FB002847D06300009304FB04F30193CBEB060301330593CAEB050301330693059B009A934232DB1346069A93422EDCA0465F460BEB040302930AEB0403039302
:404B80002B1B0493029B9F421ADC019B08FB183002F068FE049A039B02EB00091B1A394618464A46079301F09BF9079B311B41444A46184601F094F9013708F1FF38E1E763
:404BC000331B013B2A463946504601F0DBF902F0B7FA0028C4D10BB0BDE8F08F4C85FF1F024B1A6802B9186000F032B8E0A6FF1FF8B5084E0468336805461B682046984716
:404C0000336807465B6820469847204428603846F8BD00BFCCDAFF1FF8B506460D46064F00243DB13B6830465B689847013D06440444F6E72046F8BDCCDAFF1F00787047B9
:404C400001207047012070470170012070470000024B1B6803B11847704700BF40A7FF1F074A00F01F01C0F3C423D35C525CC0F3451003EB0243034A105C03EB002070474C
:404C8000FC560200BC560200074AC1B2C0F30743D35C525CC0F3072003EBC223034A105C03EB4010704700BFBC540200BC5302004FF6FF7070470000F0B5DFF854E006464A
:404CC000DEF800E00D4614461F46BEF1000F03D0F446BDE8F04060470B490C4856F8042B013CC2F307435FFA82FECB5C11F80EE0C2F30722825C03EBCE2303EB42132B80C4
:404D00003D44EBD1F0BD00BFBC540200BC53020048A7FF1FF0B5154E864676680F4614461D461EB1B446BDE8F0406047501E02F1804103FB00E0013907EB81010C4E0D4F2D
:404D40000288013C02F01F0316F803E04FEAD223F35CC2F34512BA5C03EB0E4303EB022341F80439A0EB0500EAD1F0BD48A7FF1FFC560200BC560200104670474068801A44
:404D800001387047084670470068401A0138704710B48468D4F8F840A44610BC60478368D3F8F4301847F7B5164604460D468768FFF7F5FF0190019ABB6A294653402046CB
:404DC0003246FFF7E5FF03B0F0BD13B584680092D4F8F040A04702B010BD13B584680093D4F8F0400B46A04702B010BD10B48468D4F8F040A44610BC604730B48468D4F8BA
:404E0000EC40A44630BC60477047000073B5079E84680C4D76B1286888B906980090D4F8A8602046B047D4F8A8302B60064BC4F8A83004E02B6813B1C4F8A8302E6002B086
:404E400070BD00BF50A7FF1F094E0000026CD0F8DC3090691847026CD0F8E030906918472DE9F34791468A4698460A9C85680B9F00942846D5F8A860B0473946C9EB040487
:404E8000CAEB0806621C286C06FB0222D5F8E430806902B0BDE8F04718472DE9F34791468A4698460A9C85680B9F00942846D5F8A860B0473946C9EB0404CAEB0806621CE5
:404EC000286C06FB0222D5F8E830806902B0BDE8F04718470139172928D8DFE801F01427272727272727270E101219290C272727272727231E250F4870470F4870470F487F
:404F000070470F48704703689B68D3F80401704703689B68D3F8FC00704703689B68D3F8000170470748704707487047002070470648704707530000F3520000DF52000022
:404F400085520000E95100000D4E00001D530000013980680D2923D8DFE801F0090B0D0F2222221125070713181D01207047006870474068704780687047C0687047806B69
:404F8000704788B1406B00F00100704760B1406BC0F34000704738B1406BC0F3800070474FF0FF30704700207047836801290CBF586C00207047826800230B804B80136875
:404FC000013B8B805368013BCB807047F0B5104C91B06D46264607460FCE0FC596E80F00203485E80F000FCC08AD0FC594E80F0085E80F007B6B10AA02EB830353F8402C80
:4050000053F8203CC7F80821C7F80C3111B0F0BD3453020007B580698DE806006A460321FCF772FB03B05DF804FB0846704708467047084670471046704710467047104614
:4050400070474068801A013870470068401A013870470068401A013870474068801A013870474068801A013870470068401A013870472DE9F34184689846E38C0E469B0754
:4050800017462ED5D4F80831204698470546D4F80C313A46314620469847A36922699D42D4BF002301239542B8BF43F00103626906469042B8BF43F0010313B9E369984258
:4050C0000ADD62682368013A00920022D4F8A870013B11462046B847D4F8AC303246294601E0D4F8AC302046984741462046D4F8A43002B0BDE8F0411847F7B584680E46EC
:40510000E38C17469B0743D5D4F8083120469847D4F80C31314605463A4620469847D4F8983006461BB10022012120469847A36922699D42D4BF002301239542B8BF43F009
:40514000010362699642B8BF43F0010313B9E3699E420ADD62682368013A00920022D4F8A870013B11462046B8472946D4F8AC30324620469847D4F8A03020469847D4F85A
:40518000983005467BB101220021204698470AE0D4F8AC30204698472046D4F8A03003B0BDE8F0401847284603B0F0BD38B5856804469DB94FF4BE70FEF784FE084B4FF4A1
:4051C000BE721B68A06029469847A3680222DA8401221A62034A1C64C3F8102138BD00BF7085FF1FCD4F000070B506460D461446FFF7DCFFB368002B3BD0262D02D0272D2D
:4052000016D070BD9A6B102A02D0122A08D070BD184AC3F8DC40C3F8B820C3F8B42070BD154AC3F8E040C3F8BC20C3F8C02070BD9A6B102A02D0122A0ED070BD3CB10F4A4A
:40524000C3F8E440C3F8CC20C3F8C82070BDC3F8CC40C3F8C84070BD3CB1094AC3F8E840C3F8D020C3F8D42070BDC3F8D040C3F8D44070BD4D4E0000574E0000614E0000C1
:405280009B4E000070B50646FFF790FF4FF4FA70B568FEF717FEA866B0FA80F4A86B2B680730C0105843FEF70DFE002200284FF00101E866B0694FEA541408BF0124FCF755
:4052C00023FAD5F810310443284698472846D5F8B0309847002CD4BF0020012070BD70B506460D461446FFF761FFB3681D605C6070BD70B506460D461446FFF757FFB3684E
:405300009D60DC6070BD10B50446FFF74FFFA06900220621BDE81040FCF7F6B910B50446FFF744FFA06900220521BDE81040FCF7EBB938B50C460546FFF738FF2268AB6852
:40534000DA6262681A63A2685A63520707D51A68596883E806009A68D968DA609960A2899A84226912B122EAE2721A6238BD2DE9F041044688461E461746FFF717FFA568E3
:405380006822414605F58A7004F016FE2046B8472046B04723699B689847A862BDE8F0810B0A80F8713080F87210D0F820310221713018472DE9F04115460446806E0E46FE
:4053C0000021A5B1034636F8022B0131170AFA2903F8027B427007D1D4F820314FF4FA71A06E9847A36E0021013D1846E9E731B1D4F82031A06E4900BDE8F0411847BDE894
:40540000F08108B5D0F8B830984708BD89B2FFF7C7BF00002DE9F04F3E4E82468568306885B0007C884610F0010F14469946A3EB01003DD043000393471C0E9B9C4266DC9C
:40544000D5F8CCB0EE6EBBF1000F01D1C34607E08DE850004B46224641465046D8470DE0CB450ADC5946D5F8F4302246504698470BF1010B26F8020BF2E7EE6E039AB31EEA
:405480001644B34205D0A96A33F8022F4A401A80F7E7009422464B4641462846D5F8A860B0473A46E96E2846FFF784FF0134C4E70E9FBC1A671C00FB07770E980090D5F8E9
:4054C000A8402846A0473368AE6EDB6B1C680123C4F3072906EB030AE4B2C7B1B846F92F28BF4FF0F9084FEA48013BB9D5F8203150469847C8EB07070023EEE733467218C5
:405500009342F3D083F8019003F8024FF8E705B0BDE8F08F4C85FF1F2DE9F04F8FB00393836805900993199B0691082B08920CD8199A4FF48B73D340DB0706D5984B1B6868
:405540001B7C03F00303022B10D0069B1C9A18989918089A039B0244013A0092099ACB18D2F8A840013B089A0998A047039B1C9A013B0D93069B089F13440493049A0D9B39
:4055800013440C93089B189AFB1A9A4240F35382199B013B0F2B00F24882DFE813F01000C10046024801460246024602D80146024602460246024602460246024102059B09
:4055C0009C681D9B5B680B93754B1B681B7C03F00303022B22D0032B76D0012B74D01D9B039E1C9DDDF86CB0B3F80090BDF82CA04FF080089BF8002048FA05F31A4214BF16
:405600005146494601352046FFF7CAFE082D04BF0BF1010B0025013EECD106E21B9B00250A932B46DDF810B0D4F86CA0DDF87080CDF81CB00A9A92F80090802242FA08F29F
:4056400019EA02090DD01BB9D4F86CA0DDF81CB0BDF82C300135AAF800300AF1020A012313E0012B10D1079B0097013B3A4659462046D4F8A860B0472A46E16E2046FFF7CE
:4056800099FE4D464B4600E04B46079A08F101080132B8F1080F079208BF0A9A039904BF01320A92049A08BF4FF000080A4407999142BFD1002D00F0B8810097D4F8A86038
:4056C0000C9B3A465946A5E1039B049A1C9DDDF86C80079303EB020A4FF0800B079B98F80020C3EB0A094BFA05F31A420DD0D4F8F4303A46494605989847A36A3A46434036
:4057000049460598D4F8F860B0470135079B082D04BF08F101080025013B0793DED184E1059B9C681D9B002B00F07F811B9B93F800B01B4B1B681B7C13F003030FD0022B44
:4057400040F07381049B00260A931B9BD4F86CA0DDF870900B93DDF81080324645E01C9D039EDDF86C904FF0C008C5F103035A00C2F1060348FA03F303EA0B03D3401D9A9F
:40578000013532F823102046FFF70AFE042D02BF99F801B0002509F10109013EE5D144E14C85FF1F1AB9D4F86CA0CDF82880079A1D9B013653F822300AF1020A2AF8023CE0
:4057C000012209F10109B9F1040F08F1010806D10B9B4FF0000993F801B001330B93049B03990B44984500F0A680C9F103056D00C5F10603C02141FA03F303EA0B03EB404D
:405800000793CFD1012A10D1009708F1FF333A460A992046D4F8A850A8473246E16E2046FFF7C8FD079E3246CBE7079AC9E7059B9C681D9B002B00F0F8801B9B93F800B03C
:405840007E4B1B681B7C13F003030FD0022B40F0EC80049B00260A931B9BD4F86CA0DDF870900B93DDF81080324642E01C9D039EDDF86C904FF0F008C5F101039A00C2F1C9
:40588000040348FA03F303EA0B03D3401D9A013532F823102046FFF783FD022D02BF99F801B0002509F10109013EE5D1BDE01AB9D4F86CA0CDF82880079A1D9B013653F895
:4058C00022300AF1020A2AF8023C012209F10109B9F1020F08F1010806D10B9B4FF0000993F801B001330B93039B04990B44984521D0C9F10105AD00C5F10403F02141FA6A
:4059000003F303EA0B03EB400793D0D1012A10D1009708F1FF333A460A992046D4F8A850A8473246E16E2046FFF744FD079E3246CCE7079ACAE7002E77D000973A46D4F828
:40594000A8500C9B0A992046A847324665E0059B9C681D9B002B68D0384B1B681B7C13F003030FD0022B60D1DDF818A0039A00255244D4F86C80DDF86CB0CDF81CA02B46B1
:405980000A9224E01B9D039B1B9A5B1B1344002B4BDD15F8013B1D9A204632F82310FFF7FFFCF0E71BB9D4F86C80DDF81CA01D9B013553F8293008F1020828F8023C01235D
:4059C000079A0132079207990A9A914219D01BF8019BB9F1000FE5D1012B10D1079B0097013B3A4651462046D4F8A860B0472A46E16E2046FFF7DEFC4D464B46E0E74B46E1
:405A0000DEE70D9B069A13447DB13A4651460097D4F8A8602046B0472A46E16E204602E0039A1B990998FFF7C5FC1B9B1A9A013713441B93A6E50FB0BDE8F08F4C85FF1F41
:405A400010B50446FFF7B2FBA468104B0821C4F8EC300F4B2046C4F8F0300E4BC4F8F4300D4BC4F8F8300D4BC4F8A0300C4BC4F8A430D4F8CC30C4F80431D4F89430984708
:405A80001023A363074B636410BD00BF1955000015540000FB50000073500000035400000D540000445702002DE9F04104460E461546D0F88C302A219847E16AD4F8903009
:405AC00031442046C1F30F219847E16AB7B23944D4F890302046C9B29847E16AD4F8903031442046C1F30F219847E16AD4F8903039442046C9B29847D4F88C3020462B21C8
:405B00009847216BD4F8903029442046C1F30F219847216BAEB23144D4F890302046C9B29847216BD4F8903029442046C1F30F219847216BD4F8903031442046C9B2984730
:405B4000D4F88C302046BDE8F0412C2118472DE9F041044688461F461646D0F88C302A21069D9847E16AD4F8903041442046C1F30F219847E16AD4F8903041442046C9B282
:405B80009847E16AD4F8903039442046C1F30F219847E16AD4F8903039442046C9B29847D4F88C3020462B219847216BD4F8903031442046C1F30F219847216BD4F890308E
:405BC00031442046C9B29847216BD4F8903029442046C1F30F219847216BD4F8903029442046C9B29847D4F88C302046BDE8F0412C21184713B504466B460D4A10685168C2
:405C000003C3D4F88C302046362198472046636B02AAA18C134413F8083C21F0E0011943D4F8903089B202B0BDE81040184700BFA853020013B50446D0F814312E209847A4
:405C4000216AD4F83031684603319847236A0DEB03021DF803305078DB088008DB0243EA4013907843EAD00002B010BD1FB50446D0F834312E209847216AD4F850316846C7
:405C800002319847226A0DEB42035B88C3F3C4005B1103F4FC6303433DF81200000200F47840184304B010BD70B505460C46D0F81431080A9847D5F81431E0B2BDE870401A
:405CC0001847D0F8343108461847D0F81831C8B21847D0F83831084618470000082902D0102905D07047064BC0F88C30054B03E0054BC0F88C30054BC0F89030704700BFE1
:405D0000A95C0000CB5C0000C35C0000D35C0000F0B585B00A9F8568BC1A581A0097013400FB0444D5F8A87028460B9EB847D5F814312E209847D5F83031296A02A898479E
:405D4000D5F83031032102A898479DF80930013C4FEA93029DF808304FEAD3034FEAC32343EA42139DF80A2043EAD20326F8023BE6D105B0F0BDF0B587B00C9F8568BC1A73
:405D8000581A0097013400FB0444D5F8A87028460D9EB847D5F834312E209847D5F85031296A02A89847D5F85031022102A89847BDF80A30013CC3F3C4024FEA631303F454
:405DC000FC6343EA0203BDF808204FEA022222F4FF6243EA020326F8023BE4D107B0F0BD10B50446FFF7E2F9A368114A0021C3F8AC20104AC3F8BC10C3F8A8200E4AC3F856
:405E0000D010C3F8B0200D4AC3F8B8200C4A10685268C3F8B400C3F8C820DA8C094822F00302DA84084AC3F8CC00C3F8942010BDA95A00004F5B0000F55B0000355C0000A4
:405E40005C85FF1F115D0000DD5C000070B5084B1B681A7C82EA0001490705D59C6BD96B25680E6826600D601874104670BD00BF4C85FF1F014B1B689B6818476485FF1F1E
:405E80000A46154B30B41B680446B3F90A10914220DCB3F90E108A421CDCB3F90810814218DCB3F90C10884214DC197C587C11F0010F0A4951F8200004D0C368214630BCD9
:405EC000DB691847C168DB6B8D691B682146AC4630BC604730BC70474C85FF1FD4DAFF1F114B30B41C680D46B4F90A308B4219DCB4F90E30994215DCB4F90810B4F90C30A8
:405F00008142B8BF01469342A8BF1346994209DC607C064A52F82000C26894682A46A44630BC604730BC70474C85FF1FD4DAFF1F124B30B41C68B4F9083083421BDCB4F971
:405F40000C30984217DCB4F90A309942B8BF1946B4F90E309342A8BF134699420BDC084A647C52F82440E268D5680A46AC460146204630BC604730BC704700BF4C85FF1F04
:405F8000D4DAFF1F73B5134C2468B4F90850B4F90C608542B8BF05469642A8BF1646AE4215DBB4F90A208A42B8BF0A46B4F90E108B42A8BF0B469A4209DC607C064951F8F1
:405FC0002000C16800930C6933462946A04702B070BD00BF4C85FF1FD4DAFF1F2DE9F04F8FB0189DDFF8C8E10295199DDEF800E008951B9D079003950C4617460193DDF8C0
:4060000068A01C9EDDF874B01E9DBEF1000F02D0DEF8004054E0029B089A1343012B54D1614B1868B0F90A20531A002B0ADD0199C3EB010EBEF1000F40F3B280039901FB9A
:40604000036602E00A46DDF804E0019B1C44B0F90E30013CE41A002C05DDC4EB0E0EBEF1000F40F39D80079BB0F90C103B44013B5B1A002BC8BFFF1A079B591BB0F908306E
:40608000994209DA5B1A1D44FF1A23F0070306EBE506194405F00705002F40F38180407C424B039C53F82000C368CDF874B01C951B961A94CDF864A0CDF860E05C683B46EF
:4060C000A4460FB0BDE8F04F60477546CAF108030B93029BDFF8D090013BCDF814E00D93059B019A93425BDA089BE3180993013B0A93D9F800300A99B3F90A208A4248DC22
:40610000B3F90E309C4244DC079B4FF0000806960093CDF81080049BBB423ADAB8F1000F05D1069B4FF008081D78013306930B9BCAEB080845FA03F313F0FF0105FA0AF5D9
:40614000EDB204D1D9F80020127C920719D4D9F80020D26B10680C90BBF1000F02D05BF8213000E0DBB2136000990D9A0A9B0A4400982146FFF706FFD9F800300C9ADB6B39
:406180001A60049B029A01330493009B13440093C1E7059B099C01330593039B1E449FE70FB0BDE8F08F00BF4C85FF1FD4DAFF1F90DAFF1F2DE9F04F8FB0189CDFF814E2A1
:4061C0000294199C1D9E0894DEF800E01B9C054603940091904601931A9F1C9C0496BEF1000F02D0DEF800407AE0029B089A1343012B7AD1754B01991868009BB0F90A2054
:40620000D31A002B07DDC91A002940F3DB80039E06FB034400E0009A9DE848001E44B0F90E30013EF61A002E03DD891B002940F3C98005EB0803B0F90C60013B9B1BB0F9FE
:406240000860002BC8BFC3EB0808B54231DA731B082FC3EB080827D00DDC022F14D0042F1AD0012F26D123F0070604EBE304354403F007031EE0182F18D0202F16D0102F7B
:4062800018D104EB430413E023F0030604EBA304354403F003030DE023F0010604EB6304354403F0010305E01C4401E004EB830435460023B8F1000F40F38480467C444864
:4062C00050F82600049ED0F80CE01C93039B18911A93294643461D961B941997DEF80440A4460FB0BDE8F04F6047F346C7F108030B93029BDFF8D4A0013BCDF818E00D93C4
:40630000069B019A93425DDA009A089B13440993013B0A93DAF800300A99B3F90A208A4248DCB3F90E30009A9A4243DC2E464FF000090794CDF81490059B43453ADAB9F17C
:40634000000F06D1079B4FF0080993F800B0013307930B9B0BFA07F24BFA03F313F0FF015FFA82FBC7EB090904D1DAF80020127C920717D4DAF80020D26B10680C90049808
:4063800010B150F8213000E0DBB213600D9A0A9B324400993046FFF7F5FDDAF800300C9ADB6B1A60059B029A01330593334613441E46C1E7069B01330693039B1C44099B8E
:4063C00000939DE70FB0BDE8F08F00BF4C85FF1FD4DAFF1F90DAFF1F044B1968044B4A7C083153F82200C3681B6B18474C85FF1FD4DAFF1F07B5FFF7EFFF00F0B1F80028EA
:4064000039D1FEF711FA019038B900F0FFF81B4B1A681B4B9A420CD12AE0C3680C215B6A01A89847034628B3019898470028ECD021E00020FEF7F8F90190C8B1002001F091
:4064400051FB0420FFF716FD43F6FF7300211A460846FFF797FD0020FFF70CFD019B0E21DB6801A85B6A9847034608B101989847002000E0012003B05DF804FBC4A6FF1FFB
:40648000785634FF044B1B685A7C044B53F822301B691B68184700BF4C85FF1FD4DAFF1F044B1B685A7C044B53F822301B695B68184700BF4C85FF1FD4DAFF1F044B1B68E1
:4064C0001A7C52074CBF9B6BDB6B1860704700BF4C85FF1F08B5064B1B68196B814206D01863FFF7CFFFBDE80840FFF7E7BF08BD4C85FF1F044B1B681A7C52074CBFDB6B3D
:406500009B6B1860704700BF4C85FF1F08B5064B1B68596B814206D05863FFF7B3FFBDE80840FFF7E7BF08BD4C85FF1F014B1B685B6818476485FF1F014B1B681B68184741
:406540006485FF1F10B5044C2068FDF7E1FB034A00232360136010BDE0DAFF1F6CA7FF1F38B50A4D2C6864B9094B18688000FDF7A9FC286038B10748074B40F8043FFEF707
:40658000BDF8002038BD012038BD00BFE0DAFF1F6885FF1F6CA7FF1F456500002DE9F843044618B387681FB3144D286820B32268B2F5807F1FDC124B00261B689A42A8BF1F
:4065C0001A469046464509DA57F82600D5F80090FFF758FF49F826000136F3E7094B1B680BB1204698472868BDE8F883BDE8F8833846BDE8F8830020BDE8F883E0DAFF1F02
:406600006885FF1F6CA7FF1FFFF7C8BF2DE9F74F00F013F91C4E8046B146DFF874A0002444452DDA2046FEF7FFF838B33368204693F811B05C7400F057F8082804DDD9F808
:40664000003083F811B019E05AF824301A690F4B9A42F4D0204600F04AF8034600259D42EDDAEFB238460193FFF71AFF39460246204600F00BF90135019BF0E70134CFE76F
:4066800003B0BDE8F08F00BF4C85FF1F2C570200D4DAFF1F024B1B689B6B1868704700BF4C85FF1F024B1B68DB6B1868704700BF4C85FF1F10B50C46FEF7B6F828B1C36890
:4066C0002146BDE810409B6A184710BD002801DCFFF7F0BF00207047014608B50020FFF7E9FF20EAE07008BD0821FFF7EFBF0921FFF7ECBF024B1B68587CFFF7F8BF00BFC3
:406700004C85FF1F034B082153F82000C3689B6A184700BFD4DAFF1F10B5FEF785F828B1BDE81040C3680221DB6A184710BD0000024B1B68587CFFF7EFBF00BF4C85FF1FB4
:40674000024B53F820301B6958687047D4DAFF1F024B53F820301B6918687047D4DAFF1F0120FFF7B9BF0220FFF7B6BF014B83E80300704778A7FF1F014B1868704700BFEF
:4067800078A7FF1F014B5868704700BF78A7FF1F00283BD030F0010329D030F0030328D030F0070327D030F00F0326D030F01F0325D030F0FF0324D020F4FF7323F001033C
:4067C0000BB320F47F6323F00F03E3B120F4FF4323F07F03BBB1030C1B04A3B1830C9B049BB110F07F4F0CBF18202020704701207047022070470320704704207047052086
:40680000704708207047102070471220704708B5FFF7BEFF01280FD0831E062B09D9A0F10903072B07D911380F288CBF0020202008BD082008BD102008BD08B50020FDF774
:40684000F3FF003018BF012008BD00000D4B10B51C461A68517C0C4A52F8210040B1C36813B11B68042B01D00068F7E7FEF712F823680022DA6503F108025A61BDE8104068
:40688000FFF7AABD4C85FF1FD4DAFF1F37B50C461546FDF7C9FF019008B901200CE0C36810215B6A01A8984703460028F5D001982A4621469847002003B030BD37B50C46E0
:4068C0001546FDF7B1FF019008B901200CE0C3680B215B6A01A8984703460028F5D001982A4621469847002003B030BD37B50C461546FDF799FF019008B901200CE0C368A2
:406900000A215B6A01A8984703460028F5D001982A4621469847002003B030BD10B5074C2368186BFFF7AEFDFFF7C8FD2368586BFFF7A8FDBDE81040FFF7DCBD4C85FF1FBC
:40694000144B70B500241C60134B14481C60144B144D1C60144B04701C60144B44601C60134B84601C60134B21461C6018222B680C309847104B21461C60104B08221C608D
:406980000F482B6898472B682146BDE8704008220C48184710DBFF1FF8DAFF1F80A7FF1F18DBFF1F7085FF1F20DBFF1FE8DAFF1F08DBFF1F14DBFF1FF4DAFF1FECDAFF1FA9
:4069C0002CDBFF1F24DBFF1FF0B507460C46164685B002AD002F48D03846FDF7ADF9876A0146BB0701903AD526B13246284600F0DCFE02E003C885E8030029462046FDF76B
:406A0000AFFD60B317F0010F019B1CD13EB1B3F90220B6F902309342B8BF134601E0B3F90230B4F902209342B4F9062005DDBDF90A309A4213DB013B03E0BDF90E309A42F3
:406A40000DDDE3800BE0DF694FB138462A462146FFF7BAFF3846FDF765F9076AF4E7019B01A81F6AFDF776F9B4E705B0F0BD2DE9FF4106460F469046002502AC002E35D075
:406A80003046FDF759F9866A0146B207019027D5B8F1000F04D04246204600F086FE02E003C884E8030021463846FDF759FDB8B1F30705D4BDF80C30012501333B800FE033
:406AC000019BDE6966B1224639463046FFF7CFFF0028304618BF0125FDF724F9066AF1E7019B01A81E6AFDF735F9C7E7284604B0BDE8F081F0B505460E46174685B002AC2E
:406B00007DB32846FDF718F9856A0146AA07019021D527B13A46204600F047FE02E003C884E8030021463046FDF71AFD98B1EB0704D4BDF80830013BB3800CE0019BDD6910
:406B40004DB1284622463146FFF7D4FF2846FDF7E9F8056AF4E7019B01A81D6AFDF7FAF8CEE705B0F0BD000073B506460D462846FDF7E2F8836A014613F00204019004D105
:406B800001A8FDF7E7F8204612E0304600F0F0FD019B01A89C693CB9FDF7DCF8054B1868431B5842584103E0FDF7D4F82546DEE702B070BDECDAFF1F2DE9FF4106460C46BC
:406BC00000294CD0FDF7B8F800238461019003622046FDF7B1F8C76904AC44F8080D2FB9C66101A8FDF7B6F8204636E0019B38469D6AFDF7A1F80DF1100805F0080548F89E
:406C0000040D75B9836A1A070BD5019B01A81F62029BDE61FDF79EF82046FDF79BF840461BE02046FDF796F84046FDF793F83846FDF778F80390039B1C6A0CB91E620BE0D7
:406C40002046FDF76FF8002DF4D1836A1B07F1D5039B1E62019B1C6201A8FDF77BF804B0BDE8F08103460846B3F90220B3F90010FDF758BC114B30B51C6885B0626C05463E
:406C8000BAB11068516802AB03C30D4B186800B9A06CFDF751F804AC02A944F80C0DFFF7E1FF2046FDF756F802A8294600F060FD02A802F0D7F805B030BD00BF4C85FF1F9C
:406CC000E8DAFF1F1FB50E4B1B6893F854200AB10C4811E0986CFDF72FF802AC019003C884E8030001A8FDF735F8074B196811B12046FFF739FF2046FFF7BCFF04B010BDE2
:406D00004C85FF1F94A7FF1FE8DAFF1F13B5044600B3FDF711F8836A01909B0717D5406A40B10D4B1B689C4204D000F063FF019B00225A62204600F045FC04463CB1204635
:406D4000FFF7E4FF2046FCF7EDFF046AF6E701A8FDF700F802B010BD1CDBFF1FB0F90020B0F904309A4208DCB0F90230B0F906008342CCBF00200120704700207047000072
:406D80007FB50D4604461646FCF7CCFF816A01908B0733D52846FFF7E1FF78B340F601030B40012B2AD02046FCF7C6FF02AC024601902946204600F0F8FC2046FFF7CEFF31
:406DC000C8B144F22001019B9A6A03F10805114029B1224629462846FDF779FB0BE0324394E8030085E803009A62054A138801331380FDF72DFF01A8FCF7ACFF04B070BD06
:406E0000FCDAFF1F2022FFF7BBBFF0B50F4685B01546064648B3FCF78FFF836A04AC9B07024644F80C0D03D42046FCF793FF1CE0394602A800F0B9FC0028F5D02046FCF7AC
:406E400089FF2A4602A93046FFF79AFF304600F0B9FB04464CB120462A4602A9FFF7D5FF2046FCF75FFF046AF4E705B0F0BD2DE9FF41804617461D460C4681B30846FCF7B9
:406E80005BFF866A0246B307019025D5414602A800F08BFC00B340F601033340012B07D101992B460A6A02A88969FFF7E0FF04E02A4602A92046FFF763FF019BDC695CB154
:406EC000BC4209D020462A4602A9FFF79EFF2046FCF728FF046AF2E701A8FCF73BFF04B0BDE8F0812023FFF7C2BF1FB504AB43F8101D1946019000F027FB05B05DF804FB90
:406F000000230B8002884B8083889B1A8B804288C3889B1ACB807047F0B50F4687B00546002833D0FCF708FF866A0190B2072AD503C804ACF30384E8030002D52846FFF7C2
:406F4000E5FE5FB13868796802AB03C302A90198FFF788FE02A9204600F00AFC29462046FFF702FE78B140F601033340012B06D1019B20461A6A9969FFF7B4FF03E0214644
:406F80002846FFF73FFF01A8FCF7E4FE07B0F0BD0021FFF7C1BF00000B4B70B51A680546966C1C4608B9094B1D689564FFF714FA2846FCF7B7FE2368B0F90020DA64B0F922
:406FC000022030461A6570BD4C85FF1F00DBFF1F2DE9F74FDDF830A098464C4B05460E461746D3F80090BAF1000F24D1484B1B8833B3484B1B685A1C012A21D99A465046A6
:40700000FCF79AFEB0F90010B0F9022001900D4416441FB9B0F904305F1A0137B8F1000F05D1B0F90630C2EB030808F1010801A8FCF790FE04E0BAF1FF3FE0D14FF0000A87
:407040000F982C30FDF70CF80446002859D0304A0D9B0DF1080B49EA0309138801331380FCF76AFE0E9B826A03612B4B4BF8080D09EA0303058046803D4446441343013DA1
:40708000013E83628580C6805846FCF763FE234B186848B1FCF746FE05462046FCF742FE6B6943616C6100E01C6051462046FFF783FD19F0200F02D02046FFF76DFF19F07E
:4070C000010F1FBF164A13680133136019F0400F02D0204600F086FA19F0020F0DD02046FCF72AFE836A009043F0020383625846FCF730FE2046FFF74BFF01212046FFF72B
:40710000F4FE204603B0BDE8F08F00BF08DBFF1FE4DAFF1FECDAFF1F9F3F3F0000DBFF1F20DBFF1F1FB5089C0394079C0294069C019400240094FFF74BFF04B010BD000079
:407140002DE9FF415D4F3B6893F85400002800F0B1805B4A136A1446012B03DD013B13620020A7E0D36902AD013302F1140696E80300D36185E8030023B99389ADF808303C
:40718000D38910E0138BD28A0133ADF80A20B4F910201BB29A42ADF8083006DAA389ADF80830638B0133ADF80A30BDF90A20B4F91230DFF80C819A4204DD236A0020013B60
:4071C000236277E03B68986CFCF7B6FDBDF90820B8F90C3001909A421CD1B8F81230ADF80E30B8F81030ADF80C30344B1B689A6C5AB11046FCF796FD804600222946006AEB
:40720000FFF7E2FBD8F81820F2E7019B2946D869FFF7DAFBBDF80830ADF80C303B689A6C6AB11046FCF77EFD002280462946006AFFF71DFC0028EDD1D8F81820F0E7019BFC
