:400000000080002011000000191700001917000008B5044B1A6803F53F5302331A6001F095FB00BFFA46004010B5054C237833B9044B13B10448AFF300800123237010BD86
:400040009881FF1F00000000803C0000084B10B51BB108480849AFF300800848036803B910BD074B002BFBD0BDE81040184700BF00000000803C00009C81FF1F0881FF1FA9
:4000800000000000F0B587B000242546002001F0E3FE0028FAD001F0F7FE2A4B1860A0F5EA40303841F27073984204D9012002F0E5F900240125002DE8D0224B186802F02B
:4000C00077FF214B43F824000134A4B2B4F5805FDCD31E4E1E4D3046298800F00FFE1A4F184C3046394622792B7900F051FD194E384631462A6800F0B7FD00233360304605
:40010000296801AA04F1080300F0D8FD012002F03DF90020014602F093F90F4802F028F902A80E49A26803F0A1F902A802F020F9002002F0A3F94FF4FA7002F013F8A06879
:4001400007B0F0BDB481FF1FE481FF1FD481FF1F0C81FF1FE4A1FF1F843C0000883C000008B502F05FF9012002F010F901F058FE01F06AFEFFF786FFFCE700BFF0B4002557
:4001800019E032F81540A4086B1C32F813309B0850F8246050F8237040F8247040F82360013450F82460013350F8237040F8247040F823600235A942E3D8F0BC704700BFC0
:4001C0002DE9F04F95B0054612900C461391038801EB8302104610926F685A08119292008D1800EB020BDE088246B84637461BE1D4F8009063680193A2680292E168039128
:40020000DAF800008646DAF80460DAF808000490DAF80CC0CDF814C02B680E936A680692A9680791E8680890DBF800C0CDF824C0DBF804300A93DBF808200B92DBF80C10AF
:400240000C914846CDF834E0714602F001FE20600198314602F0FCFD60600298049902F0F7FDA06004F1100ECDF83CE00398059902F0EEFDE06048460D9902F0E7FD0D9089
:400280000198314602F0E2FD06460298049902F0DDFD01900398059902F0D8FD05900E9C2046099902F0D4FD286006980A9902F0CFFD686007980B9902F0CAFDA86005F12A
:4002C000100908980C9902F0C3FDE8600998214602F0BCFD02900A98069902F0B7FD03900B98079902F0B2FD04900C98089902F0ADFD0690D8F80040D8F804500D982146B8
:4003000002F0AEFE07903046294602F0A9FE08903046214602F0A4FE09900D98294602F09FFE06460798089902F092FDCAF800000998314602F08AFDCAF804000298294696
:4003400002F08EFE07900398214602F089FE06460398294602F084FE05460298214602F07FFE04460798314602F070FDCBF800002846214602F06CFDCBF80400D8F80840D7
:4003800008F110020292D8F80C500198214602F067FE0390DDF814804046294602F060FE06464046214602F05BFE80460198294602F056FE01900398314602F049FDCAF8A5
:4003C00008000AF110064046019902F03FFDCAF80C000498294602F043FE8046DDF818A05046214602F03CFE01905046294602F037FE05460498214602F032FE8246404693
:40040000019902F023FDCBF808000BF110042846514602F01DFDCBF80C00013FDDF80880B246A3464D460F9C002F7FF4E1AEBDF8444013982146129D6A68022300F0E4FCA7
:40044000109821466A68022300F0DEFC15B0BDE8F08F00BF2DE9F04F9FB01C900E46189104886408A3000A461A441992D11808461A9119440D461B91A2F10408071FA5F12A
:40048000040E7146CDF80CE0194401911C9BD3F804B063081D93366852F824503046294602F0D6FC81463046294602F0CFFC8246189E76681A9D6D683046294602F0C8FC91
:4004C00005903046294602F0C1FC0690199AD2F804E0CDF810E07046CDF81CA0514602F0B7FC1B9E7568294602F0B0FC8246189951F824600698314602F0A8FC1A9951F824
:4005000024E0CDF808E0714602F0A2FC08904846314602F09BFC029902F098FC09900598049902F093FC294602F090FC0A900798049902F08BFC0146284602F089FC04902C
:400540000698314602F084FC029902F07FFC05464846314602F07CFC0146029802F078FCDDF8609049F8080B199E7068059902F06FFC1B9B596802F06BFC1899486041F8E6
:4005800024A0199E06F1080ADDF820E0C6F804E0DDF824E046F824E01A990B4601F1080202920A995960049943F824101B9B03F108065D600BF1080209920BF110020A9269
:4005C0000BF1180B1D9B023B5B080493CDF82CB0C346B8463746DFE1D9F80050029E34682846214602F034FC06902846214602F02DFC0790D9F80450029674682846214629
:4006000002F026FC08902846214602F01FFC0446DAF8043005931846079902F019FC7E68314602F013FC0D90DAF800500C942046294602F00BFC3C68214602F009FC0E9014
:400640000698294602F002FC214602F0FFFB0F900898059902F0FAFB314602F0F7FB10900798059902F0F2FB0146304602F0F0FB05900C98294602F0EBFB214602F0E6FBFB
:4006800011900698294602F0E3FB0146204602F0DFFB4B4643F8080B0C93DAF80400089902F0D6FB796802F0D3FBC9F804005BF8045C039E56F8044C2846214602F0C8FBA9
:4006C00006902846214602F0C1FB0790DBF80050039634682846214602F0BAFB08902846214602F0B3FB8146D8F80050019B1C682846214602F0AAFB1390079902F0A8FB1E
:40070000149058F8046CCDF848904846314602F09DFB019A52F8049C494602F099FB15900698314602F092FB494602F08FFB16900898294602F08AFB214602F087FB17909D
:400740001398079902F082FB13904846314602F07DFB129902F07AFB07900898294602F077FB0146204602F073FB5C4644F80809089458F8040C069902F06AFB019951F8C0
:40078000041C02F065FB4BF8040C099B1D4655F8084B06955D680D9E3046214602F060FC0990DDF838B05846294602F059FC81465846214602F054FC83463046294602F03F
:4007C0004FFC06460998494602F042FB534643F8080B09935846314602F038FBCAF80400DDF854A05046294602F03AFC8146DDF850B05846214602F033FC0646584629466F
:4008000002F02EFC05465046214602F029FC04464846314602F01AFB424642F808090D922846214602F014FB48F8040C0A9C23462568646803F1100ECDF828E00F9E3046E5
:40084000294602F00DFC8246DDF840B05846214602F006FC80465846294602F001FC81463046214602F0FCFB06465046414602F0EFFADDF80880C3464BF8080B4846314634
:4008800002F0E4FAC8F80400DDF85CA00AF10040294602F0E5FB8046DDF858904846214602F0DEFB06464846294602F0D9FB05465046214602F0D4FB04464046314602F0C3
:4008C000C5FADDF80C904E4646F808092046294602F0BCFA49F8040C0B9D2B462C686D6803F1180ECDF82CE00598214602F0B8FB8246DDF844804046294602F0B1FB814646
:400900004046214602F0ACFB80460598294602F0A7FB02905046494602F09AFAB94649F8080B4046029902F091FA78600798294602F096FB8046DDF84CA05046214602F0BE
:400940008FFB07465046294602F08AFB05460798214602F085FB82464046394602F076FA019F3C4644F808092846514602F070FA47F8040C0499013904914F46CDF808B095
:40098000DDF824A0069D099501940396DDF83480DDF820B0DDF83090049B002B7FF41CAEDDF82CB03E46D9F80050029F3C682846214602F04DFA01902846214602F046FA24
:4009C0008046D9F8045002977C682846214602F03FFA03902846214602F038FA0746DAF804502846CDF81C80414602F031FAD6F80480414602F02AFA0490DAF800400897E9
:400A00003846214602F022FA3768394602F020FA05900198214602F019FA394602F016FA06900398294602F011FA414602F00EFA0B900798294602F009FA0146404602F003
:400A400007FA07900898214602F002FA394602F0FDF980460198214602F0FAF90146384602F0F6F9C9F80000DAF80400039902F0EFF9716802F0ECF9C9F8040009990D6898
:400A80004C680498294602F0EBFA81460598214602F0E6FA07460598294602F0E1FA05460498214602F0DCFA04464846394602F0CFF9CAF800002846214602F0C7F9CAF8AB
:400AC00004000A990D684C680698294602F0C8FA0746DDF82CA05046214602F0C1FA81465046294602F0BCFA05460698214602F0B7FA04463846494602F0AAF9029F386041
:400B00002846214602F0A2F97860DBF80050DBF80440DDF81CA05046294602F0A1FA07464046214602F09CFA81464046294602F097FA05465046214602F092FA044638468F
:400B4000494602F085F930602846214602F07EF97060BDF87440189821461C9E7268042300F052F9199821467268042300F04CF91A9821467268042300F046F91B982146B1
:400B80007268042300F040F91FB0BDE8F08F00BF2DE9F84307460C469046994605882E46012A0AD10431002205E00B6803F1004341F8083B0132B242F7D3B5F5807F1FD0C2
:400BC0000AD8202D1CD002D8102D14D023E0402D1BD0802D0FD01EE0B5F5806F0BD003D8B5F5007F11D016E0B5F5006F08D0B5F5805F0AD00FE038462146FFF7E1FA0AE0C8
:400C000038462146FFF726FC05E0204629467A68012300F0F9F8B9F1000F04D02046B989BA68FFF7ABFAB8F1010F1AD1284602F0BFF901464FF07E5002F0C6FA07460025F0
:400C40000DE02068394602F00BFA2060606800F10040394602F004FA606008340135B542EFD3BDE8F88300BF2DE9F0410E4615461FE0044654F8081B4768084602F0F0F951
:400C800080463846394602F0EBF90146404602F0DFF88046371D002102F094FB20B1404601F0F8FB306001E000233360013D3E462046002DDDD1BDE8F08100BF2DE9F84FB2
:400CC000884692469946031D06684C1E00270CE01D1DD3F800B03046594602F05FFB10B1C4EB08075E46013C2B46002CF0D1CAF80060C9F80070BDE8F88F00BF01800023AE
:400D00004360B1F5807F3DD00AD8202955D002D810295BD063E0402946D080293BD05EE0B1F5806F1CD003D8B1F5007F21D056E0B1F5006F0BD0B1F5805F50D1294B9A8947
:400D400082819A6882605B684360002048E0264B9A8982819A6882605B68436000203FE0224B9A8982819A6882605B684360002036E01F4B9A8982819A6882605B684360D1
:400D800000202DE01B4B9A8982819A6882605B684360002024E0184B9A8982819A6882605B68436000201BE0144B9A8982819A6882605B684360002012E0114B9A898281BB
:400DC0009A6882605B684360002009E00D4B9A8982819A6882605B684360002000E0FF2040B270478C3C00009C3C0000AC3C0000BC3C0000CC3C0000DC3C0000EC3C000048
:400E0000FC3C00000C3D00002DE9F04FAFB02A922D93269125918346259BDE080024A146B04609EB08031F464344009303EB080A0AEB080404EB080101914144029141447E
:400E400003914FEAC90008905BF83960E50009955BF834503046294601F0FAFF07903046294601F0F3FF04903A46FF000A970F925BF83260019DEF000B975BF83550304619
:400E8000294601F0E5FF05903046294601F0DEFF1190009BDD000C955BF83370029EF3000D935BF836503846294601F0D1FF10903846294601F0CAFF06904FEACA065BF803
:400EC0003A50039AD1000E915BF832702846394601F0BEFF12902846394601F0B7FF1390079D2846109F394601F0B0FF07902846394601F0ADFF07460598129D294601F0F8
:400F0000A5FF12900598294601F0A2FF05463846294601F09DFF4BF839003846294601F095FF4BF83400089C043414945BF80450099F04375BF807402846214601F088FFAE
:400F400005902846214601F081FF08900A9C043415945BF804500B9C043416945BF804402846214601F074FF09902846214601F06DFF0A900C9D04355BF805E00D990C1D29
:400F80005BF804C0CDF830E07046CDF834C0614601F05EFF0B900C980D9901F057FF0C9004365BF806E00E99043117915BF801C0CDF838E07046CDF840C0614601F048FFD7
:400FC0000D900E98109901F041FF109005980B9901F03CFF0E9005980B9901F039FF059009980D9901F032FF0B9009980D9901F02FFF86460598CDF824E0714601F028FFBF
:4010000014994BF801000598099901F01FFF4BF8070007980B9F394601F01AFF009B4BF833000798394601F011FF029B4BF833000E98129F394601F009FF4BF805000E9855
:40104000394601F005FF4BF80400119D2846139C214601F0FBFE6E4902F002F800902846214601F0F5FE6A4901F0FAFF04460A98109F394601F0EAFE654901F0F1FF054643
:401080000A98394601F0E4FE614901F0E9FF07460498009901F0DAFE02900498009901F0D7FE00900698214601F0D0FE05900698214601F0CDFE06900898294601F0C6FEDD
:4010C00004460898294601F0C3FE05460C98394601F0BCFE04900C98394601F0B9FE07460098394601F0B4FE0F994BF831000098394601F0ABFE039A4BF832000298049950
:4011000001F0A6FE019F4BF837000298049901F09DFE4BF83A002846069F394601F096FE159B4BF803002846394601F091FE17994BF801002046059D294601F087FE169BB4
:401140004BF803002046294601F082FE4BF80600259B9944269B4B453FF663AE4646072E40F2D48201232C9300232B935C46C3462B9B2D9A13441D462B9303EB4300C1189F
:40118000CA18D3185F192A9E2B9D56F835E0CDF848E02D0156F805E0CDF84CE056F830E0CDF89CE056F831E0CDF850E056F832E0CDF854E056F833E0CDF858E056F837E0A9
:4011C000CDF85CE0B6462B9E0EEBC606D6F804E0CDF860E004352A9E56F805E0CDF864E006EBC00040681A9006EBC10149681B9106EBC2025268289206EBC3035B682993FE
:4012000006EBC7035B681C932C9DD946AB4601E0F304353F0BEB0903009303EB090101914944029101EB090637464F44039707EB09000490484405904FEACB0554F83B70C8
:401240004FEAC6081D9654F836603846314601F0FFFD09903846314601F0F8FD0690009AD3000D9354F83270039EF3000E9354F836603846314601F0EBFD0790384631467A
:4012800001F0E4FD1F90019BDF000F9754F833A0049FF900109154F837605046314601F0D7FD0A905046314601F0D0FD08900299CF0054F83160059AD100119154F832A007
:4012C0003046514601F0C4FD0B903046514601F0BDFD2090099E3046DDF828A0514601F0B5FD09903046514601F0B2FD824607980B9E314601F0AAFD0A900798314601F032
:40130000A7FD06465046314601F0A2FD44F83B005046314601F09AFD07900435665908F1040ECDF884E054F80E803046414601F08FFD0B903046414601F088FD0C900D9BAB
:401340001E1D229654F806800E9B1E1D54F806A04046514601F07CFD0D904046514601F075FD0E900F9B0433239354F8038010990A1D249254F802A04046514601F068FD43
:401380000F904046514601F061FD1090043754F807A0119901F1040854F808E05046CDF878E0714601F054FD119050461E9901F04DFD1E900B980F9901F048FD82460B9809
:4013C0000F9901F045FD0B900D98119901F03EFD0F900D98119901F03BFD0D9009980F9901F036FD119009980F9901F02FFD09900B980D9901F02CFD60510B980D9901F0ED
:4014000025FD054650460A9901F020FD0B9050460A9901F01DFD82461498079901F020FE0A901B98294601F01BFE0D901498294601F016FE0F901B98079901F011FE054636
:401440000A980D9901F004FD1D9B44F833000F98294601F0FBFC219D60511398119901F0FFFD079019980B9D294601F0F9FD0A901398294601F0F4FD0B901998119901F099
:40148000EFFD054607980A9901F0E2FC019B44F833000B98294601F0D9FC239D60511698099901F0DDFD0190299D2846514601F0D7FD07901698514601F0D2FD8246284682
:4014C000099901F0CDFD05460198079901F0C0FC049B44F833005046294601F0B7FC249BE050DDF87CA05046209D294601F0AEFC884901F0B5FD01905046294601F0A8FCCB
:40150000844901F0ADFD05460E98DDF878A0514601F09CFC7F4901F0A3FD04900E98514601F096FC7B4901F09BFD82460698019901F08CFC07900698019901F089FC0190FC
:401540000898294601F082FC06900898294601F07FFC08900C98049901F078FC05460C98049901F075FC04901098514601F06EFC09901098514601F06BFC8246019851465A
:4015800001F066FC0A900198514601F05FFC82460798099901F05CFC01900798099901F055FC07900498089901F050FC09900498089901F04DFC04902846069901F046FC67
:4015C00008902846069901F043FC069012980A9901F046FD0B901898099901F041FD05461298099901F03CFD099018980A9901F037FD0A900B98294601F02AFC009A44F878
:40160000320009980A9901F021FC229D60511798514601F025FD00901C98049901F020FD05461798049901F01BFD04901C98514601F016FD82460098294601F009FC059A87
:4016400044F832000498514601F000FC44F808001598019901F004FD0090289D2846DDF82080414601F0FCFC82461598414601F0F7FC80462846019901F0F2FC0546009847
:40168000514601F0E5FB039B44F833004046294601F0DCFBA051DDF89C804046079901F0DFFC82461A98069D294601F0D9FC06464046294601F0D4FC80461A98079901F0C7
:4016C000CFFC05465046314601F0C2FB029944F831004046294601F0B9FBE051259B9B44269B5B453FF696ADCB462C9B01332C934B45FFF43DAD4E46A3462D9BDB009BB229
:401700002D93CDF89490072E3FF686AB2FB0BDE8F08F00BFF304353FFEE700BF08B5094B1A681044084BC31A802B02DC054B186005E001F05BFE0C2303604FF0FF321046A5
:4017400008BD00BF1481FF1FF0B1FF1F08B5104E104D16E029686B68AC68002204E051F8040B43F8040B0432A242F8D1E868002203E0002143F8041B04328242F9D1103529
:40178000013E002EE6D101F037FEFEF7E9FCFEE7010000001C92010008B5124A124B1A60124A136843F40073136000230AE0032B03D80F4A52F8231000E00E490E4A42F8D7
:4017C000231001332F2BF2D90C4B1A780C4B1A70094A0C4B1A6000F0E9F800220A4B1A6008BD00BF0004FA050CED00E014ED00E000000000191700000080FF1FBC7600402C
:401800000481FF1F08ED00E00081FF1FFEE700BFF0B40022174611E050F82760F3B226F0FF0608E001EB420511F812406D78A5550132013BDBB2002BF4D101370C2FEBD9D2
:40184000F0BC70470A4B1B78DBB203F00701094A11701B09013213704022074B1A70042203F693131A704422A3F28A231A707047CF0100496E5800406D51004008B50A4647
:40188000002101F0EAFD08BD08B501F0DBFD08BD38B500242C4B1C80502202331A702B482B490422FFF7F0FF02222A4B1A7008224FF040231A70032103F500731970264BD6
:4018C0001B78DBB225490B70254B1A8041F25122023B1A8019250CE0224B1B7803F0010343EA440404F003044FF4F07000F028FC013D0DB1032CEFD115B90320FFF786FFB9
:40190000194B4FF480721A8007221A70002217490A704820023108701A700222033B1A7004220A331A70124A137843F001031370013A137843F001031370013A137843F035
:401940008003137038BD00BF8040004000410040740000480043004008010049A146004022420040254200400440004006400040A2430040012807D8044B53F820201844BC
:40198000017A13780B431370704700BF74910100012808D8044B53F820201844017A137823EA0103137070477491010070B572B6284A137843F00403137000240AE02649BA
:4019C00063001A1952000A44D068118AFFF756FF0134E4B2082CF2D94FF090401F49FFF717FF0A221E4B1A701E4A137843F0020313701032137843F0020313701A4C2378F0
:401A000043F040032370A2F58632513A137843F010031370154816490822FFF735FF154815490822FFF730FF144A137843F008031370134E01253570FFF72AFF8123337019
:401A4000104B1D70FFF7FEFE0F4821460E22FFF71BFF70BDE846004074910100340000488358004003500140A04300402251004064000048625100406C00004822430040F4
:401A80000048004004000840B043004010B59DF80840012C4AD10138092826D8DFE800F00525250525250D15251D0F2B02D9214800781BE02048007818E00F2B02D91F48CF
:401AC000007813E01E48007810E00F2B02D91D4800780BE01C48007808E00F2B02D91B48007803E01A48007800E0002040B201EB401101FB02F1C90B8AB20D2B0BD8C3F162
:401B00000E0289B211418AB2124901EB8401013301F8023C05E00F4B03EB84030F2103F8021C013C0B4B23F8242010BD002000F017FB10BD180100491C01004919010049BF
:401B40001D0100491A0100491E0100491B0100491F010049C081FF1FF8B5074600F0F8FA06460D4D2B7843F003032B700B4C237843F0030323700A4B1F70032000F008FB54
:401B80002B7803F0FC032B70237803F0FC032370304600F0E1FAF8BDF8460040F946004092580040F8B50022314B1A7101285DD13822304B1A70042202331A7006220133EB
:401BC0001A70002401331C7001331C703F2201331A7002331C7001331C7001331C7001250A331D70502203F527631A700A2201331A702C2201331A7001331C704422033397
:401C00001A70482201331A7001331D70022702331F70122201331A70282201331A70EB2201331A705220FFF797FF5822124B1A7001331C70052605331E7001331F70013378
:401C40001C7001331C70204600F066F943F233320A4B1A603046294600F082F91820294600F002FA1D20064900F09CFAF8BD00BFC081FF1F004E004094580040E4B1FF1FC5
:401C8000F51E0000F0B583B0284D01272F70284E00247471102000F051F9102000F0D2F91D20072100F092FA0422224B1A7001331C7007331C70204A137843F018031370DF
:401CC0001E4B1C7003F2F5231C7001331C700A22A3F209331A7001331C7002331C705B2205331A705E2201331A7004331C701422A3F68C231A700097022048F6F0514FF4CB
:401D000000421023FFF7C2FE2B7806EB830313F8022C0B4B1A702B78013B36F82320094B1A802878FFF73EFF03B0F0BD1881FF1FC081FF1F96580040075B004093580040C3
:401D40000E4E00400C4E004070B500F001FA06462A4B1B782A4B1A7842F001021A701A7842F010021A7010331A7842F001021A701A7842F010021A70224D2B7843F0020365
:401D80002B70214C237843F0020323701F4A137843F003031370032000F0FAF92B7803F0FD032B70237803F0FD032370184A137843F0060313707A22164B1A70164A13788F
:401DC00043F0010313701032137843F0010313700F3A137843F0010313701032137843F0010313704FF000530C4A1360A2F5C0721360304600F0B0F970BD00BF1881FF1F44
:401E0000AA430040F8460040F9460040915800407758004082580040A143004080E200E008B5084B9B794BB9064BDB7913F0FF0F01D1FFF727FF0122024B9A71FFF784FF00
:401E400008BD00BFC081FF1F024A137843F0010313707047004E0040094B1B7913F0FF0F03D0074B5B79DBB203E0064B1B7803F00103012B01D00028EED01846704700BFB5
:401E8000C081FF1F014E0040154B1B7803F00303012B07D8134B1888023B1B889BB243EA004013E0022B0AD10E4B1888023B1B7843EA00430C4A107843EA002006E00B4B0A
:401EC000188883B2074A108843EA0040084B1B7913F0FF0F02D00022054B5A71704700BF144E0040124E0040114E0040104E0040C081FF1F704700BF10B5002404E02046B3
:401F0000FFF746FD0134E4B2012CF8D9FF22014B1A7010BD1981FF1F10B50446FFF7ECFF2046FFF727FD014B1C7010BD1981FF1F014B188880B2704780400040034B1A78A1
:401F400000F0F80010431870704700BF82400040024B187800F00700704700BF8240004070B505460E46FFF7F3FF0446FFF7E0FF854256D02B4B1B7803F0010294B900B125
:401F800085B938B9284B1D80284A137803F0BF03137070BD254A137843F040031370224B1D8070BD22B3002321490B7001240F310C7004310B700C390B7803F07F030B7030
:401FC0001A4B1B7813F0080F00D08DB9194B18800721013B1970164B1B7813F0010FFAD110490B7803F0FE030B700021104B19700C4B1B7813F0010F0DD00E4B1D800EB11F
:40200000032200E001220A4B1A70094B1B7813F0010FFAD170BD044B1D8002490B7813430B7070BDA243004080400040824000400140004002400040014B188880B27047F0
:4020400000410040034B1A7800F0F80010431870704700BF02410040024B187800F00700704700BF0241004070B505460E46FFF7F3FF0446FFF7E0FF854256D02B4B1B78B5
:4020800003F0010294B900B185B938B9284B1D80284A137803F0BF03137070BD254A137843F040031370224B1D8070BD22B3002321490B70012413310C7004390B700839A6
:4020C0000B7803F07F030B701A4B1B7813F0080F00D08DB9194B18800721013B1970164B1B7813F0010FFAD110490B7803F0FE030B700021104B19700C4B1B7813F0010F3D
:402100000DD00E4B1D800EB1032200E001220A4B1A70094B1B7813F0010FFAD170BD044B1D8002490B7813430B7070BDA14300400041004002410040014000400240004031
:402140000230800803D000BF01380046FCD17047EFF3108072B6704780F31088704700BF01BE704710B5044605E0084B1868FFF7E7FFA4F50044B4F5004FF6D8034B586874
:4021800000FB04F0FFF7DCFF10BD00BF1C81FF1F08B5034B1B7A03FB00F0FFF7D1FF08BD1C81FF1F70B504460E46074B1D681F2802D90020FFF7D4FF04F01F04103455F8F7
:4021C000240045F8246070BD08ED00E038B504460D46072902D90020FFF7C2FF1F2C02D90020FFF7BDFF04F01F0000F1604000F564406D01EDB2057038BD00BF10B50B4C05
:40220000237803F09F032370237803F0F00323702378184340F0100020700120FFF7B8FF237803F0EF03237010BD00BF2051004038B505460E4C237843F020032370237832
:4022400003F0BF0323700020FFF7A2FF237803F0F003237023781D4345F0100525700120FFF796FF237803F0EF03237038BD00BF2051004070B5354B1A7802F08002D2B21E
:402280001A7033490A7802F0F00242F00F020A7001310A7802F0F0020A7001310A7802F0F0020A701A7802F0DF021A701A7842F040021A704FF4CA760020FFF769FF234DE1
:4022C0002B7843F010032B700120FFF761FF214B1C78E4B22B7803F0EF032B700020FFF757FF04F00804E4B22B7843F010032B700120FFF74DFF2B7803F0EF032B7014B951
:402300000A20FFF745FF013E0CB1002ED4D10F4A137803F0BF031370137803F08003DBB213700232137803F0F00313700132137803F0F00343F00F0313700132137803F0F8
:40234000F00343F00F03137070BD00BF20510040225100402151004010B50446FFF78AFF2009FFF765FF04F00F00FFF761FF10BD38B505460078012404E0FFF7EDFF285D49
:402380000134E4B20028F8D138BD00BF10B50446FFF770FF2009FFF731FF04F00F00FFF72DFF10BD08B52820FFF7DCFE0320FFF725FF0520FFF7D6FE0320FFF71FFF0F2091
:4023C000FFF7D0FE0320FFF719FF0120FFF7CAFE0220FFF713FF0520FFF7C4FE0620FFF7D5FF0E20FFF7D2FF2C20FFF7CFFF0820FFF7CCFF0120FFF7C9FF0C20FFF7C6FF5E
:402400000320FFF7C3FF0520FFF7ACFE08BD00BF08B50C20FFF7BAFF0122014B1A7008BDC881FF1F08B5054B5B7823B9FFF7BAFF0122024B5A70FFF7EBFF08BDC881FF1F0A
:4024400008B5032819D8DFE800F002070D1381F08000FFF79BFF08BDA1F14000C0B2FFF795FF08BDA1F16C00C0B2FFF78FFF08BDA1F12C00C0B2FFF789FF08BD044A1378C5
:4024800003F0FB03800000F004001843107070476051004070B58AB0064600F049F8224D044695F90030013308D0304600F096F820B13046002100F071FF10B920460AB030
:4024C00070BD1A4901220023304601910092089300F002FA2C78CDE90401CDE902017CB900220023CDE90623684600F075F888B1089BA3B9DDE9060100F054FC0AB070BD3D
:402500000020002102460B4600F064FB022CCDE90601E9D100F06AFF21230360E8E700F065FF089B0360E5E72C81FF1FB891010020F00042B2F1FF4F70B5034604462DD2C9
:402540005AB300283DDBB2F5000F4FEAE0502CD3002631467F38C3F31603C20743F4000348BF5B0040105B0019244FF080728D189D4202DC5B1BA9181644013C4FEA4303A0
:402580004FEA5202F3D113B106F001031E44761006F17C5606EBC05070BD70BD014600F05FFD214600F054FC70BD14F400020FD15B00190202F10102FAD5C2F1010210446A
:4025C000C6E7014600F042FC014600F0FDFD70BD01221044BCE700BF0020704730F0004001D102207047A0F50003B3F1FE4F01D204207047054B421E9A4201D8032070472A
:40260000A0F1FF40B0FA80F040097047FEFF7F0081F0004102E000BF83F0004330B54FEA41044FEA430594EA050F08BF90EA020F1FBF54EA000C55EA020C7FEA645C7FEA5C
:40264000655C00F0E2804FEA5454D4EB5555B8BF6D420CDD2C4480EA020281EA030382EA000083EA010180EA020281EA0303362D88BF30BD11F0004F4FEA01314FF4801CB4
:402680004CEA113102D0404261EB410113F0004F4FEA03334CEA133302D0524263EB430394EA050F00F0A780A4F10104D5F1200E0DDB02FA0EFC22FA05F2801841F1000186
:4026C00003FA0EF2801843FA05F359410EE0A5F120050EF1200E012A03FA0EFC28BF4CF0020C43FA05F3C01851EBE37101F0004507D54FF0000EDCF1000C7EEB00006EEBA6
:402700000101B1F5801F1BD3B1F5001F0CD349085FEA30004FEA3C0C04F101044FEA445212F5800F80F09A80BCF1004F08BF5FEA500C50F1000041EB045141EA050130BD44
:402740005FEA4C0C404141EB010111F4801FA4F10104E9D191F0000F04BF01460020B1FA81F308BF2033A3F10B03B3F120020CDA0C3208DD02F1140CC2F10C0201FA0CF0E2
:4027800021FA02F10CE002F11402D8BFC2F1200C01FA02F120FA0CFCDCBF41EA0C019040E41AA2BF01EB0451294330BD6FEA04041F3C1CDA0C340EDC04F11404C4F1200234
:4027C00020FA04F001FA02F340EA030021FA04F345EA030130BDC4F10C04C4F1200220FA02F001FA04F340EA0300294630BD21FA04F0294630BD94F0000F83F4801306BF8C
:4028000081F480110134013D4EE77FEA645C18BF7FEA655C29D094EA050F08BF90EA020F05D054EA000C04BF1946104630BD91EA030F1EBF0021002030BD5FEA545C05D1F8
:402840004000494128BF41F0004130BD14F580043CBF01F5801130BD01F0004545F0FE4141F470014FF0000030BD7FEA645C1ABF194610467FEA655C1CBF0B46024650EA41
:40288000013406BF52EA033591EA030F41F4002130BD00BF90F0000F04BF0021704730B54FF4806404F132044FF000054FF0000150E700BF90F0000F04BF0021704730B531
:4028C0004FF4806404F1320410F0004548BF40424FF000013EE700BF42004FEAE2014FEA31014FEA02701FBF12F07F4393F07F4F81F06051704792F0000F14BF93F07F4F9F
:40290000704730B54FF4607401F0004521F0004120E700BF50EA010208BF704730B54FF000050AE050EA010208BF704730B511F0004502D5404261EB41014FF4806404F1DF
:4029400032045FEA915C3FF4DCAE4FF003025FEADC0C18BF03325FEADC0C18BF033202EBDC02C2F1200300FA03FC20FA02F001FA03FE40EA0E0021FA02F11444C1E600BFCA
:4029800070B54FF0FF0C4CF4E06C1CEA11541DBF1CEA135594EA0C0F95EA0C0F00F0DEF82C4481EA030621EA4C5123EA4C5350EA013518BF52EA033541F4801143F48013EB
:4029C00038D0A0FB02CE4FF00005E1FB02E506F00042E0FB03E54FF00006E1FB03569CF0000F18BF4EF0010EA4F1FF04B6F5007F64F5407404D25FEA4E0E6D4146EB0606F4
:402A000042EAC62141EA55514FEAC52040EA5E504FEACE2EB4F1FD0C88BFBCF5E06F1ED8BEF1004F08BF5FEA500E50F1000041EB045170BD06F0004646EA010140EA0200A7
:402A400081EA0301B4EB5C04C2BFD4EB0C0541EA045170BD41F480114FF0000E013C00F3AB8014F1360FDEBF002001F0004170BDC4F10004203C35DA0C341BDC04F11404AE
:402A8000C4F1200500FA05F320FA04F001FA05F240EA020001F0004221F0004110EBD37021FA04F642EB06015EEA430E08BF20EAD37070BDC4F10C04C4F1200500FA04F3A8
:402AC00020FA05F001FA04F240EA020001F0004110EBD37041F100015EEA430E08BF20EAD37070BDC4F1200500FA05F24EEA020E20FA04F301FA05F243EA020321FA04F0D6
:402B000001F0004121FA04F220EA020000EBD3705EEA430E08BF20EAD37070BD94F0000F0FD101F00046400041EB010111F4801F08BF013CF7D041EA060195F0000F18BF1A
:402B4000704703F00046520043EB030313F4801F08BF013DF7D043EA0603704794EA0C0F0CEA135518BF95EA0C0F0CD050EA410618BF52EA4306D1D181EA030101F000411C
:402B80004FF0000070BD50EA410606BF1046194652EA430619D094EA0C0F02D150EA013613D195EA0C0F05D152EA03361CBF104619460AD181EA030101F0004141F0FE411E
:402BC00041F470014FF0000070BD41F0FE4141F4780170BD70B54FF0FF0C4CF4E06C1CEA11541DBF1CEA135594EA0C0F95EA0C0F00F0A7F8A4EB050481EA030E52EA03357E
:402C00004FEA013100F088804FEA03334FF0805545EA131343EA12634FEA022245EA111545EA10654FEA00260EF000419D4208BF964244F1FD0404F5407402D25B084FEAF2
:402C40003202B61A65EB03055B084FEA32024FF480104FF4002CB6EB020E75EB030E22BFB61A754640EA0C005B084FEA3202B6EB020E75EB030E22BFB61A754640EA5C003E
:402C80005B084FEA3202B6EB020E75EB030E22BFB61A754640EA9C005B084FEA3202B6EB020E75EB030E22BFB61A754640EADC0055EA060E18D04FEA051545EA16754FEA0B
:402CC00006164FEAC30343EA52734FEAC2025FEA1C1CC0D111F4801F0BD141EA00014FF000004FF0004CB6E711F4801F04BF01430020B4F1FD0C88BFBCF5E06F3FF6AFAE53
:402D0000B5EB030C04BFB6EB020C5FEA500C50F1000041EB045170BD0EF0004E4EEA113114EB5C04C2BFD4EB0C0541EA045170BD41F480114FF0000E013C90E645EA060EB2
:402D40008DE60CEA135594EA0C0F08BF95EA0C0F3FF43BAF94EA0C0F0AD150EA01347FF434AF95EA0C0F7FF425AF104619462CE795EA0C0F06D152EA03353FF4FDAE104670
:402D8000194622E750EA410618BF52EA43067FF4C5AE50EA41047FF40DAF52EA43057FF4EBAE12E74FEA4102B2F1E04324BFB3F5001CDCF1FE5C0DD901F0004C4FEAC00283
:402DC0004CEA5070B2F1004F40EB830008BF20F00100704711F0804F21D113F13872BCBF01F00040704741F480114FEA5252C2F11802C2F1200C10FA0CF320FA02F018BFA0
:402E000040F001004FEAC1234FEAD32303FA0CFC40EA0C0023FA02F34FEA4303CCE77FEA625307D150EA01331EBF4FF0FE4040F44000704701F0004040F0FE4040F40000DA
:402E4000704700BF80F0004002E000BF81F0004142001FBF5FEA410392EA030F7FEA226C7FEA236C6AD04FEA1262D2EB1363C1BFD218414048404140B8BF5B42192B88BF02
:402E8000704710F0004F40F4000020F07F4018BF404211F0004F41F4000121F07F4118BF494292EA030F3FD0A2F1010241FA03FC10EB0C00C3F1200301FA03F100F000438A
:402EC00002D5494260EB4000B0F5000F13D3B0F1807F06D340084FEA310102F10102FE2A51D2B1F1004F40EBC25008BF20F0010040EA03007047490040EB000010F4000F6D
:402F0000A2F10102EDD1B0FA80FCACF1080CB2EB0C0200FA0CF0AABF00EBC25052421843BCBFD0401843704792F0000F81F4000106BF80F400000132013BB5E74FEA41030B
:402F40007FEA226C18BF7FEA236C21D092EA030F04D092F0000F08BF0846704790EA010F1CBF0020704712F07F4F04D1400028BF40F00040704712F100723CBF00F5000047
:402F8000704700F0004343F0FE4040F4000070477FEA226216BF08467FEA23630146420206BF5FEA412390EA010F40F4800070474FF0000304E000BF10F0004348BF404229
:402FC0005FEA000C08BF704743F0964301464FF000001CE050EA010208BF70474FF000030AE000BF50EA010208BF704711F0004302D5404261EB41015FEA010C02BF844603
:403000000146002043F0B64308BFA3F18053A3F50003BCFA8CF2083AA3EBC25310DB01FA02FC634400FA02FCC2F12002BCF1004F20FA02F243EB020008BF20F001007047FA
:4030400002F1200201FA02FCC2F1200250EA4C0021FA02F243EB020008BF20EADC7070474FF0FF0C1CEAD0521EBF1CEAD15392EA0C0F93EA0C0F6FD01A4480EA010C4002D6
:4030800018BF5FEA41211ED04FF0006343EA501043EA5111A0FB01310CF00040B1F5000F3EBF490041EAD3715B0040EA010062F17F02FD2A1DD8B3F1004F40EBC25008BF02
:4030C00020F00100704790F0000F0CF0004C08BF49024CEA502040EA51207F3AC2BFD2F1FF0340EAC250704740F400004FF00003013A5DDC12F1190FDCBF00F00040704755
:40310000C2F10002410021FA02F1C2F1200200FA02FC5FEA310040F1000053EA4C0308BF20EADC70704792F0000F00F0004C02BF400010F4000F013AF9D040EA0C0093F015
:40314000000F01F0004C02BF490011F4000F013BF9D041EA0C018FE70CEAD15392EA0C0F18BF93EA0C0F0AD030F0004C18BF31F0004CD8D180EA010000F00040704790F00D
:40318000000F17BF90F0004F084691F0000F91F0004F14D092EA0C0F01D142020FD193EA0C0F03D14B0218BF084608D180EA010000F0004040F0FE4040F40000704740F061
:4031C000FE4040F4400070474FF0FF0C1CEAD0521EBF1CEAD15392EA0C0F93EA0C0F69D0A2EB030280EA010C49024FEA402037D04FF0805343EA111143EA10130CF00040A4
:403200008B4238BF5B0042F17D024FF4000C8B4224BF5B1A40EA0C00B3EB510F24BFA3EB510340EA5C00B3EB910F24BFA3EB910340EA9C00B3EBD10F24BFA3EBD10340EAD4
:40324000DC001B0118BF5FEA1C1CE0D1FD2A3FF650AF8B4240EBC25008BF20F0010070470CF0004C4CEA50207F32C2BFD2F1FF0340EAC250704740F400004FF00003013AD0
:4032800037E792F0000F00F0004C02BF400010F4000F013AF9D040EA0C0093F0000F01F0004C02BF490011F4000F013BF9D041EA0C0195E70CEAD15392EA0C0F08D1420261
:4032C0007FF47DAF93EA0C0F7FF470AF084676E793EA0C0F04D14B023FF44CAF08466EE730F0004C18BF31F0004CCAD130F000427FF45CAF31F000437FF43CAF5FE700BFDD
:403300004FF0FF3C06E000BF4FF0010C02E000BF4FF0010C4DF804CD4FEA40024FEA41037FEA226C18BF7FEA236C11D001B052EA530C18BF90EA010F58BFB2EB030088BFD5
:40334000C81738BF6FEAE17018BF40F0010070477FEA226C02D15FEA402C05D17FEA236CE4D15FEA412CE1D05DF8040B704700BF844608466146FFE70FB5FFF7C9FF00287C
:4033800048BF10F1000F0FBD4DF808EDFFF7F4FF0CBF012000205DF808FB00BF4DF808EDFFF7EAFF34BF012000205DF808FB00BF4DF808EDFFF7E0FF94BF012000205DF888
:4033C00008FB00BF4DF808EDFFF7D2FF94BF012000205DF808FB00BF4DF808EDFFF7C8FF34BF012000205DF808FB00BF014B1868704700BF9081FF1F0E4B70B51E460E4C70
:403400000025E41AA410A54204D056F8253098470135F8E715F0F0FE084B094C1E46E41AA4100025A54204D056F8253098470135F8E770BD04920100049201000492010049
:403440000C92010010B5431E0A44914204D011F8014B03F8014FF8E710BD03460244934202D003F8011BFAE7704700000EB400B54FF402719CB0ADF814106FF000410491EA
:4034800007914FF6FF711DABADF81610084953F8042B02900690086802A9019300F064F8029B00221A701CB05DF804EB03B070479081FF1F2DE9F0478E688246B3420C46FA
:4034C0009046994640D38A8912F4906F3AD02568096902236F1A656905EB450595FBF3F57B1C4B449D4238BF1D4653050FD5294600F030FB064698B121693A46FFF7A2FF5A
:40350000A38923F4906343F08003A38113E02A4600F076FB064670B95046216900F0D6FA0C23CAF80030A3894FF0FF3043F04003A381BDE8F08726613E4426604E46656108
:40354000ED1BA560B14500D24E4632462068414600F0A0FAA36800209B1BA36023681E442660BDE8F08700002DE9F0439DB003938B8906461C060D4690460CD50B6953B926
:40358000402100F0E7FA2860286110B90C233360CCE040236B610023099320238DF8293030238DF82A3043461C4613F8012B1AB9B4EB08090FD002E0252AF5D1F8E7304680
:4035C000294642464B46FFF775FF013000F0A980099B4B4409932378002B00F0A28000234FF0FF3204930793059206938DF853301A9304F101084446DFF8489121784846E0
:40360000052200F039FA08F10108049B30B1C9EB00000122824013430493ECE7D80644BF20228DF85320190744BF2B228DF8532022782A2A02D0079923460EE0039A013459
:40364000111D12680391002ABBBF524243F0020307920792B8BF04930AE01C4622780133303A092A03D80A2000FB0121F5E7079123782E2B1AD163782A2B0AD1039B023453
:403680001A1D1B680392002BB8BF4FF0FF3305930CE0611C00220C4623780131303B092B03D80A2000FB0232F5E70592DFF8988021784046032200F0DFF938B1049AC8EBEB
:4036C00000004023834013430493013421781A48062204F101088DF8281000F0CDF988B1164B33B9039B073323F007030833039313E003AB0093304604A92A46104BAFF3DE
:40370000008007E003AB0093304604A92A460C4B00F092F8421C074603D0099B3B44099341E7AB895B0601D4099801E04FF0FF301DB0BDE8F08300BFCC91010000000000BC
:40374000B5340000C2910100C89101002DE9F84391461F468A680B6906469342B8BF1346C9F8003091F843200C46DDF8208012B10133C9F800302368990642BFD9F8003016
:403780000233C9F80030256815F006051CD094F843302268003318BF012392061FD5E118302081F843005A1C94F845102244023382F8431013E03046394604F11902012337
:4037C000C047013007D00135E368D9F800209B1A9D42F0DBDBE74FF0FF30BDE8F8833046394604F14302C0470130F4D02268D9F80050E36802F00602042A08BF5D1B226986
:40380000A3680CBF25EAE57500259342C4BF9B1AED184FF00009A9450ADA3046394604F11A020123C0470130D5D009F10109F2E70020BDE8F88300002DE9FF410C461746CF
:40384000227E98466E2A06460A9B01F1430100F0B08012D8632A23D00AD8002A00F0BD80582A40F0CC8084F84520DFF804E257E0642A1ED0692A1CD0C1E0732A00F0B1801B
:4038800009D86F2A2ED0702A40F0B980226842F0200222603FE0752A24D0782A3BD0AEE01A6804F14205111D1960136884F84230A9E020681A6810F0800F02D0101D1860D9
:4038C00008E010F0400F02F10400186002D0B2F9003000E01368002B3EDA2D225B4284F8432039E020681A6810F0800F02D0101D186007E010F0400F02F10400186001D06D
:40390000138800E01368227EDFF864E16F2A0CBF08220A221CE07822DFF858E184F845202268186812F0800F00F104051D6003D1550601D5038800E00368D00744BF42F09B
:40394000200222601BB9226822F0200222601022002084F8430002E0DFF814E10A226568002DA8BF2068A560A4BF20F00400206003B965B10D46B3FBF2F002FB10331EF8B4
:40398000033005F8013D03460028F4D100E00D46082A0BD12368DA0708D5236962689A42DEBF302305F8013C05F1FF35491B21612EE025681A6815F0800F606903D0151DEE
:4039C0001D60136808E015F0400F02F104051D60136801D0188000E01860002323610D4616E01A68111D1960156800212846626800F042F808B1401B6060636804E004F14D
:403A0000420584F8422001232361002384F84330CDF800803046214603AA3B46FFF796FE013002D14FF0FF301FE0304639462A462369C0470130F5D023689B0705D4E06820
:403A4000039B9842B8BF18460FE00025E368039A9B1A9D42F3DA3046394604F119020123C0470130DED00135F0E704B0BDE8F081D3910100E491010010B5C9B20244904283
:403A8000034605D01C7801308C42F8D1184610BD002010BD814210B501EB020301D3421E0BE09842FBD28118D21AD34204D013F8014D01F8014DF8E710BD994204D011F8C3
:403AC000014B02F8014FF8E710BD000030B500293CD051F8042C0B1F1D49002AB8BF9B180A680C4612B95A600B6030BD93420DD219685818904201BF5A5852181A604268F5
:403B000023605A6030BD994203D80A4651680029F9D1146815199D420AD11B682344D0188842136012D10868034413604B680CE002D90C23036030BD1C681819884201BFF1
:403B400008684968001918605960536030BD00BFD081FF1F70B5CC1C24F0030408340C2C38BF0C24002C064603DA0C233360002070BD8C42F9D3204A136810461946A1B15F
:403B80000A68121B0ED40B2A03D90A608B188C501FE08B420BBF5A684A6802605A6018BF0B4616E00B464968E9E7144D2B681BB9304600F04BF828603046214600F046F870
:403BC000421C0346D1D0C51C25F0030585420AD11C6003F10B001A1D20F00700821A0AD05142995070BD3046E91A00F02FF80130BBD02B46ECE770BDD081FF1FCC81FF1F5E
:403C0000F8B5074615460E4621B91146BDE8F840FFF7A0BF1AB9FFF759FF2846F8BD00F025F8A8420ED238462946FFF793FF044650B131462A46FFF705FC38463146FFF7D4
:403C400045FF01E03046F8BD2046F8BD38B5064C0023054608462360FDF760FD431C02D1236803B12B6038BDECB1FF1F51F8040C0028BEBF091851F8043CC01804387047EB
:403C800000000000210000002564000000100000F49100001C3D0000C00F000000080000F41101009C5C0000E00E000000040000F45101005C7A0000080700000002000078
:403CC000F47101006C880000C001000000010000F4810100EC8B0000B801000080000000F48901005C8F0000D000000040000000F48D0100FC9000003800000020000000A3
:403D0000F48F01006C9100003000000010000000F4900100CC9100001400000008000010100000201800003020000040280000503000006038000070400000024800001290
:403D400050000022580000326000004268000052700000627800007280000004880000149000002498000034A0000044A8000054B0000064B8000074C0000006C8000016CB
:403D8000D0000026D8000036E0000046E8000056F0000066F800007600010008080100181001002818010038200100482801005830010068380100784001000A4801001A41
:403DC0005001002A5801003A6001004A6801005A7001006A7801007A8001000C8801001C9001002C9801003CA001004CA801005CB001006CB801007CC001000EC801001EBB
:403E0000D001002ED801003EE001004EE801005EF001006EF801007E0802401010024020180240302002404028024050300240603802407048024012500240225802403296
:403E40006002404268024052700240627802407280024004880240149002402498024034A0024044A8024054B0024064B8024074C0024006C8024016D0024026D8024036A2
:403E8000E0024046E8024056F0024066F802407600034008080340181003402818034038200340482803405830034068380340784003400A4803401A5003402A5803403A16
:403EC0006003404A6803405A7003406A7803407A8003400C8803401C9003402C9803403CA003404CA803405CB003406CB803407CC003400EC803401ED003402ED803403E92
:403F0000E003404EE803405EF003406EF803407E080480101004802018048030200480402804805030048060380480704804801250048022580480326004804268048052AB
:403F40007004806278048072880480149004802498048034A0048044A8048054B0048064B8048074C0048006C8048016D0048026D8048036E0048046E8048056F0048066A7
:403F8000F804807600058008080580181005802818058038200580482805805830058068380580784005800A4805801A5005802A5805803A6005804A6805805A7005806A66
:403FC0007805807A8005800C8805801C9005802C9805803CA005804CA805805CB005806CB805807CC005800EC805801ED005802ED805803EE005804EE805805EF005806EE5
:40400000F805807E0806C0101006C0201806C0302006C0402806C0503006C0603806C0704806C0125006C0225806C0326006C0426806C0527006C0627806C0728806C01441
:404040009006C0249806C034A006C044A806C054B006C064B806C074C806C016D006C026D806C036E006C046E806C056F006C066F806C0760007C0080807C0181007C028D3
:404080001807C0382007C0482807C0583007C0683807C0784007C00A4807C01A5007C02A5807C03A6007C04A6807C05A7007C06A7807C07A8007C00C8807C01C9007C02C34
:4040C0009807C03CA007C04CA807C05CB007C06CB807C07CC007C00EC807C01ED007C02ED807C03EE007C04EE807C05EF007C06EF807C07E080800111008002118080031D6
:404100002008004128080051300800613808007148080013500800235808003360080043680800537008006378080073880800159008002598080035A0080045A808005575
:40414000B0080065B8080075C8080017D0080027D8080037E0080047E8080057F0080067F80800770809001910090029180900392009004928090059300900693809007986
:404180004009000B4809001B5009002B5809003B6009004B6809005B7009006B7809007B8009000D8809001D9009002D9809003DA009004DA809005DB009006DB809007D6F
:4041C000C009000FC809001FD009002FD809003FE009004FE809005FF009006FF809007F080A4011100A4021180A4031200A4041280A4051300A4061380A4071480A40130D
:40420000500A4023580A4033600A4043680A4053700A4063780A4073880A4015900A4025980A4035A00A4045A80A4055B00A4065B80A4075C80A4017D00A4027D80A40379C
:40424000E00A4047E80A4057F00A4067F80A4077080B4019100B4029180B4039200B4049280B4059300B4069380B4079480B401B500B402B580B403B600B404B680B405BA8
:40428000700B406B780B407B800B400D880B401D900B402D980B403DA00B404DA80B405DB00B406DB80B407DC00B400FC80B401FD00B402FD80B403FE00B404FE80B405F36
:4042C000F00B406FF80B407F080C8011100C8021180C8031200C8041280C8051300C8061380C8071480C8013500C8023580C8033600C8043680C8053700C8063780C80738E
:40430000880C8015900C8025980C8035A00C8045A80C8055B00C8065B80C8075C80C8017D00C8027D80C8037E00C8047E80C8057F00C8067F80C8077080D8019100D80290D
:40434000180D8039200D8049280D8059300D8069380D8079480D801B500D802B580D803B600D804B680D805B700D806B780D807B880D801D900D802D980D803DA00D804D17
:40438000A80D805DB00D806DB80D807DC00D800FC80D801FD00D802FD80D803FE00D804FE80D805FF00D806FF80D807F080EC011100EC021180EC031200EC041280EC0510C
:4043C000300EC061380EC071480EC013500EC023580EC033600EC043680EC053700EC063780EC073880EC015900EC025980EC035A00EC045A80EC055B00EC065B80EC075EB
:40440000C80EC017D00EC027D80EC037E00EC047E80EC057F00EC067F80EC077080FC019100FC029180FC039200FC049280FC059300FC069380FC079480FC01B500FC02BC5
:40444000580FC03B600FC04B680FC05B700FC06B780FC07B880FC01D900FC02D980FC03DA00FC04DA80FC05DB00FC06DB80FC07DC80FC01FD00FC02FD80FC03FE00FC04FD6
:40448000E80FC05FF00FC06FF80FC07F1010082018100830201008402810085030100860381008704810081250100822581008326010084268100852701008627810087244
:4044C000881008149010082498100834A0100844A8100854B0100864B8100874C8100816D0100826D8100836E0100846E8100856F0100866F810087608110818101108289C
:4045000018110838201108482811085830110868381108784811081A5011082A5811083A6011084A6811085A7011086A7811087A8811081C9011082C9811083CA011084CA5
:40454000A811085CB011086CB811087CC811081ED011082ED811083EE011084EE811085EF011086EF811087E10124820181248302012484028124850301248603812487007
:40458000501248225812483260124842681248527012486278124872881248149012482498124834A0124844A8124854B0124864B8124874C8124816D0124826D812483629
:4045C000E0124846E8124856F0124866F8124876081348181013482818134838201348482813485830134868381348784813481A5013482A5813483A6013484A6813485A35
:404600007013486A7813487A8813481C9013482C9813483CA013484CA813485CB013486CB813487CC813481ED013482ED813483EE013484EE813485EF013486EF813487E48
:404640001014882018148830201488402814885030148860381488705014882258148832601488426814885270148862781488729014882498148834A0148844A81488547E
:40468000B0148864B8148874C8148816D0148826D8148836E0148846E8148856F0148866F81488760815881810158828181588382015884828158858301588683815887811
:4046C0004815881A5015882A5815883A6015884A6815885A7015886A7815887A8815881C9015882C9815883CA015884CA815885CB015886CB815887CC815881ED015882EEC
:40470000D815883EE015884EE815885EF015886EF815887E1016C8201816C8302016C8402816C8503016C8603816C8705016C8225816C8326016C8426816C8527016C862CE
:404740007816C8729016C8249816C834A016C844A816C854B016C864B816C874D016C826D816C836E016C846E816C856F016C866F816C8760817C8181017C8281817C838F8
:404780002017C8482817C8583017C8683817C8784817C81A5017C82A5817C83A6017C84A6817C85A7017C86A7817C87A8817C81C9017C82C9817C83CA017C84CA817C85C0F
:4047C000B017C86CB817C87CC817C81ED017C82ED817C83EE017C84EE817C85EF017C86EF817C87E101808211818083120180841281808513018086138180871501808236F
:4048000058180833601808436818085370180863781808739018082598180835A0180845A8180855B0180865B8180875D0180827D8180837E0180847E8180857F018086768
:40484000F81808771019082918190839201908492819085930190869381908794819081B5019082B5819083B6019084B6819085B7019086B7819087B8819081D9019082DED
:404880009819083DA019084DA819085DB019086DB819087DC819081FD019082FD819083FE019084FE819085FF019086FF819087F101A4821181A4831201A4841281A48512E
:4048C000301A4861381A4871501A4823581A4833601A4843681A4853701A4863781A4873901A4825981A4835A01A4845A81A4855B01A4865B81A4875D01A4827D81A483798
:40490000E01A4847E81A4857F01A4867F81A4877101B4829181B4839201B4849281B4859301B4869381B4879501B482B581B483B601B484B681B485B701B486B781B487B17
:40494000881B481D901B482D981B483DA01B484DA81B485DB01B486DB81B487DC81B481FD01B482FD81B483FE01B484FE81B485FF01B486FF81B487F101C8821181C883147
:40498000201C8841281C8851301C8861381C8871501C8823581C8833601C8843681C8853701C8863781C8873901C8825981C8835A01C8845A81C8855B01C8865B81C8875E3
:4049C000D01C8827D81C8837E01C8847E81C8857F01C8867F81C8877101D8829181D8839201D8849281D8859301D8869381D8879501D882B581D883B601D884B681D885B01
:404A0000701D886B781D887B901D882D981D883DA01D884DA81D885DB01D886DB81D887DC81D881FD01D882FD81D883FE01D884FE81D885FF01D886FF81D887F101EC821C7
:404A4000181EC831201EC841281EC851301EC861381EC871501EC823581EC833601EC843681EC853701EC863781EC873901EC825981EC835A01EC845A81EC855B01EC865E6
:404A8000B81EC875D01EC827D81EC837E01EC847E81EC857F01EC867F81EC877101FC829181FC839201FC849281FC859301FC869381FC879501FC82B581FC83B601FC84BB7
:404AC000681FC85B701FC86B781FC87B901FC82D981FC83DA01FC84DA81FC85DB01FC86DB81FC87DD01FC82FD81FC83FE01FC84FE81FC85FF01FC86FF81FC87F18201030EC
:404B0000202010402820105030201060382010705020102258201032602010426820105270201062782010729020102498201034A0201044A8201054B0201064B8201074B1
:404B4000D0201026D8201036E0201046E8201056F0201066F82010761021102818211038202110482821105830211068382110785021102A5821103A6021104A6821105ACF
:404B80007021106A7821107A9021102C9821103CA021104CA821105CB021106CB821107CD021102ED821103EE021104EE821105EF021106EF821107E1822503020225040C3
:404BC00028225050302250603822507058225032602250426822505270225062782250729022502498225034A0225044A8225054B0225064B8225074D0225026D82250369F
:404C0000E0225046E8225056F0225066F82250761023502818235038202350482823505830235068382350785023502A5823503A6023504A6823505A7023506A7823507A24
:404C40009023502C9823503CA023504CA823505CB023506CB823507CD023502ED823503EE023504EE823505EF023506EF823507E1824903020249040282490503024906024
:404C800038249070582490326024904268249052702490627824907298249034A0249044A8249054B0249064B8249074D0249026D8249036E0249046E8249056F0249066C0
:404CC000F82490761025902818259038202590482825905830259068382590785025902A5825903A6025904A6825905A7025906A7825907A9025902C9825903CA025904C7F
:404D0000A825905CB025906CB825907CD025902ED825903EE025904EE825905EF025906EF825907E1826D0302026D0402826D0503026D0603826D0705826D0326026D04228
:404D40006826D0527026D0627826D0729826D034A026D044A826D054B026D064B826D074D826D036E026D046E826D056F026D066F826D0761027D0281827D0382027D04848
:404D80002827D0583027D0683827D0785027D02A5827D03A6027D04A6827D05A7027D06A7827D07A9027D02C9827D03CA027D04CA827D05CB027D06CB827D07CD027D02EA9
:404DC000D827D03EE027D04EE827D05EF027D06EF827D07E182810312028104128281051302810613828107158281033602810436828105370281063782810739828103549
:404E0000A0281045A8281055B0281065B8281075D8281037E0281047E8281057F0281067F828107718291039202910492829105930291069382910795029102B5829103BF9
:404E40006029104B6829105B7029106B7829107B9029102D9829103DA029104DA829105DB029106DB829107DD029102FD829103FE029104FE829105FF029106FF829107F2E
:404E8000182A5031202A5041282A5051302A5061382A5071582A5033602A5043682A5053702A5063782A5073982A5035A02A5045A82A5055B02A5065B82A5075D82A50374E
:404EC000E02A5047E82A5057F02A5067F82A5077182B5039202B5049282B5059302B5069382B5079582B503B602B504B682B505B702B506B782B507B902B502D982B503DF4
:404F0000A02B504DA82B505DB02B506DB82B507DD02B502FD82B503FE02B504FE82B505FF02B506FF82B507F182C9031202C9041282C9051302C9061382C9071582C9033AD
:404F4000602C9043682C9053702C9063782C9073982C9035A02C9045A82C9055B02C9065B82C9075D82C9037E02C9047E82C9057F02C9067F82C9077182D9039202D90496D
:404F8000282D9059302D9069382D9079582D903B602D904B682D905B702D906B782D907B982D903DA02D904DA82D905DB02D906DB82D907DD02D902FD82D903FE02D904F29
:404FC000E82D905FF02D906FF82D907F182ED031202ED041282ED051302ED061382ED071582ED033602ED043682ED053702ED063782ED073982ED035A02ED045A82ED055C4
:40500000B02ED065B82ED075D82ED037E02ED047E82ED057F02ED067F82ED077182FD039202FD049282FD059302FD069382FD079582FD03B602FD04B682FD05B702FD06BA9
:40504000782FD07B982FD03DA02FD04DA82FD05DB02FD06DB82FD07DD82FD03FE02FD04FE82FD05FF02FD06FF82FD07F2030184028301850303018603830187058301832CA
:405080006030184268301852703018627830187298301834A0301844A8301854B0301864B8301874D8301836E0301846E8301856F0301866F830187618311838203118487C
:4050C0002831185830311868383118785831183A6031184A6831185A7031186A7831187A9831183CA031184CA831185CB031186CB831187CD831183EE031184EE831185EF0
:40510000F031186EF831187E203258402832585030325860383258706032584268325852703258627832587298325834A0325844A8325854B0325864B8325874D83258365B
:40514000E0325846E8325856F0325866F832587618335838203358482833585830335868383358785833583A6033584A6833585A7033586A7833587A9833583CA033584C51
:40518000A833585CB033586CB833587CD833583EE033584EE833585EF033586EF833587E20349840283498503034986038349870603498426834985270349862783498725D
:4051C000A0349844A8349854B0349864B8349874D8349836E0349846E8349856F0349866F834987618359838203598482835985830359868383598785835983A6035984AD6
:405200006835985A7035986A7835987A9835983CA035984CA835985CB035986CB835987CD835983EE035984EE835985EF035986EF835987E2036D8402836D8503036D86073
:405240003836D8706036D8426836D8527036D8627836D872A036D844A836D854B036D864B836D874E036D846E836D856F036D866F836D8761837D8382037D8482837D8580B
:405280003037D8683837D8785837D83A6037D84A6837D85A7037D86A7837D87A9837D83CA037D84CA837D85CB037D86CB837D87CD837D83EE037D84EE837D85EF037D86EF0
:4052C000F837D87E2038184128381851303818613838187160381843683818537038186378381873A0381845A8381855B0381865B8381875E0381847E8381857F038186768
:40530000F8381877203918492839185930391869383918795839183B6039184B6839185B7039186B7839187B9839183DA039184DA839185DB039186DB839187DD839183FBC
:40534000E039184FE839185FF039186FF839187F203A5841283A5851303A5861383A5871603A5843683A5853703A5863783A5873A03A5845A83A5855B03A5865B83A587571
:40538000E03A5847E83A5857F03A5867F83A5877203B5849283B5859303B5869383B5879603B584B683B585B703B586B783B587B983B583DA03B584DA83B585DB03B586D41
:4053C000B83B587DD83B583FE03B584FE83B585FF03B586FF83B587F203C9841283C9851303C9861383C9871603C9843683C9853703C9863783C9873A03C9845A83C985549
:40540000B03C9865B83C9875E03C9847E83C9857F03C9867F83C9877203D9849283D9859303D9869383D9879603D984B683D985B703D986B783D987BA03D984DA83D985D52
:40544000B03D986DB83D987DD83D983FE03D984FE83D985FF03D986FF83D987F203ED841283ED851303ED861383ED871603ED843683ED853703ED863783ED873A03ED845C9
:40548000A83ED855B03ED865B83ED875E03ED847E83ED857F03ED867F83ED877203FD849283FD859303FD869383FD879603FD84B683FD85B703FD86B783FD87BA03FD84DBB
:4054C000A83FD85DB03FD86DB83FD87DE03FD84FE83FD85FF03FD86FF83FD87F28402050304020603840207060402042684020527040206278402072A0402044A840205460
:40550000B0402064B8402074E0402046E8402056F0402066F8402076204120482841205830412068384120786041204A6841205A7041206A7841207AA041204CA841205CA1
:40554000B041206CB841207CE041204EE841205EF041206EF841207E284260503042606038426070684260527042606278426072A0426044A8426054B0426064B8426074B3
:40558000E0426046E8426056F0426066F8426076204360482843605830436068384360786043604A6843605A7043606A7843607AA043604CA843605CB043606CB843607CEF
:4055C000E043604EE843605EF043606EF843607E2844A0503044A0603844A0706844A0527044A0627844A072A844A054B044A064B844A074E044A046E844A056F044A0660B
:40560000F844A0762045A0482845A0583045A0683845A0786045A04A6845A05A7045A06A7845A07AA045A04CA845A05CB045A06CB845A07CE045A04EE845A05EF045A06E33
:40564000F845A07E2846E0503046E0603846E0706846E0527046E0627846E072A846E054B046E064B846E074E846E056F046E066F846E0762047E0482847E0583047E068AE
:405680003847E0786047E04A6847E05A7047E06A7847E07AA047E04CA847E05CB047E06CB847E07CE047E04EE847E05EF047E06EF847E07E28482051304820613848207194
:4056C000684820537048206378482073A8482055B0482065B8482075E8482057F0482067F84820772849205930492069384920796049204B6849205B7049206B7849207B5F
:40570000A049204DA849205DB049206DB849207DE049204FE849205FF049206FF849207F284A6051304A6061384A6071684A6053704A6063784A6073A84A6055B04A606503
:40574000B84A6075E84A6057F04A6067F84A6077284B6059304B6069384B6079684B605B704B606B784B607BA04B604DA84B605DB04B606DB84B607DE04B604FE84B605F35
:40578000F04B606FF84B607F284CA051304CA061384CA071684CA053704CA063784CA073A84CA055B04CA065B84CA075E84CA057F04CA067F84CA077284DA059304DA06949
:4057C000384DA079684DA05B704DA06B784DA07BA84DA05DB04DA06DB84DA07DE04DA04FE84DA05FF04DA06FF84DA07F284EE051304EE061384EE071684EE053704EE0636E
:40580000784EE073A84EE055B04EE065B84EE075E84EE057F04EE067F84EE077284FE059304FE069384FE079684FE05B704FE06B784FE07BA84FE05DB04FE06DB84FE07D9D
:40584000E84FE05FF04FE06FF84FE07F3050286038502870685028527050286278502872A8502854B0502864B8502874E8502856F0502866F8502876285128583051286860
:40588000385128786851285A7051286A7851287AA851285CB051286CB851287CE851285EF051286EF851287E30526860385268707052686278526872A8526854B052686422
:4058C000B8526874E8526856F0526866F85268762853685830536868385368786853685A7053686A7853687AA853685CB053686CB853687CE853685EF053686EF853687E0A
:405900003054A8603854A8707054A8627854A872B054A864B854A874E854A856F054A866F854A8762855A8583055A8683855A8786855A85A7055A86A7855A87AA855A85C10
:40594000B055A86CB855A87CE855A85EF055A86EF855A87E3056E8603856E8707056E8627856E872B056E864B856E874F056E866F856E8762857E8583057E8683857E8785F
:405980006857E85A7057E86A7857E87AA857E85CB057E86CB857E87CE857E85EF057E86EF857E87E30582861385828717058286378582873B0582865B8582875F0582867A3
:4059C000F858287730592869385928796859285B7059286B7859287BA859285DB059286DB859287DE859285FF059286FF859287F305A6861385A6871705A6863785A6873DE
:405A0000B05A6865B85A6875F05A6867F85A6877305B6869385B6879705B686B785B687BA85B685DB05B686DB85B687DE85B685FF05B686FF85B687F305CA861385CA871EA
:405A4000705CA863785CA873B05CA865B85CA875F05CA867F85CA877305DA869385DA879705DA86B785DA87BB05DA86DB85DA87DE85DA85FF05DA86FF85DA87F305EE861BD
:405A8000385EE871705EE863785EE873B05EE865B85EE875F05EE867F85EE877305FE869385FE879705FE86B785FE87BB05FE86DB85FE87DF05FE86FF85FE87F38603070DD
:405AC0007060306278603072B0603064B8603074F0603066F860307630613068386130787061306A7861307AB061306CB861307CF061306EF861307E386270707862707290
:405B0000B0627064B8627074F0627066F862707630637068386370787063706A7863707AB063706CB863707CF063706EF863707E3864B0707864B072B864B074F064B066E5
:405B4000F864B0763065B0683865B0787065B06A7865B07AB065B06CB865B07CF065B06EF865B07E3866F0707866F072B866F074F866F0763067F0683867F0787067F06A18
:405B80007867F07AB067F06CB867F07CF067F06EF867F07E3868307178683073B8683075F8683077386930797069306B7869307BB069306DB869307DF069306FF869307FB6
:405BC000386A7071786A7073B86A7075F86A7077386B7079786B707BB06B706DB86B707DF06B706FF86B707F386CB071786CB073B86CB075F86CB077386DB079786DB07BA1
:405C0000B86DB07DF06DB06FF86DB07F386EF071786EF073B86EF075F86EF077386FF079786FF07BB86FF07DF86FF07F78703872B8703874F8703876387138787871387A1E
:405C4000B871387CF871387EB8727874F8727876387378787873787AB873787CF873787EF874B8763875B8787875B87AB875B87CF875B87E3877F8787877F87AB877F87C05
:405C8000F877F87E7879387BB879387DF879387FB87B787DF87B787FF87DB87F080000101000002018000030200000022800001230000022380000324000000448000014C7
:405CC00050000024580000346000000668000016700000267800003680000008880000189000002898000038A000000AA800001AB000002AB800003AC000000CC800001CE4
:405D0000D000002CD800003CE000000EE800001EF000002EF800003E0001000408014010100140201801403020014002280140123001402238014032400140044801401475
:405D400050014024580140346001400668014016700140267801403680014008880140189001402898014038A001400AA801401AB001402AB801403AC001400CC801401C53
:405D8000D001402CD801403CE001400EE801401EF001402EF801403E0002000808028010100280201802803020028002280280123002802238028032400280044802801421
:405DC00050028024580280346002800668028016700280267802803680028008880280189002802898028038A002800AA802801AB002802AB802803AC002800CC802801CC3
:405E0000D002802CD802803CE002800EE802801EF002802EF802803E0003000C0803C0101003C0201803C0302003800C2803C0123003C0223803C0324003C0044803C01402
:405E40005003C0245803C0346003C0066803C0167003C0267803C0368003C0088803C0189003C0289803C038A003C00AA803C01AB003C02AB803C03AC003C00CC803C01C32
:405E8000D003C02CD803C03CE003C00EE803C01EF003C02EF803C03E0804001110040021180400312004000C28040013300400233804003340040005480400155004002501
:405EC000580400356004000768040017700400277804003780040009880400199004002998040039A004000BA804001BB004002BB804003BC004000DC804001DD004002D0A
:405F0000D804003DE004000FE804001FF004002FF804003F0805401110054021180540312005000D28054013300540233805403348054015500540255805403560054007B6
:405F400068054017700540277805403780054009880540199005402998054039A005400BA805401BB005402BB805403BC005400DC805401DD005402DD805403DE005400F69
:405F8000E805401FF005402FF805403F000640080806801110068021180680312006C00828068013300680233806803340064009480680155006802558068035600680075C
:405FC00068068017700680277806803780068009880680199006802998068039A006800BA806801BB006802BB806803BC006800DC806801DD006802DD806803DE006800FD9
:40600000E806801FF006802FF806803F0007400C0807C0111007C0211807C0312007C00C2807C0133007C0233807C0334007400D4807C0155007C0255807C0356007C0077F
:406040006807C0177007C0277807C0378007C0098807C0199007C0299807C039A007C00BA807C01BB007C02BB807C03BC007C00DC807C01DD007C02DD807C03DE007C00F48
:40608000E807C01FF007C02FF807C03F000800100808081010080820180808302008801028080812300808223808083240080011480808145008082458080834600880119A
:4060C00068080816700808267808083680080810880808189008082898080838A008080AA808081AB008082AB808083AC008080CC808081CD008082CD808083CE008080E40
:40610000E808081EF008082EF808083E00090014080948101009482018094830200980142809481230094822380948324009001548094814500948245809483460098015E4
:4061400068094816700948267809483680090814880948189009482898094838A009480AA809481AB009482AB809483AC009480CC809481CD009482CD809483CE009480EEB
:40618000E809481EF009482EF809483E000A0018080A8810100A8820180A8830200A8018280A8812300A8822380A8832400A0019480A8814500A8824580A8834600A801944
:4061C000680A8816700A8826780A8836800A0818880A8818900A8828980A8838A00A8818A80A881AB00A882AB80A883AC00A880CC80A881CD00A882CD80A883CE00A880E89
:40620000E80A881EF00A882EF80A883E000B001C080BC810100BC820180BC830200B801C280BC812300BC822380BC832400B001D480BC814500BC824580BC834600B801DA3
:40624000680BC816700BC826780BC836800B081C880BC818900BC828980BC838A00B881CA80BC81AB00BC82AB80BC83AC00BC80CC80BC81CD00BC82CD80BC83CE00BC80E70
:40628000E80BC81EF00BC82EF80BC83E000C4010080C0811100C0821180C0831200CC010280C0813300C0823380C0833400C4011480C0815500C0825580C0835600CC0113A
:4062C000680C0817700C0827780C0837800C4810880C0819900C0829980C0839A00CC810A80C081BB00C082BB80C083BC00C080DC80C081DD00C082DD80C083DE00C080FEA
:40630000E80C081FF00C082FF80C083F000D4014080D4811100D4821180D4831200DC014280D4813300D4823380D4833400D4015480D4815500D4825580D4835600DC01596
:40634000680D4817700D4827780D4837800D4814880D4819900D4829980D4839A00DC814A80D481BB00D482BB80D483BC00D4815C80D481DD00D482DD80D483DE00D480FC9
:40638000E80D481FF00D482FF80D483F000E4018080E8811100E8821180E8831200EC018280E8813300E8823380E8833400E4019480E8815500E8825580E8835600EC019F6
:4063C000680E8817700E8827780E8837800E4818880E8819900E8829980E8839A00EC818A80E881BB00E882BB80E883BC00E4819C80E881DD00E882DD80E883DE00E880FED
:40640000E80E881FF00E882FF80E883F000F401C080FC811100FC821180FC831200FC01C280FC813300FC823380FC833400F401D480FC815500FC825580FC835600FC01D55
:40644000680FC817700FC827780FC837800F481C880FC819900FC829980FC839A00FC81CA80FC81BB00FC82BB80FC83BC00F481DC80FC81DD00FC82DD80FC83DE00FC81D02
:40648000E80FC81FF00FC82FF80FC83F0010002008101010101010201810103020108020281010123010102238101032401000214810101450101024581010346010802176
:4064C00068101016701010267810103680100820881010189010102898101038A0108820A810101AB010102AB810103AC0100821C810101CD010102CD810103CE01088210E
:40650000E810101EF010102EF810103E00110024081110241011502018115030201180242811501230115022381150324011002548115014501150245811503460118025EC
:4065400068115016701150267811503680110824881150189011502898115038A0118824A811501AB011502AB811503AC0110825C811501CD011502CD811503CE01188256D
:40658000E811501EF011502EF811503E0012002808121028101290201812903020128028281290123012902238129032401200294812901450129024581290346012802988
:4065C00068129016701290267812903680120828881290189012902898129038A0128828A812901AB012902AB812903AC0120829C812901CD012902CD812903CE0128829CD
:40660000E812901EF012902EF812903E0013002C0813102C1013D0201813D0302013802C2813902C3013D0223813D0324013002D4813D0145013D0245813D0346013802D49
:406640006813D0167013D0267813D0368013082C8813D0189013D0289813D038A013882CA813D01AB013D02AB813D03AC013082DC813D01CD013D02CD813D03CE013882D2C
:40668000E813D01EF013D02EF813D03E001440200814502010141021181410312014C0202814D0203014102338141033401440214814101550141025581410356014C021FA
:4066C00068141017701410277814103780144820881410199014102998141039A014C820A814101BB014102BB814103BC0144821C814101DD014102DD814103DE014C821C0
:40670000E814101FF014102FF814103F001540240815502410155021181550312015C0242815D0243015502338155033401540254815501550155025581550356015C025CE
:4067400068155017701550277815503780154824881550199015502998155039A015C824A815501BB015502BB815503BC0154825C815501DD015502DD815503DE015C8251F
:40678000E815501FF015502FF815503F001640280816502810169021181690312016C0282816D0283016902338169033401640294816502950169025581690356016C029D2
:4067C00068169017701690277816903780164828881690199016902998169039A016C828A816901BB016902BB816903BC0164829C816901DD016902DD816903DE016C8297F
:40680000E816901FF016902FF816903F0017402C0817502C1017D0211817D0312017C02C2817D02C3017D0233817D0334017402D4817502D5017D0255817D0356017C02DE5
:406840006817D0177017D0277817D0378017482C8817D0199017D0299817D039A017C82CA817D01BB017D02BB817D03BC017482DC817D01DD017D02DD817D03DE017C82DDE
:40688000E817D01FF017D02FF817D03F001800300818103010181820181818302018803028189030301818223818183240180031481810315018182458181834601880318F
:4068C00068189031701818267818183680180830881818309018182898181838A0188830A818181AB018182AB818183AC0180831C818181CD018182CD818183CE01888313F
:40690000E818181EF018182EF818183E001900340819103410195820181958302019803428199034301958223819583240190035481910355019582458195834601980358D
:4069400068199035701958267819583680190834881918349019582898195838A0198834A819581AB019582AB819583AC0190835C819581CD019582CD819583CE019883516
:40698000E819581EF019582EF819583E001A0038081A1038101A9820181A9830201A8038281A9038301A9822381A9832401A0039481A1039501A9824581A9834601A8039A1
:4069C000681A9039701A9826781A9836801A0838881A1838901A9828981A9838A01A8838A81A9838B01A982AB81A983AC01A0839C81A981CD01A982CD81A983CE01A8839D0
:406A0000E81A981EF01A982EF81A983E001B003C081B103C101BD820181BD830201B803C281B903C301BD822381BD832401B003D481B103D501BD824581BD834601B803DB4
:406A4000681B903D701BD826781BD836801B083C881B183C901BD828981BD838A01B883CA81B983CB01BD82AB81BD83AC01B083DC81BD81CD01BD82CD81BD83CE01B883DE3
:406A8000E81BD81EF01BD82EF81BD83E001C4030081C5030101C1821181C1831201CC030281CD030301C1823381C1833401C4031481C5031501C1825581C1835601CC03172
:406AC000681CD031701C1827781C1837801C4830881C5830901C1829981C1839A01CC830A81CD830B01C182BB81C183BC01C4831C81C181DD01C182DD81C183DE01CC8319E
:406B0000E81C181FF01C182FF81C183F001D4034081D5034101D5821181D5831201DC034281DD034301D5823381D5833401D4035481D5035501D5825581D5835601DC03582
:406B4000681DD035701D5827781D5837801D4834881D5834901D5829981D5839A01DC834A81DD834B01D582BB81D583BC01D4835C81D5835D01D582DD81D583DE01DC83599
:406B8000E81D581FF01D582FF81D583F001E4038081E5038101E9821181E9831201EC038281ED038301E9823381E9833401E4039481E5039501E9825581E9835601EC03996
:406BC000681ED039701E9827781E9837801E4838881E5838901E9829981E9839A01EC838A81ED838B01E982BB81E983BC01E4839C81E5839D01E982DD81E983DE01EC839E9
:406C0000E81E981FF01E982FF81E983F001F403C081F503C101FD821181FD831201FC03C281FD03C301FD823381FD833401F403D481F503D501FD825581FD835601FC03DA9
:406C4000681FD03D701FD827781FD837801F483C881F583C901FD829981FD839A01FC83CA81FD83CB01FD82BB81FD83BC01F483DC81F583DD01FD82DD81FD83DE01FC83D38
:406C8000E81FD83DF01FD82FF81FD83F082080201020202018202030282080283020202238202032402000214820C0205020202458202034602010246820C0287020202645
:406CC00078202036882080309020202898202038A0200830A8208038B020202AB820203AC0200821C820C030D020202CD820203CE0200831E820C038F020202EF820203E04
:406D00000021002408218021102110241821603020212024282180293021602238216032402100254821C0215021602458216034602150246821C029702160267821603662
:406D400080210824882180319021602898216038A0210834A8218039B021602AB821603AC0210825C821C031D021602CD821603CE0210835E821C039F021602EF821603E85
:406D80000022003008228030102208301822A03020221030282288283022A0223822A032402240304822C0305022A0245822A034602250306822C8287022A0267822A03683
:406DC00080222030882288309022A0289822A038A0221830A8228838B022A02AB822A03AC0226030C822C830D022A02CD822A03CE0221831E822C838F022A02EF822A03E3A
:406E00000023003108238031102308311823E0302023103128238829302318313823E032402340314823C0315023E0245823E034602350316823C8297023E0267823E036E2
:406E400080231824882388319023E0289823E038A0231834A8238839B023E02AB823E03AC0231825C823C831D023E02CD823E03CE0231835E823C839F023E02EF823E03E04
:406E80000824802410242024182420312824802C3024103138242033402400254824C0245024202558242035602410256824C02C7024202778242037882480349024202902
:406EC00098242039A0244830A824803CB024202BB824203BC0240825C824C034D024202DD824203DE0244831E824C03CF024202FF824203F0825802510252025182560315B
:406F00002825802D30255031382560334825C02550256025582560356825C02D7025602778256037882580359025602998256039A0254834A825803DB025602BB825603BD0
:406F4000C825C035D025602DD825603DE0254835E825C03DF025602FF825603F0026003408268034102608341826A031202610342826882C302618343826A0334026403431
:406F80004826C034502648345826A035602650346826C82C7026A0277826A03780262034882688349026A0299826A039A0265830A826883CB026A02BB826A03BC02660349E
:406FC000C826C834D026A02DD826A03DE0265831E826C83CF026A02FF826A03F0027003508278035102708351827E031202710352827882D302718353827E0334027403500
:407000004827C035502748355827E035602750356827C82D7027E0277827E03780272035882788359027E0299827E039A0275834A827883DB027E02BB827E03BC027603541
:40704000C827C835D027E02DD827E03DE0275835E827C83DF027E02FF827E03F0828202810288028182828302828902830288828382828324028002C4828202C5028802CCA
:40708000582828346028082C6828D0287028882C782828368828903098282838A0282830A8289038B028282AB828283AC028102CC828D030D028282CD828283CE028182CA2
:4070C000E828D038F028282EF828283E0029002C0829082C1029102C182968302029202C282990293029D030382968324029402C4829602C5029C02C582968346029482C38
:407100006829D0297029C82C782968368029802C882990319029282C98296838A0292834A8299039B029682AB829683AC029502CC829D031D029682CD829683CE029582C01
:40714000E829D039F029682EF829683E002A0038082A2038102A8038182AA830202A0838282A2838302A8838382AA832402A003C482A203C502A803C582AA834602A083C1F
:40718000682A283C702A883C782AA836802A1038882A9830902A9038982AA838A02A1838A82A9838B02A9838B82AA83AC02A103CC82AD830D02AA82CD82AA83CE02A183CFF
:4071C000E82AD838F02AA82EF82AA83E002B4038082B6038102BC038182BE830202B4838282B6838302BC838382BE832402B403C482B603C502BC03C582BE834602B483CC8
:40720000682B683C702BC83C782BE836802B5038882B9831902BD038982BE838A02B5838A82B9839B02BD838B82BE83AC02B503CC82BD831D02BE82CD82BE83CE02B583C2B
