:400000000080002011000000C90C0000C90C000008B5044B1A6803F53F5302331A6000F06DFE00BFFA46004010B5054C237833B9044B13B10448AFF300800123237010BD62
:40004000B885FF1F000000008C700000084B10B51BB108480849AFF300800848036803B910BD074B002BFBD0BDE81040184700BF000000008C700000BC85FF1F0881FF1FE1
:400080000000000038B54FF0FF3001F071FE4FF07F4001F06FFE354D284601F06DFE022001F09AFE0C2001F08DFE01F0F9FE304C204601F061FE2F487821142202F0CEF872
:4000C000284601F059FE2C4878213C2202F0C6F82A487821502202F0C1F8204601F04CFE274BD3F8F0017821A02202F0B7F8002523E001F0CDF800BB6C1C224B1C4003D57A
:40010000013C64F001040134254601F0B4FD01F031FE00206421F0224FF4967302F0B8F84FF07F4001F026FE154B03EB0414D4F8F0017821A02202F091F801F0B1F8002854
:40014000D7D101E001F0ACFE01F0AAF80028F9D0074801F011FE0C487821A02202F07EF84FF4FA7000F0D2FF284638BD7872000000900000CC700000DC700000F870000036
:400180000C81FF1F010000801871000010B582B04FF0FF3001F0ECFD4FF07F4001F0EAFD1D4801F0E9FD022001F016FE0C2001F009FE01F075FE19487821282202F04EF80E
:4001C0004FF0FF2001F0D6FD0A24009428207821C822134602F07EF84FF0FF3001F0CAFD0F487821A02202F039F80E4801F0C2FD00942820DC21C8224FF4967302F06AF82B
:400200004FF0FF3001F0B6FD074878214FF4827202F024F802B010BD009000002871000040710000FF0000FF4871000010B50446B94801F0A1FD022001F0CEFD0E2001F0D3
:40024000C1FD2046B54906F04DFB58B978200D210C22082301F0B6FCB0487821F02201F0F5FF10BD2046AE4906F03CFB98B9782014210C22082301F0A5FCA9487821F022C7
:4002800001F0E4FFA74801F077FDA7489021142201F0DCFF10BD2046A44906F023FB58B9782014210C22082301F08CFC9F487821F02201F0CBFF10BD20469D4906F012FB27
:4002C00058B978201B210C22082301F07BFC98487821F02201F0BAFF10BD2046954906F001FB98B9782023210C22082301F06AFC90487821F02201F0A9FF8A4801F03CFD2B
:4003000089489021232201F0A1FF10BD20468A4906F0E8FA58B9782023210C22082301F051FC85487821F02201F090FF10BD2046824906F0D7FA98B978202A210C220823B9
:4003400001F040FC7D487821F02201F07FFF754801F012FD744890212A2201F077FF10BD2046774906F0BEFA58B978202A210C22082301F027FC72487821F02201F066FFD7
:4003800010BD20466F4906F0ADFA58B9782032210C22082301F016FC6A487821F02201F055FF10BD2046684906F09CFA98B9782039210C22082301F005FC63487821F02267
:4003C00001F044FF574801F0D7FC57489021392201F03CFF10BD20465C4906F083FA58B9782039210C22082301F0ECFB57487821F02201F02BFF10BD2046554906F072FA78
:4004000098B9782041210C22082301F0DBFB50487821F02201F01AFF424801F0ADFC42489021412201F012FF10BD2046494906F059FA58B9782041210C22082301F0C2FB20
:4004400044487821F02201F001FF10BD2046424906F048FA98B9782048210C22082301F0B1FB3D487821F02201F0F0FE2D4801F083FC2D489021482201F0E8FE10BD204688
:40048000364906F02FFA58B9782048210C22082301F098FB31487821F02201F0D7FE10BD20462F4906F01EFA58B9782050210C22082301F087FB2A487821F02201F0C6FE54
:4004C00010BD2046274906F00DFA98B9782057210C22082301F076FB22487821F02201F0B5FE104801F048FC0F489021572201F0ADFE10BD20461C4906F0F4F9B0BB78205F
:4005000057210C22082301F05DFB17487821F02201F09CFE10BD00BF009000005471000058710000007D00005C7100006071000064710000687100006C71000070710000DB
:4005400074710000787100007C7100008071000084710000887100008C7100009071000094710000987100009C7100002046BD4906F0B8F998B978205F210C22082301F002
:4005800021FBB8487821F02201F060FEB64801F0F3FBB64890215F2201F058FE10BD2046B34906F09FF958B9782064210C22082301F008FBAE487821F02201F047FE10BDF5
:4005C0002046AC4906F08EF958B9782071210C22082301F0F7FAA7487821F02201F036FE10BD2046A44906F07DF998B9782001460C22082301F0E6FA9F487821F02201F085
:4006000025FE994801F0B8FB98489021782201F01DFE10BD2046994906F064F958B9782001460C22082301F0CDFA94487821F02201F00CFE10BD2046914906F053F998B950
:4006400078207F210C22082301F0BCFA8C487821F02201F0FBFD844801F08EFB834890217F2201F0F3FD10BD2046864906F03AF958B978207F210C22082301F0A3FA814872
:400680007821F02201F0E2FD10BD20467E4906F029F998B9782087210C22082301F092FA79487821F02201F0D1FD6F4801F064FB6E489021872201F0C9FD10BD204673495E
:4006C00006F010F958B9782087210C22082301F079FA6E487821F02201F0B8FD10BD20466B4906F0FFF858B978208E210C22082301F068FA66487821F02201F0A7FD10BD53
:400700002046644906F0EEF898B9782096210C22082301F057FA5F487821F02201F096FD514801F029FB51489021962201F08EFD10BD2046584906F0D5F858B97820962196
:400740000C22082301F03EFA53487821F02201F07DFD10BD2046514906F0C4F898B978209D210C22082301F02DFA4C487821F02201F06CFD3C4801F0FFFA3C4890219D22B4
:4007800001F064FD10BD2046454906F0ABF858B978209D210C22082301F014FA40487821F02201F053FD10BD20463E4906F09AF858B97820A5210C22082301F003FA3948E1
:4007C0007821F02201F042FD10BD2046364906F089F898B97820AC210C22082301F0F2F931487821F02201F031FD1F4801F0C4FA1E489021AC2201F029FD10BD20462B490E
:4008000006F070F858B97820AC210C22082301F0D9F926487821F02201F018FD10BD2046234906F05FF858B97820B4210C22082301F0C8F91E487821F02201F007FD10BD61
:4008400020461C4906F04EF8B0BB7820B4210C22082301F0B7F917487821F02201F0F6FC10BD00BFA0710000007D00005C710000A4710000A8710000AC710000B07100005F
:40088000B4710000B8710000BC710000C0710000C4710000C8710000CC710000D0710000D4710000D8710000DC710000E0710000E4710000E87100002046204906F012F8F7
:4008C00098B97820BB210C22082301F07BF91B487821F02201F0BAFC194801F04DFA19489021BB2201F0B2FC10BD2046164905F0F9FF58B97820BB210C22082301F062F9F0
:4009000011487821F02201F0A1FC10BD20460F4905F0E8FF58B97820C3210C22082301F051F90A487821F02201F090FC10BD08487821F02201F08AFC10BD00BFEC710000FB
:40094000007D00005C710000F0710000F4710000F871000038B5002411E0C4EB041514202918DC2205F1150300F0A2FC142005F17801DC2205F1790300F09AFC0134042C27
:40098000EBDD38BD30B587B004464FF0FF3001F0EFF94FF07F4001F0EDF9022001F01CFA0C2001F00FFA01F07BFAFFF7D3FF3C4B03EB041303F5F67301AC0FCB84E80F008C
:4009C000039D2868FFF732FC364801F0D5F905A83549002205F062FF344864214FF48C7201F03CFC05A8A0214FF48C7201F036FC00244FE000F04CFC00284BD100F048FC83
:400A00000028FBD04FF0FF3001F0B4F955F82400FFF70CFC234801F0AFF9244864214FF48C7201F01BFC05A8A0214FF48C7201F015FC4FF07F4001F09DF9FFF78BFF01341F
:400A400005A81949224605F029FF049BA34211DC17487821F02201F001FC144864214FF48C7201F0FBFB05A8A0214FF48C7201F0F5FB13E00D4864214FF48C7201F0EEFBF8
:400A800005A8A0214FF48C7201F0E8FB55F82400FFF7CCFB00F004FC0028ABD107B030BD0C81FF1F007D000004720000087200001072000010B562B600F0EEFA01F020FAF3
:400AC000002400E00024012C07D0022C18D0002CF8D1FFF75BFB0124F5E700F0D9FB28B900F0D6FB0028FBD00224ECE700F0D8FB0028E8D100F0D4FB0028FBD00324E2E7DA
:400B0000FFF7C0FAFFF73EFF0024DCE710B50446002000F0CFFA204600F080FA00F072FA10F0010FFAD010BD10B50446012000F0C1FA204600F072FA00F064FA10F0010F35
:400B4000FAD010BD70B506460D46012000F0B2FA002408E0305D00F061FA00F053FA10F0010FFAD00134AC42F4DB70BDFEE700BFFEE700BF08B50120FFF7C8FF0A2000F046
:400B8000C5FA3620FFF7C2FF8820FFF7CDFF3A20FFF7BCFF5520FFF7C7FF1120FFF7B6FF2920FFF7B3FFFA2000F0B0FA08BD00BF024A136801331360704700BF84A7FF1F91
:400BC00010B500F047FB002409E0204600F058FB20B92046064900F04BFB02E00134042CF3D9042C02D9002000F08EFA10BD00BFB10B000008B5FFF7E3FF08BD08B5044823
:400C00004FF4005100F0A0FC024801F013F908BDD485FF1FCCAE000008B5FFF7ABFF08BD30B5A1B000241B941C941D941E941F9401A82146682205F029FE154815492246CD
:400C4000234601F063FA05462046F0214FF4A07203F016FA2046F0214FF4A07203F028FA02231D9328461BA901F045FF0A4B01930A4B02930A4B04930A4B06930A4B0893E9
:400C8000284601A9094A0A4B01F053FF21B030BD68B6000010B600000D0B0000290B0000450B00006D0B0000710B0000A535000005320000012904D108B5FFF7ADFF002070
:400CC00008BD4FF0FF307047FEE700BF08B5094B1A681044084BC31A802B02DC054B186005E005F081FD0C2303604FF0FF32104608BD00BF1485FF1F00A9FF1F08B5104E31
:400D0000104D16E029686B68AC68002204E051F8040B43F8040B0432A242F8D1E868002203E0002143F8041B04328242F9D11035013E002EE6D105F05DFDFFF7BBFEFEE77D
:400D40000100000008BC000008B5124A124B1A60124A136843F40073136000230AE0032B03D80F4A52F8231000E00E490E4A42F8231001332F2BF2D90C4B1A780C4B1A70BF
:400D8000094A0C4B1A6000F0ADF800220A4B1A6008BD00BF0004FA050CED00E014ED00E000000000C90C00000080FF1FBC7600400481FF1F08ED00E00081FF1FFEE700BFA8
:400DC000F0B40022174611E050F82760F3B226F0FF0608E001EB420511F812406D78A5550132013BDBB2002BF4D101370F2FEBD9F0BC7047064B1B78DBB203F00701054AB7
:400E000011701B09013213704422034B1A707047CF0100496E5800407658004008B50A46002105F033FD08BD38B50323244A1380182102321170022102F27E2211700822B9
:400E40004FF040210A7001F500710B701D4B1B78DBB201F2A1410B701B4B1A8041F25122023B1A80002419250CE0184B1B7803F0010343EA440404F003044FF4F07000F0E3
:400E800033F9013D0DB1032CEFD115B90320FFF795FF0F4B4FF480721A8007221A7000220C490A704820023108701A700222033B1A70094A137843F00103137038BD00BFFE
:400EC000804000400801004922420040254200400440004006400040A243004008B505F0AFFC08BD70B572B62A4A137843F00403137000240CE0284963001A1952000A4444
:400F000023445B00C8589188FFF788FF0134E4B2072CF0D94FF090402049FFF751FF204A137843F0020313701032137843F0020313701C4C237843F040032370A2F5863221
:400F4000513A137843F010031370174817490A22FFF7C4FF164817490822FFF7BFFF164816490A22FFF7BAFF154A137843F008031370144E01253570FFF756FF8123337050
:400F8000114B1D70FFF736FF104821460E22FFF7A5FF70BDE8460040487200004000004803500140A0430040F0510040BC02004822510040C802004860510040D0020048A9
:400FC000224300400048004004000840B043004008B500F091F80A4A137843F020031370013A137843F010031370013A137843F01003137000F084F800F068F808BD00BFF9
:401000009F640040014B1878704700BF6E640040014B1878704700BF6D640040034B1B7813F0040FFAD0024B187070476E6400404D64004008B501E00A4B1B780A4B1B78E8
:4010400013F0200FF8D100F057F8084B1A7842F001021A701A7802F0FE021A7000F050F808BD00BF5D6400406D6400409D64004008B50F22064B1A70FFF7DCFFFFF7C2FF24
:40108000FFF7C6FF0023034A1370013A137008BD8F6400408E64004008B5054B1B7823B9FFF7E6FF0122024B1A70FFF791FF08BDD4A5FF1F044A137803F0DF03400100F088
:4010C000200018431070704720510040054A137843F0010313701032137843F001031370704700BFA24300400230800803D000BF01380046FCD17047EFF3108072B6704737
:4011000080F31088704700BF01BE704710B5044605E0084B1868FFF7E7FFA4F50044B4F5004FF6D8034B586800FB04F0FFF7DCFF10BD00BF1885FF1F70B504460E46074B48
:401140001D680F2802D90020FFF7DEFF04F00F0455F8240045F8246070BD00BF08ED00E0024A136843F002031360704710E000E008B5FFF7F5FF034A136843F001031360D9
:4011800008BD00BF10E000E020F07F40014B1860704700BF14E000E0012805D1054A136843F0040313607047024A136823F004031360704710E000E0024B1868C0F3004036
:4011C000704700BF10E000E010B5FFF7F5FF01280BD107E0054B03EB84035B6803B19847013400E00024042CF4D910BDD8A5FF1F0022014B1A60704718E000E008B50023FE
:4012000005E00F4A02EB8302002151600133042BF7D90F200B49FFF78FFF0120FFF7BCFF094BDB680948A0FB03308009FFF7ACFFFFF7DEFF4FF40042054B1A6008BD00BF9A
:40124000D8A5FF1FC91100001885FF1FD34D621000E100E008B5054B9B6923B9FFF7CEFF0122024B9A61FFF783FF08BDD8A5FF1F024B03EB8003586859607047D8A5FF1F6F
:40128000024B03EB80004068704700BFD8A5FF1F024B1878C0F34000704700BF61510040024B1878C0F34010704700BFF15100402DE9F7431E4CD4F800E0DEF85050DEF8F8
:4012C0004C406F181D449EF818302618013B9BB21444F21AADF800201A19ADF804206846FA1A2B44ADF80220ADF8063003F0CCFBD8B107F1010805F1FF392246394630460E
:4013000002F0D0F922462946304602F0CBF94A464146304602F0EEF94A464146204602F0E9F903F0EFFA0028E7D103B0BDE8F0832885FF1F074B10B55A685C6A01325A605A
:401340005A6B02EBC0014C60002102F83010586210BD00BF88A7FF1F10B50E4944680F2301EBC302126C94420A4A03D213F1FF33F6D210BD0F2B0CD81168091B1160816858
:40138000C06801B1486008B1016010BD02EBC303596410BD88A7FF1FF8B5274E0546F368B26B013B0818134498420C4605D84B591BB943681D44FFF7CFFFB36B9C420BD971
:4013C00054F8043C5B42E718E3582BB97B6838461D443C46FFF7C0FF0F2306EBC302126C954203D213F1FF33F7D223E00F2B21D8083306EBC30251686019002284E8240091
:40140000A160246140F8045C04F1080001B1486006EBC303A160E260586033680649EA1896F8293032602BB9CB689B1A8A68934288BF8B602846F8BD88A7FF1F2DE9F74F8F
:40144000234F8346B846FE68BC6B013E264494E82800A3BB61198E4231D954F805A0BAF1000F2CD07B6B13F83A30012B27D1D8F82C302046D1F8049000930191FFF76CFF0C
:401480000199D8F83420086802EBC002546020464A4605F0E0F9009B04EB09019A4508BFD8F83430284604BF5B1BC8F83430FFF773FFBBF1000F01D0584505D24D462C4433
:4014C000A642C4D8012000E0002003B0BDE8F08F88A7FF1F28B1034BDA6B026002B15060D863704788A7FF1F034B5B6B03EBC00040680830704700BF88A7FF1F054BDA69BB
:401500000132DA615A6B12F83030013302F83030FFF7EABF88A7FF1F30B50368094953F8085C4C6B14F83530012B03D9CA690AB1013ACA61013B04F835300023036018463E
:4015400030BD00BF88A7FF1F024B21F00301186059607047F4A5FF1F10B5044660B1074B5B6B03EBC00359684868FFF715FF2046BDE81040FFF7DEBE10BD00BF88A7FF1F47
:401580002DE9F041224CE36A3BB9224B9D685B680835B3FBF5F5023503E023691D1D05EBD305E80000F0C2F8804660B3616B226901EBC0035E68184B08361B68D2003046E0
:4015C000E76A9847226966631346C4F82C80691E8B4205D2013306EBC30040F8043CF7E706EBC3064FF00008C6F80480636862629B1A2B446360256138463FB1FFF7ACFFEF
:401600004046BDE8F0810120BDE8F081BDE8F08188A7FF1FF4A5FF1F4885FF1F70B5184A92F8283053BB012382F82830154B1021D960996811B95968890899605A21116297
:401640001026002102EBC10006FA01F5013110290B4C0564F6D158681968A0F114030B440125022222616363A163E0605D6065626560FFF791FEFFF783FF256370BD00BFB4
:4016800088A7FF1FF4A5FF1F2DE9F0410746264E0337FFF7C3FF27F00307306C0437F26B874238BF0746144634B154F8043C9F4223682CD01C46F7E7F368B26B02EB0308E7
:4016C00058F8045CC5EB08052B6833B12046FFF7B5FE58F8045CC5EB08052B680BBB6B689F421EDC28461C1DFFF736FEF3686868DB1BF3607369E41B3B44C01B2C447361C5
:4017000002D02946FFF748FE44F8047C09E00BB161685960616801B10B60A24201D12368F3632046BDE8F08188A7FF1F2DE9F8430446394EFFF772FF356C3368AC4224BF6D
:40174000033424F003050C35AB42334C3ED3236B62689A420FD97368776A013B7360736B4FEAC70803EB080252687262012203F8372057B92AE0013B2363FFF701FF236B30
:40178000013323630028E6D020E00F2306EBC302126C95420CD213F1FF33F7D208E094682CB16268954214D9A268002AF7D101330F2B03D806EBC302526CF6E72846FFF72E
:4017C0003DFE0028E1D03846FFF7B4FD0020BDE8F883D4F80490336CC5EB09020C339A4238BF4D462046FFF7B7FD736B611998444D454FF00003C8F8044027606560A360A6
:40180000246141F8045C03DAC5EB0900FFF7C4FD3846BDE8F88300BF88A7FF1F08B1FFF785BF704773B50646FFF7F8FF054660B1FFF764FE064B02AC44F8040D1B6832468D
:40184000002198472046FFF767FE284602B070BD4C85FF1F4D4B2DE9F04F1A688BB0D169CC69A389984208DBE589854205D32568C31A06954FF0FF3613E0A368002B7CD06E
:401880001D88A84279DB5E88864276D35B68401B666880B203EB8005069633F92030B5F90260581C099368D091F818B0A17CB2F92A900BFB01F34846B2F92270B2F9248066
:4018C000079394F810A001F0B7FE079B089018462E4D099B2968CA69896B0591069900FB03100490A37C4146039301230293D37E38460193937E524600935B4602F03CF8CB
:40190000731C1AD049F0020001F096FE2A680699D369926B38460592079A02FB06160496A27C4146039201220292DA7E01929B7E524600935B4602F01FF82B68DB695A7E22
:401940001B7E9A4215D9B9F1020F12D089F0040001F072FE0D4B1B68D869437E827E017EC07E434400FB01810AFB0272384601F0EBFE9DF8200001F05FFE044B617C1A6869
:40198000538C0B4453840BB0BDE8F08F2885FF1F044B1B68DB69DB6909B11A7C0A60587C704700BF2885FF1F02230B807047C3699A89914202DBDA898A420FD2986880B1A8
:4019C000038899420CD342888A4209D3C91A436833F82100C043C0F3C0307047012070470020704738B103888B4202D843888B4201D28068F6E770472DE9F04F384C89B036
:401A000023680646B3F92A80DB690146D869FFF7E9FF002860D005884768751B07EBC506404696F802A001F007FED4F800C017F83520DCF81CE0DCF838309EF818B0BCF933
:401A400024108146BCF92200059373684FF0010C0493CDF80CA0CDF808C09EF81BC05B46CDF804C09EF81AE0CDF800E001F084FF2368DA69537E92F818A00793534520D9F0
:401A8000B8F1020F1DD092F81BB000F0FBF8804600F0F1F800F06EF9226817F83550B2F92410B2F92200D269079BD27E0BFB031305FB02020BFB0A1101F046FE404600F06E
:401AC00059F9484601F0B8FD23687178DA69907E5A8C00FB01225A8409B0BDE8F08F00BF2885FF1F38B50C4B02461B680C46DD690146E869FFF776FF60B103884168D21A77
:401B000001EBC200AB7E407858431CB111F832205343236038BD00BF2885FF1F01230B80704708B5C069FFF75DFF003018BF012008BD2DE9F04F0746144698465B4385B083
:401B4000019302FB02F302910093002500F1FF3A6E1CB04533DB06FB06F0009B5843019BB0FBF3F0009B181A03F05EFA844208BF0446029B18BF04F1FF345B1BC4EB070BC4
:401B80003C44194622468146384603EB4505039301F088FD039B52461946584601F082FD012E09DD52462946584601F07BFD22462946384601F076FD35464C46C8E705B065
:401BC000BDE8F08FF7B50D4616461F46044600F0A3F8144B01301B684010DA6C1B6D06441444A2B21D44B3B2D11A07441344ADF80430AAB2BBB2ADF800106846D11A13446B
:401C0000ADF80210ADF8063002F03EFF40B13B46324629462046FFF78CFF02F073FEF5E703B0F0BD2885FF1FC3B2CAB29A1A92B210B514B2002CBCBF524214B204FB04F2CF
:401C4000C0F30723C1F307241B1B9BB21CB2090C002CC1EB1041B8BF5B4289B208B2B8BF1CB204FB04230028BCBF494208B280B200FB003010BD08B502F0EEF8BDE8084011
:401C800001F0F0BF08B502F0EFF8BDE8084001F0E9BF10B538B309B30AB3B2F90040B1F90030A342A8BF2346B2F902400380B1F90230A342A8BF2346B2F904404380B1F968
:401CC0000430B2F90620A342B8BF23468380B1F906309342B8BF1346C38010BD11460B6803604B68436010BD68B1038889B20B440380838892B219444388818013444380EF
:401D0000C3881A44C2807047024B1B6858849984002070472885FF1F014B1B68187E70472885FF1FB0F90220B1F906309A4214DCB1F90220B0F906309A420EDCB0F90020FE
:401D4000B1F904309A4208DCB0F90400B1F900308342CCBF0020012070470020704708B502F056F902F0BCF9BDE8084002F00CBF01F0BEBF01F0C2BF034B1B68DA6900B12B
:401D8000D8611046704700BF2885FF1F094B10B41880094B0A461980084B1B68597C084B53F82130D9680C6A01461846234610BC184700BF70A8FF1F60A8FF1F2885FF1FF6
:401DC00098A8FF1F034B1B68B3F92C2098851046704700BF2885FF1F034B1B68B3F92A2058851046704700BF2885FF1F70B50B4D00240B4E45F8044B336870222146284645
:401E0000984733680422214606489847064B1D60064B1C70064B1C6070BD00BF04A6FF1F4C85FF1F98A8FF1F2885FF1F80A8FF1F5CA8FF1F014BD860704700BF2885FF1FFD
:401E40002DE9F3410446042016461F460D4601F0F3FB124B80461B686846DA6C1B6D14441D4416441F44ADF80040ADF80460ADF80250ADF8067002F007FE28B9404601F0D0
:401E8000DBFB02B0BDE8F0813B4632462946204601F05AFC02F036FDEFE700BF2885FF1F002110B50846FFF72FFFBDE8104043F6FF7302491A460846FFF7C2BF01C0FFFFC3
:401EC000024BDA6FD8674260704700BF04A6FF1F10B5094C23686BB901232360FEF78EFEFEF79EFE2046BDE81040044B40F8803FFFF7E6BF10BD00BF04A6FF1FED1D000011
:401F000070B5FFF7E5FF2F4B2E222F4C2F4D1A70FEF770FE2E4B04F10C0123672B681A1DDA6303F10802A2615A7C9B631B64294B53F82200C3681B6B9847274B6366EB6895
:401F400023622B680833A36101232377E37702F015FF032384F86830204BE064606F6363A36301F0C5FEA86801F0C8FE1C4A1D4B1A6001F021FE054601F0E0FF064601F03D
:401F8000E3FF06B140B901F0CDFF064601F0CDFF0146304601F0CCFF00210846FFF7F6FE02F044FEA36F43B1A36F33B11B6803B19847A36F5B68A367F6E70B4B01221A70F2
:401FC000284670BD51A8FF1F04A6FF1F2885FF1FECB5000098A8FF1FE4B50000785634FF00B6000090A8FF1F78A8FF1F002809DC054B53F8200020B1C3681B681BB100683E
:40200000F9E770470020704798A8FF1FFFF762BAF8B51C1E06460D46174601DD0020F8BD1C20FFF731FB0028F8D00DB1056109E0084B53F8241029B10B680BB11946FBE7B5
:402040000B6903610023836084618782C66003604360F8BD98A8FF1F81690A4A52F821309842036804D142F821300BB100225A60426802B11360036803B15A600023036010
:402080004360704798A8FF1F30B508B9012030BD8469002CFADC1B4B1A789442A4BF01221A70194A52F8243015461BB942F82400184630BD5A680AB11346FBE7C2681268B2
:4020C000D9680968914203DD1B68002BF8D1DDE709D1818A012906D1196821B10B46C96809688A42F8DD5A6812B11060426001E045F824005860984208BF0023036000209B
:4021000030BD00BF49A8FF1F98A8FF1F38B51D46FFF77EFF044648B1FFF7B6FFE3681B6823B9034B16351B6843F82540204638BD2885FF1F2DE9F04F054685B000287FD0FD
:4021400002F09CFF404C07462368A146B3F9228002F07CFF226886B2938C9B1B93842B78002B61D047F6FF71284602F0EFFF01468246284603F014F82268938D03F0030305
:40218000012B04D0022B04D190FBF3F302E0034600E00023518C1FFA80FBCB1A9BB219B25184ADF80810B2F924200BF1FF310B44ADF80C30ADF80A20BBB2013A1A44ADF8B9
:4021C0000E20514602AA2846019303F019F82268BDF80A1028469184514600F0FFF82A5C05EB000E0A2A019B01D00D2A12D12268918D01F00301013901298ABF118CA2F84E
:40220000228051849EF800100A290AD1918C0B44938406E0BDF80800D9F800308344A3F822B09EF8003043B923689A8C16449A8D9E8422F003029A8502E00EF101058EE770
:4022400005B0BDE8F08F00BF2885FF1F024B1B6859849A84FFF76EBF2885FF1FF8B50B4B05461B680E46B3F92C00174640F00200FFF7A8FD04463A4628463146FFF7E6FF91
:402280002046BDE8F840FFF79DBD00BF2885FF1FF7B50F4C2568EC6C2D6D26186F1814441D446846ADF80060ADF80440ADF80270ADF8065002F0E8FB40B12B462246394631
:4022C000304601F041FA02F01DFBF5E703B0F0BD2885FF1F2DE9F04F314D8BB02E68149CF56C366D05EB000A06EB010B15441E4408A8ADF820A0ADF82450ADF822B0ADF8D7
:40230000266002F0C1FB002847D06300009304FB04F30193CBEB060301330593CAEB050301330693059B009A934232DB1346069A93422EDCA0465F460BEB040302930AEB8F
:40234000040303932B1B0493029B9F421ADC019B08FB183002F068FE049A039B02EB00091B1A394618464A46079301F09BF9079B311B41444A46184601F094F9013708F12D
:40238000FF38E1E7331B013B2A463946504601F0DBF902F0B7FA0028C4D10BB0BDE8F08F2885FF1F024B1A6802B9186000F032B894A6FF1FF8B5084E0468336805461B6834
:4023C00020469847336807465B6820469847204428603846F8BD00BF90A8FF1FF8B506460D46064F00243DB13B6830465B689847013D06440444F6E72046F8BD90A8FF1FE8
:402400000078704701207047012070470170012070470000024B1B6803B11847704700BFF4A6FF1F074A00F01F01C0F3C423D35C525CC0F3451003EB0243034A105C03EBA9
:4024400000207047F0B90000B0B90000074AC1B2C0F30743D35C525CC0F3072003EBC223034A105C03EB4010704700BFB0B70000B0B600004FF6FF7070470000F0B5DFF807
:4024800054E00646DEF800E00D4614461F46BEF1000F03D0F446BDE8F04060470B490C4856F8042B013CC2F307435FFA82FECB5C11F80EE0C2F30722825C03EBCE2303EBAC
:4024C00042132B803D44EBD1F0BD00BFB0B70000B0B60000FCA6FF1FF0B5154E864676680F4614461D461EB1B446BDE8F0406047501E02F1804103FB00E0013907EB8101EF
:402500000C4E0D4F0288013C02F01F0316F803E04FEAD223F35CC2F34512BA5C03EB0E4303EB022341F80439A0EB0500EAD1F0BDFCA6FF1FF0B90000B0B9000010467047DB
:402540004068801A01387047084670470068401A0138704710B48468D4F8F840A44610BC60478368D3F8F4301847F7B5164604460D468768FFF7F5FF0190019ABB6A2946EA
:40258000534020463246FFF7E5FF03B0F0BD13B584680092D4F8F040A04702B010BD13B584680093D4F8F0400B46A04702B010BD10B48468D4F8F040A44610BC604730B4E1
:4025C0008468D4F8EC40A44630BC60477047000073B5079E84680C4D76B1286888B906980090D4F8A8602046B047D4F8A8302B60064BC4F8A83004E02B6813B1C4F8A83077
:402600002E6002B070BD00BF04A7FF1FCD250000026CD0F8DC3090691847026CD0F8E030906918472DE9F34791468A4698460A9C85680B9F00942846D5F8A860B04739461C
:40264000C9EB0404CAEB0806621C286C06FB0222D5F8E430806902B0BDE8F04718472DE9F34791468A4698460A9C85680B9F00942846D5F8A860B0473946C9EB0404CAEB1D
:402680000806621C286C06FB0222D5F8E830806902B0BDE8F04718470139172928D8DFE801F01427272727272727270E101219290C272727272727231E250F4870470F4869
:4026C00070470F4870470F48704703689B68D3F80401704703689B68D3F8FC00704703689B68D3F80001704707487047074870470020704706487047CB2A0000B72A000077
:40270000A32A0000492A0000AD290000D1250000E12A0000013980680D2923D8DFE801F0090B0D0F2222221125070713181D01207047006870474068704780687047C06838
:402740007047806B704788B1406B00F00100704760B1406BC0F34000704738B1406BC0F3800070474FF0FF30704700207047836801290CBF586C00207047826800230B8081
:402780004B801368013B8B805368013BCB807047F0B5104C91B06D46264607460FCE0FC596E80F00203485E80F000FCC08AD0FC594E80F0085E80F007B6B10AA02EB830359
:4027C00053F8402C53F8203CC7F80821C7F80C3111B0F0BD28B6000007B580698DE806006A460321FEF766FA03B05DF804FB08467047084670470846704710467047104689
:402800007047104670474068801A013870470068401A013870470068401A013870474068801A013870474068801A013870470068401A013870472DE9F34184689846E38CA5
:402840000E469B0717462ED5D4F80831204698470546D4F80C313A46314620469847A36922699D42D4BF002301239542B8BF43F00103626906469042B8BF43F0010313B9F0
:40288000E36998420ADD62682368013A00920022D4F8A870013B11462046B847D4F8AC303246294601E0D4F8AC302046984741462046D4F8A43002B0BDE8F0411847F7B56E
:4028C00084680E46E38C17469B0743D5D4F8083120469847D4F80C31314605463A4620469847D4F8983006461BB10022012120469847A36922699D42D4BF002301239542DC
:40290000B8BF43F0010362699642B8BF43F0010313B9E3699E420ADD62682368013A00920022D4F8A870013B11462046B8472946D4F8AC30324620469847D4F8A0302046C3
:402940009847D4F8983005467BB101220021204698470AE0D4F8AC30204698472046D4F8A03003B0BDE8F0401847284603B0F0BD38B5856804469DB94FF4BE70FEF784FEF4
:40298000084B4FF4BE721B68A06029469847A3680222DA8401221A62034A1C64C3F8102138BD00BF4C85FF1F9127000070B506460D461446FFF7DCFFB368002B3BD0262DAD
:4029C00002D0272D16D070BD9A6B102A02D0122A08D070BD184AC3F8DC40C3F8B820C3F8B42070BD154AC3F8E040C3F8BC20C3F8C02070BD9A6B102A02D0122A0ED070BDD3
:402A00003CB10F4AC3F8E440C3F8CC20C3F8C82070BDC3F8CC40C3F8C84070BD3CB1094AC3F8E840C3F8D020C3F8D42070BDC3F8D040C3F8D44070BD112600001B2600005A
:402A4000252600005F26000070B50646FFF790FF4FF4FA70B568FEF717FEA866B0FA80F4A86B2B680730C0105843FEF70DFE002200284FF00101E866B0694FEA541408BFEE
:402A80000124FEF717F9D5F810310443284698472846D5F8B0309847002CD4BF0020012070BD70B506460D461446FFF761FFB3681D605C6070BD70B506460D461446FFF71A
:402AC00057FFB3689D60DC6070BD10B50446FFF74FFFA06900220621BDE81040FEF7EAB810B50446FFF744FFA06900220521BDE81040FEF7DFB838B50C460546FFF738FFFD
:402B00002268AB68DA6262681A63A2685A63520707D51A68596883E806009A68D968DA609960A2899A84226912B122EAE2721A6238BD2DE9F041044688461E461746FFF7D1
:402B400017FFA5686822414605F58A7003F078FE2046B8472046B04723699B689847A862BDE8F0810B0A80F8713080F87210D0F820310221713018472DE9F0411546044624
:402B8000806E0E460021A5B1034636F8022B0131170AFA2903F8027B427007D1D4F820314FF4FA71A06E9847A36E0021013D1846E9E731B1D4F82031A06E4900BDE8F041BE
:402BC0001847BDE8F08108B5D0F8B830984708BD89B2FFF7C7BF00002DE9F04F3E4E82468568306885B0007C884610F0010F14469946A3EB01003DD043000393471C0E9B21
:402C00009C4266DCD5F8CCB0EE6EBBF1000F01D1C34607E08DE850004B46224641465046D8470DE0CB450ADC5946D5F8F4302246504698470BF1010B26F8020BF2E7EE6EA0
:402C4000039AB31E1644B34205D0A96A33F8022F4A401A80F7E7009422464B4641462846D5F8A860B0473A46E96E2846FFF784FF0134C4E70E9FBC1A671C00FB07770E9840
:402C80000090D5F8A8402846A0473368AE6EDB6B1C680123C4F3072906EB030AE4B2C7B1B846F92F28BF4FF0F9084FEA48013BB9D5F8203150469847C8EB07070023EEE7D3
:402CC000334672189342F3D083F8019003F8024FF8E705B0BDE8F08F2885FF1F2DE9F04F8FB00393836805900993199B0691082B08920CD8199A4FF48B73D340DB0706D558
:402D0000984B1B681B7C03F00303022B10D0069B1C9A18989918089A039B0244013A0092099ACB18D2F8A840013B089A0998A047039B1C9A013B0D93069B089F1344049381
:402D4000049A0D9B13440C93089B189AFB1A9A4240F35382199B013B0F2B00F24882DFE813F01000C10046024801460246024602D80146024602460246024602460246020E
:402D80004102059B9C681D9B5B680B93754B1B681B7C03F00303022B22D0032B76D0012B74D01D9B039E1C9DDDF86CB0B3F80090BDF82CA04FF080089BF8002048FA05F3CA
:402DC0001A4214BF5146494601352046FFF7CAFE082D04BF0BF1010B0025013EECD106E21B9B00250A932B46DDF810B0D4F86CA0DDF87080CDF81CB00A9A92F8009080220F
:402E000042FA08F219EA02090DD01BB9D4F86CA0DDF81CB0BDF82C300135AAF800300AF1020A012313E0012B10D1079B0097013B3A4659462046D4F8A860B0472A46E16E5C
:402E40002046FFF799FE4D464B4600E04B46079A08F101080132B8F1080F079208BF0A9A039904BF01320A92049A08BF4FF000080A4407999142BFD1002D00F0B881009718
:402E8000D4F8A8600C9B3A465946A5E1039B049A1C9DDDF86C80079303EB020A4FF0800B079B98F80020C3EB0A094BFA05F31A420DD0D4F8F4303A46494605989847A36ACD
:402EC0003A46434049460598D4F8F860B0470135079B082D04BF08F101080025013B0793DED184E1059B9C681D9B002B00F07F811B9B93F800B01B4B1B681B7C13F00303B6
:402F00000FD0022B40F07381049B00260A931B9BD4F86CA0DDF870900B93DDF81080324645E01C9D039EDDF86C904FF0C008C5F103035A00C2F1060348FA03F303EA0B03C5
:402F4000D3401D9A013532F823102046FFF70AFE042D02BF99F801B0002509F10109013EE5D144E12885FF1F1AB9D4F86CA0CDF82880079A1D9B013653F822300AF1020A02
:402F80002AF8023C012209F10109B9F1040F08F1010806D10B9B4FF0000993F801B001330B93049B03990B44984500F0A680C9F103056D00C5F10603C02141FA03F303EA8E
:402FC0000B03EB400793CFD1012A10D1009708F1FF333A460A992046D4F8A850A8473246E16E2046FFF7C8FD079E3246CBE7079AC9E7059B9C681D9B002B00F0F8801B9BA7
:4030000093F800B07E4B1B681B7C13F003030FD0022B40F0EC80049B00260A931B9BD4F86CA0DDF870900B93DDF81080324642E01C9D039EDDF86C904FF0F008C5F1010343
:403040009A00C2F1040348FA03F303EA0B03D3401D9A013532F823102046FFF783FD022D02BF99F801B0002509F10109013EE5D1BDE01AB9D4F86CA0CDF82880079A1D9B32
:40308000013653F822300AF1020A2AF8023C012209F10109B9F1020F08F1010806D10B9B4FF0000993F801B001330B93039B04990B44984521D0C9F10105AD00C5F104039C
:4030C000F02141FA03F303EA0B03EB400793D0D1012A10D1009708F1FF333A460A992046D4F8A850A8473246E16E2046FFF744FD079E3246CCE7079ACAE7002E77D0009791
:403100003A46D4F8A8500C9B0A992046A847324665E0059B9C681D9B002B68D0384B1B681B7C13F003030FD0022B60D1DDF818A0039A00255244D4F86C80DDF86CB0CDF8FA
:403140001CA02B460A9224E01B9D039B1B9A5B1B1344002B4BDD15F8013B1D9A204632F82310FFF7FFFCF0E71BB9D4F86C80DDF81CA01D9B013553F8293008F1020828F8FA
:40318000023C0123079A0132079207990A9A914219D01BF8019BB9F1000FE5D1012B10D1079B0097013B3A4651462046D4F8A860B0472A46E16E2046FFF7DEFC4D464B463F
:4031C000E0E74B46DEE70D9B069A13447DB13A4651460097D4F8A8602046B0472A46E16E204602E0039A1B990998FFF7C5FC1B9B1A9A013713441B93A6E50FB0BDE8F08F41
:403200002885FF1F10B50446FFF7B2FBA468104B0821C4F8EC300F4B2046C4F8F0300E4BC4F8F4300D4BC4F8F8300D4BC4F8A0300C4BC4F8A430D4F8CC30C4F80431D4F848
:40324000943098471023A363074B636410BD00BFDD2C0000D92B0000BF28000037280000C72B0000D12B000038BA00002DE9F04104460E461546D0F88C302A219847E16A61
:40328000D4F8903031442046C1F30F219847E16AB7B23944D4F890302046C9B29847E16AD4F8903031442046C1F30F219847E16AD4F8903039442046C9B29847D4F88C3056
:4032C00020462B219847216BD4F8903029442046C1F30F219847216BAEB23144D4F890302046C9B29847216BD4F8903029442046C1F30F219847216BD4F890303144204641
:40330000C9B29847D4F88C302046BDE8F0412C2118472DE9F041044688461F461646D0F88C302A21069D9847E16AD4F8903041442046C1F30F219847E16AD4F89030414471
:403340002046C9B29847E16AD4F8903039442046C1F30F219847E16AD4F8903039442046C9B29847D4F88C3020462B219847216BD4F8903031442046C1F30F219847216BA1
:40338000D4F8903031442046C9B29847216BD4F8903029442046C1F30F219847216BD4F8903029442046C9B29847D4F88C302046BDE8F0412C21184713B504466B460D4ACF
:4033C0001068516803C3D4F88C302046362198472046636B02AAA18C134413F8083C21F0E0011943D4F8903089B202B0BDE81040184700BF9CB6000013B50446D0F81431B4
:403400002E209847216AD4F83031684603319847236A0DEB03021DF803305078DB088008DB0243EA4013907843EAD00002B010BD1FB50446D0F834312E209847216AD4F831
:403440005031684602319847226A0DEB42035B88C3F3C4005B1103F4FC6303433DF81200000200F47840184304B010BD70B505460C46D0F81431080A9847D5F81431E0B2A8
:40348000BDE870401847D0F8343108461847D0F81831C8B21847D0F83831084618470000082902D0102905D07047064BC0F88C30054B03E0054BC0F88C30054BC0F890306A
:4034C000704700BF6D3400008F3400008734000097340000F0B585B00A9F8568BC1A581A0097013400FB0444D5F8A87028460B9EB847D5F814312E209847D5F83031296AAA
:4035000002A89847D5F83031032102A898479DF80930013C4FEA93029DF808304FEAD3034FEAC32343EA42139DF80A2043EAD20326F8023BE6D105B0F0BDF0B587B00C9F15
:403540008568BC1A581A0097013400FB0444D5F8A87028460D9EB847D5F834312E209847D5F85031296A02A89847D5F85031022102A89847BDF80A30013CC3F3C4024FEA66
:40358000631303F4FC6343EA0203BDF808204FEA022222F4FF6243EA020326F8023BE4D107B0F0BD10B50446FFF7E2F9A368114A0021C3F8AC20104AC3F8BC10C3F8A82064
:4035C0000E4AC3F8D010C3F8B0200D4AC3F8B8200C4A10685268C3F8B400C3F8C820DA8C094822F00302DA84084AC3F8CC00C3F8942010BD6D32000013330000B9330000B7
:40360000F93300003885FF1FD5340000A134000070B5084B1B681A7C82EA0001490705D59C6BD96B25680E6826600D601874104670BD00BF2885FF1F014B1B689B68184772
:403640004085FF1F0A46154B30B41B680446B3F90A10914220DCB3F90E108A421CDCB3F90810814218DCB3F90C10884214DC197C587C11F0010F0A4951F8200004D0C368B1
:40368000214630BCDB691847C168DB6B8D691B682146AC4630BC604730BC70472885FF1F98A8FF1F114B30B41C680D46B4F90A308B4219DCB4F90E30994215DCB4F9081038
:4036C000B4F90C308142B8BF01469342A8BF1346994209DC607C064A52F82000C26894682A46A44630BC604730BC70472885FF1F98A8FF1F124B30B41C68B4F90830834227
:403700001BDCB4F90C30984217DCB4F90A309942B8BF1946B4F90E309342A8BF134699420BDC084A647C52F82440E268D5680A46AC460146204630BC604730BC704700BFB7
:403740002885FF1F98A8FF1F73B5134C2468B4F90850B4F90C608542B8BF05469642A8BF1646AE4215DBB4F90A208A42B8BF0A46B4F90E108B42A8BF0B469A4209DC607C94
:40378000064951F82000C16800930C6933462946A04702B070BD00BF2885FF1F98A8FF1F2DE9F04F8FB0189DDFF8C8E10295199DDEF800E008951B9D079003950C4617468B
:4037C0000193DDF868A01C9EDDF874B01E9DBEF1000F02D0DEF8004054E0029B089A1343012B54D1614B1868B0F90A20531A002B0ADD0199C3EB010EBEF1000F40F3B28032
:40380000039901FB036602E00A46DDF804E0019B1C44B0F90E30013CE41A002C05DDC4EB0E0EBEF1000F40F39D80079BB0F90C103B44013B5B1A002BC8BFFF1A079B591B1F
:40384000B0F90830994209DA5B1A1D44FF1A23F0070306EBE506194405F00705002F40F38180407C424B039C53F82000C368CDF874B01C951B961A94CDF864A0CDF860E0BB
:403880005C683B46A4460FB0BDE8F04F60477546CAF108030B93029BDFF8D090013BCDF814E00D93059B019A93425BDA089BE3180993013B0A93D9F800300A99B3F90A2035
:4038C0008A4248DCB3F90E309C4244DC079B4FF0000806960093CDF81080049BBB423ADAB8F1000F05D1069B4FF008081D78013306930B9BCAEB080845FA03F313F0FF0150
:4039000005FA0AF5EDB204D1D9F80020127C920719D4D9F80020D26B10680C90BBF1000F02D05BF8213000E0DBB2136000990D9A0A9B0A4400982146FFF706FFD9F800308F
:403940000C9ADB6B1A60049B029A01330493009B13440093C1E7059B099C01330593039B1E449FE70FB0BDE8F08F00BF2885FF1F98A8FF1F54A8FF1F2DE9F04F8FB0189CEA
:40398000DFF814E20294199C1D9E0894DEF800E01B9C054603940091904601931A9F1C9C0496BEF1000F02D0DEF800407AE0029B089A1343012B7AD1754B01991868009BC2
:4039C000B0F90A20D31A002B07DDC91A002940F3DB80039E06FB034400E0009A9DE848001E44B0F90E30013EF61A002E03DD891B002940F3C98005EB0803B0F90C60013BF3
:403A00009B1BB0F90860002BC8BFC3EB0808B54231DA731B082FC3EB080827D00DDC022F14D0042F1AD0012F26D123F0070604EBE304354403F007031EE0182F18D0202FA9
:403A400016D0102F18D104EB430413E023F0030604EBA304354403F003030DE023F0010604EB6304354403F0010305E01C4401E004EB830435460023B8F1000F40F38480F5
:403A8000467C444850F82600049ED0F80CE01C93039B18911A93294643461D961B941997DEF80440A4460FB0BDE8F04F6047F346C7F108030B93029BDFF8D4A0013BCDF876
:403AC00018E00D93069B019A93425DDA009A089B13440993013B0A93DAF800300A99B3F90A208A4248DCB3F90E30009A9A4243DC2E464FF000090794CDF81490059B43450B
:403B00003ADAB9F1000F06D1079B4FF0080993F800B0013307930B9B0BFA07F24BFA03F313F0FF015FFA82FBC7EB090904D1DAF80020127C920717D4DAF80020D26B1068EA
:403B40000C90049810B150F8213000E0DBB213600D9A0A9B324400993046FFF7F5FDDAF800300C9ADB6B1A60059B029A01330593334613441E46C1E7069B01330693039BC2
:403B80001C44099B00939DE70FB0BDE8F08F00BF2885FF1F98A8FF1F54A8FF1F044B1968044B4A7C083153F82200C3681B6B18472885FF1F98A8FF1F07B5FFF7EFFF00F0B1
:403BC000B1F8002839D1FEF711FA019038B900F0FFF81B4B1A681B4B9A420CD12AE0C3680C215B6A01A89847034628B3019898470028ECD021E00020FEF7F8F90190C8B13A
:403C0000002001F051FB0420FFF716FD43F6FF7300211A460846FFF797FD0020FFF70CFD019B0E21DB6801A85B6A9847034608B101989847002000E0012003B05DF804FBDA
:403C400078A6FF1F785634FF044B1B685A7C044B53F822301B691B68184700BF2885FF1F98A8FF1F044B1B685A7C044B53F822301B695B68184700BF2885FF1F98A8FF1F03
:403C8000044B1B681A7C52074CBF9B6BDB6B1860704700BF2885FF1F08B5064B1B68196B814206D01863FFF7CFFFBDE80840FFF7E7BF08BD2885FF1F044B1B681A7C52076C
:403CC0004CBFDB6B9B6B1860704700BF2885FF1F08B5064B1B68596B814206D05863FFF7B3FFBDE80840FFF7E7BF08BD2885FF1F014B1B685B6818474085FF1F014B1B68A7
:403D00001B6818474085FF1F10B5044C2068FDF7E1FB034A00232360136010BDA4A8FF1F20A7FF1F38B50A4D2C6864B9094B18688000FDF7A9FC286038B10748074B40F8A3
:403D4000043FFEF7BDF8002038BD012038BD00BFA4A8FF1F4485FF1F20A7FF1F093D00002DE9F843044618B387681FB3144D286820B32268B2F5807F1FDC124B00261B68D4
:403D80009A42A8BF1A469046464509DA57F82600D5F80090FFF758FF49F826000136F3E7094B1B680BB1204698472868BDE8F883BDE8F8833846BDE8F8830020BDE8F883FF
:403DC000A4A8FF1F4485FF1F20A7FF1FFFF7C8BF2DE9F74F00F013F91C4E8046B146DFF874A0002444452DDA2046FEF7FFF838B33368204693F811B05C7400F057F8082829
:403E000004DDD9F8003083F811B019E05AF824301A690F4B9A42F4D0204600F04AF8034600259D42EDDAEFB238460193FFF71AFF39460246204600F00BF90135019BF0E710
:403E40000134CFE703B0BDE8F08F00BF2885FF1F20BA000098A8FF1F024B1B689B6B1868704700BF2885FF1F024B1B68DB6B1868704700BF2885FF1F10B50C46FEF7B6F896
:403E800028B1C3682146BDE810409B6A184710BD002801DCFFF7F0BF00207047014608B50020FFF7E9FF20EAE07008BD0821FFF7EFBF0921FFF7ECBF024B1B68587CFFF79D
:403EC000F8BF00BF2885FF1F034B082153F82000C3689B6A184700BF98A8FF1F10B5FEF785F828B1BDE81040C3680221DB6A184710BD0000024B1B68587CFFF7EFBF00BF28
:403F00002885FF1F024B53F820301B695868704798A8FF1F024B53F820301B691868704798A8FF1F0120FFF7B9BF0220FFF7B6BF014B83E8030070472CA7FF1F014B18682A
:403F4000704700BF2CA7FF1F014B5868704700BF2CA7FF1F00283BD030F0010329D030F0030328D030F0070327D030F00F0326D030F01F0325D030F0FF0324D020F4FF73DD
:403F800023F001030BB320F47F6323F00F03E3B120F4FF4323F07F03BBB1030C1B04A3B1830C9B049BB110F07F4F0CBF1820202070470120704702207047032070470420B3
:403FC00070470520704708207047102070471220704708B5FFF7BEFF01280FD0831E062B09D9A0F10903072B07D911380F288CBF0020202008BD082008BD102008BD08B515
:404000000020FDF7F3FF003018BF012008BD00000D4B10B51C461A68517C0C4A52F8210040B1C36813B11B68042B01D00068F7E7FEF712F823680022DA6503F108025A61B1
:40404000BDE81040FFF7AABD2885FF1F98A8FF1F37B50C461546FDF7C9FF019008B901200CE0C36810215B6A01A8984703460028F5D001982A4621469847002003B030BD23
:4040800037B50C461546FDF7B1FF019008B901200CE0C3680B215B6A01A8984703460028F5D001982A4621469847002003B030BD37B50C461546FDF799FF019008B90120E3
:4040C0000CE0C3680A215B6A01A8984703460028F5D001982A4621469847002003B030BD10B5074C2368186BFFF7AEFDFFF7C8FD2368586BFFF7A8FDBDE81040FFF7DCBDFD
:404100002885FF1F144B70B500241C60134B14481C60144B144D1C60144B04701C60144B44601C60134B84601C60134B21461C6018222B680C309847104B21461C60104BD0
:4041400008221C600F482B6898472B682146BDE8704008220C481847D4A8FF1FBCA8FF1F34A7FF1FDCA8FF1F4C85FF1FE4A8FF1FACA8FF1FCCA8FF1FD8A8FF1FB8A8FF1F34
:40418000B0A8FF1FF0A8FF1FE8A8FF1FF0B507460C46164685B002AD002F48D03846FDF7ADF9876A0146BB0701903AD526B13246284600F0DCFE02E003C885E80300294695
:4041C0002046FDF7AFFD60B317F0010F019B1CD13EB1B3F90220B6F902309342B8BF134601E0B3F90230B4F902209342B4F9062005DDBDF90A309A4213DB013B03E0BDF91C
:404200000E309A420DDDE3800BE0DF694FB138462A462146FFF7BAFF3846FDF765F9076AF4E7019B01A81F6AFDF776F9B4E705B0F0BD2DE9FF4106460F469046002502ACF6
:40424000002E35D03046FDF759F9866A0146B207019027D5B8F1000F04D04246204600F086FE02E003C884E8030021463846FDF759FDB8B1F30705D4BDF80C300125013312
:404280003B800FE0019BDE6966B1224639463046FFF7CFFF0028304618BF0125FDF724F9066AF1E7019B01A81E6AFDF735F9C7E7284604B0BDE8F081F0B505460E461746CF
:4042C00085B002AC7DB32846FDF718F9856A0146AA07019021D527B13A46204600F047FE02E003C884E8030021463046FDF71AFD98B1EB0704D4BDF80830013BB3800CE078
:40430000019BDD694DB1284622463146FFF7D4FF2846FDF7E9F8056AF4E7019B01A81D6AFDF7FAF8CEE705B0F0BD000073B506460D462846FDF7E2F8836A014613F00204F1
:40434000019004D101A8FDF7E7F8204612E0304600F0F0FD019B01A89C693CB9FDF7DCF8054B1868431B5842584103E0FDF7D4F82546DEE702B070BDB0A8FF1F2DE9FF41CA
:4043800006460C4600294CD0FDF7B8F800238461019003622046FDF7B1F8C76904AC44F8080D2FB9C66101A8FDF7B6F8204636E0019B38469D6AFDF7A1F80DF1100805F0B5
:4043C000080548F8040D75B9836A1A070BD5019B01A81F62029BDE61FDF79EF82046FDF79BF840461BE02046FDF796F84046FDF793F83846FDF778F80390039B1C6A0CB95E
:404400001E620BE02046FDF76FF8002DF4D1836A1B07F1D5039B1E62019B1C6201A8FDF77BF804B0BDE8F08103460846B3F90220B3F90010FDF758BC114B30B51C6885B054
:40444000626C0546BAB11068516802AB03C30D4B186800B9A06CFDF751F804AC02A944F80C0DFFF7E1FF2046FDF756F802A8294600F060FD02A802F0D7F805B030BD00BFDA
:404480002885FF1FACA8FF1F1FB50E4B1B6893F854200AB10C4811E0986CFDF72FF802AC019003C884E8030001A8FDF735F8074B196811B12046FFF739FF2046FFF7BCFF6E
:4044C00004B010BD2885FF1F48A7FF1FACA8FF1F13B5044600B3FDF711F8836A01909B0717D5406A40B10D4B1B689C4204D000F063FF019B00225A62204600F045FC04464E
:404500003CB12046FFF7E4FF2046FCF7EDFF046AF6E701A8FDF700F802B010BDE0A8FF1FB0F90020B0F904309A4208DCB0F90230B0F906008342CCBF0020012070470020AD
:40454000704700007FB50D4604461646FCF7CCFF816A01908B0733D52846FFF7E1FF78B340F601030B40012B2AD02046FCF7C6FF02AC024601902946204600F0F8FC2046A5
:40458000FFF7CEFFC8B144F22001019B9A6A03F10805114029B1224629462846FDF779FB0BE0324394E8030085E803009A62054A138801331380FDF72DFF01A8FCF7ACFF8C
:4045C00004B070BDC0A8FF1F2022FFF7BBBFF0B50F4685B01546064648B3FCF78FFF836A04AC9B07024644F80C0D03D42046FCF793FF1CE0394602A800F0B9FC0028F5D0FB
:404600002046FCF789FF2A4602A93046FFF79AFF304600F0B9FB04464CB120462A4602A9FFF7D5FF2046FCF75FFF046AF4E705B0F0BD2DE9FF41804617461D460C4681B309
:404640000846FCF75BFF866A0246B307019025D5414602A800F08BFC00B340F601033340012B07D101992B460A6A02A88969FFF7E0FF04E02A4602A92046FFF763FF019BCD
:40468000DC695CB1BC4209D020462A4602A9FFF79EFF2046FCF728FF046AF2E701A8FCF73BFF04B0BDE8F0812023FFF7C2BF1FB504AB43F8101D1946019000F027FB05B0FA
:4046C0005DF804FB00230B8002884B8083889B1A8B804288C3889B1ACB807047F0B50F4687B00546002833D0FCF708FF866A0190B2072AD503C804ACF30384E8030002D53B
:404700002846FFF7E5FE5FB13868796802AB03C302A90198FFF788FE02A9204600F00AFC29462046FFF702FE78B140F601033340012B06D1019B20461A6A9969FFF7B4FF92
:4047400003E021462846FFF73FFF01A8FCF7E4FE07B0F0BD0021FFF7C1BF00000B4B70B51A680546966C1C4608B9094B1D689564FFF714FA2846FCF7B7FE2368B0F9002027
:40478000DA64B0F9022030461A6570BD2885FF1FC4A8FF1F2DE9F74FDDF830A098464C4B05460E461746D3F80090BAF1000F24D1484B1B8833B3484B1B685A1C012A21D930
:4047C0009A465046FCF79AFEB0F90010B0F9022001900D4416441FB9B0F904305F1A0137B8F1000F05D1B0F90630C2EB030808F1010801A8FCF790FE04E0BAF1FF3FE0D1C3
:404800004FF0000A0F982C30FDF70CF80446002859D0304A0D9B0DF1080B49EA0309138801331380FCF76AFE0E9B826A03612B4B4BF8080D09EA0303058046803D44464454
:404840001343013D013E83628580C6805846FCF763FE234B186848B1FCF746FE05462046FCF742FE6B6943616C6100E01C6051462046FFF783FD19F0200F02D02046FFF7C7
:404880006DFF19F0010F1FBF164A13680133136019F0400F02D0204600F086FA19F0020F0DD02046FCF72AFE836A009043F0020383625846FCF730FE2046FFF74BFF01217A
:4048C0002046FFF7F4FE204603B0BDE8F08F00BFCCA8FF1FA8A8FF1FB0A8FF1F9F3F3F00C4A8FF1FE4A8FF1F1FB5089C0394079C0294069C019400240094FFF74BFF04B07C
:4049000010BD00002DE9FF415D4F3B6893F85400002800F0B1805B4A136A1446012B03DD013B13620020A7E0D36902AD013302F1140696E80300D36185E8030023B99389B4
:40494000ADF80830D38910E0138BD28A0133ADF80A20B4F910201BB29A42ADF8083006DAA389ADF80830638B0133ADF80A30BDF90A20B4F91230DFF80C819A4204DD236A47
:404980000020013B236277E03B68986CFCF7B6FDBDF90820B8F90C3001909A421CD1B8F81230ADF80E30B8F81030ADF80C30344B1B689A6C5AB11046FCF796FD80460022D0
:4049C0002946006AFFF7E2FBD8F81820F2E7019B2946D869FFF7DAFBBDF80830ADF80C303B689A6C6AB11046FCF77EFD002280462946006AFFF71DFC0028EDD1D8F81820FF
:404A0000F0E7019B2946D869FFF713FC0028E3D1B4F91030BDF90820ADF80C309A4207DD95E8030086E8030001A8FCF775FD97E73B689A6C52B11046FCF756FD07460022D2
:404A40002946006AFFF738FCBA69F3E704AF57F80C3D2946D869FFF72FFC3846FCF75CFD44F62063E2699A4289DC95E8030086E80300FFF709FD012004B0BDE8F08100BF70
:404A80002885FF1F34A7FF1F2DE9F041394E86B03268804692F8543013B9FFF7F5FC64E0354F3B6A3D460133012B3B625DDC906CFCF724FD4FF0FF33FB61304B00901B786C
:404AC00013B102AB083004E0836A13F002040CD002AB03C802AC83E80300B8F1000F0CD04146204600F026FA07E03B6A6846013B3B62FCF711FD204638E03368204F5A6CD0
:404B0000C2B1009B10685168019304AB03C33B6833B101A8FCF700FD3868FCF7EFFC019004A90198FFF780FC204604A900F002FA01A800E06846FCF7EFFC396819B1204661
:404B4000FFF7F4FB28B133682046996CFFF7EEFB18B92B6A013B2B6208E00A4B94E8030083E80300FFF7CEFE00E0012006B0BDE8F08100BF2885FF1F34A7FF1FC9A8FF1F98
:404B8000ACA8FF1F40A7FF1F024B01221B6883F8542070472885FF1F10B5044623684068172B10D007DC0E2B0FD0142B14D1E16800F0D2F810E0222B0CD0282B0CD1BDE8A6
:404BC0001040FFF7C7BDE06010BD2146BDE8104000F02DB9024B00E00023E36010BD00BF785634FF036810B50E2B044602D00F2B09D011E0C3685A68012A12D1BDE8104013
:404C00001868FDF7CFBB074B1868074B984203D0FDF7AEF8FDF744F92046BDE81040FFF7BBBF10BDD0A8FF1F785634FF30B51D4C85B02178002932D11B4B084619601B4BD0
:404C4000A1601B681A4D59641A4B19801A4B198004230293194B01930223009343F6FF731A46FFF741FE164A164B28601A60FFF771FD154800F068F8144800F065F82868D7
:404C8000FFF76CFDFFF780FF204601232370104B40F8243F05B0BDE83040FDF711B905B030BD00BF34A7FF1FC4A8FF1F2885FF1FB0A8FF1FC0A8FF1FA8A8FF1FE54B00003C
:404CC000785634FFD0A8FF1FF0A8FF1FE8A8FF1F0541000008B500F05FF818B1FCF704FCC06908BD08BD38B50546FFF7F3FF044654B1AC4207D02046FCF7F6FB036A9D4236
:404D000002D01C46F4E70024204638BD70B50D4C064623680D46132B12DCFCF7E5FB02696E6042B1236828460133236090472368013B236070BD2846BDE87040FFF72CBF70
:404D400070BD00BF64A7FF1F024B1A6802601860704700BFD4A8FF1F37B50D4658B151B1FCF7CCFB02AC44F8040D2946FFF7AAFC2046FCF7D1FB03B030BD0000014B1868CA
:404D8000704700BFB0A8FF1F08B5034610B1FCF7ABFBC369184608BD08B5034610B1FCF7A3FB8369184608BD2DE9F043044687B0002839D0FCF7A2FB034604AD019003C810
:404DC00085E8030001A81E6AD3F82890FCF7A4FB2046FFF788FF074630B32046FFF7DCFF19F0020F804604D0014632462846FFF75BFC2046FCF782FB01904046FCF77EFB2C
:404E000003903846FCF77AFB039B019AD96906620290116201A8DC61FCF77EFB03A8FCF77BFB02A8FCF778FB07B0BDE8F08338B505460C4641B1FFF7AFFF28B1A560214667
:404E4000BDE83840FFF762BF38BD0000F7B5061E0C4662DC324D6B6803B19847012C04D0022C20D0002C58D133E005EB8605AF68AFB93046FDF7BAF8019000284DD0C36826
:404E80000D215B6A01A898470346002845D0214601989847AB6838460133AB603EE0781CA86020463AE03046FDF7A0F80190002833D0C3680D215B6A01A898470446002832
:404EC0002BD02B6803B1984702210198A047002024E0B4002B199B68012B01D0012015E03046FDF783F801900028F7D0C3680D215B6A01A8984706460028EFD0084B1B68A8
:404F000003B1984700210198B04700202544AB68002B18BF013BAB6000E0012003B0F0BD68A7FF1F024B01461B68587CFFF78EBF2885FF1FB1F90030B0F900209A42B8BFCB
:404F40000380B0F90220B1F902309A42B8BF4380B0F90420B1F904309A42C8BF8380B0F90620B1F906309A42C8BFC380704770B5B1F90030B2F9005006469D42B8BF1D46D5
:404F8000B1F902300580B2F90200B1F904408342B8BF0346B2F9040073808442A8BF0446B2F90600B1F90620B4808242A8BF0246A542F28004DC9342CCBF0020012070BD28
:404FC000002070BD70B5840742BF02F1FF3201800230540824D0032C234601EB014502D800EB830317E0264600F11003043E032E43F8105C43F80C5C43F8085C43F8045C19
:4050000003F11003F2DC043CA3085E1C00EB0610A4EB8303E4E7984202D040F8045BFAE7D30748BF018070BD10B5102100234FF08042D418A04224BF1319001B01394FEA1D
:4050400053034FEA9202F4D1184610BD0A4B1A68938D03F00C03082B07D00C2B05D0042B07D1D369187E01387047D369187E400870470020704700BF2885FF1F024B1B6843
:40508000DB69587E704700BF2885FF1F024B00211B68DB695B6818472885FF1F024B1B68DB695B68184700BF2885FF1F7047000073B5154602AB214A43F8081D1946019011
:4050C000126890471E4C01902368586940B90120FFF728FF2268D3695B693BB9194D22E02946FCF71FFE0028F1D124E0164C9B68216841B1B2F922500198009998472368F5
:405100002846984714E000990198984710E001A8FDF750F923680646DB691B6898472B680BB130469847009B013B002B0093EEDA0020FFF7F7FE02B070BD00BF5085FF1F2D
:405140002885FF1F74A8FF1F68A8FF1F37B50D460190044688B10A4B1B68DB695C6954B1646844B1A04709E001A8FDF723F920B10A2802D00134AC42F6DB204603B030BDAA
:405180002885FF1F13B5002402A941F8044DFFF785FF019B9842ACBF2046181A02B010BD37B5154A02AB43F8081D01901268194690470190E8B1114B1B68DB695C690CB129
:4051C00024680CB9254602E00099A04711E0009B013B002B009307DB01A8FDF7EBF80446FFF754FF0544F2E72046FFF7CBFF2844FFE703B030BD00BF5085FF1F2885FF1F5F
:40520000274BF7B51B6805460E4663B10020FFF73BFC002841D06A4631462846FFF748FFFFF770FBF5E76B46106851681D4C03C32268BDF80030B2F84C70B2F850003B4426
:40524000BDF80210BDF80420ADF80030BDF80630014403443A446846ADF80210ADF80420ADF80630FFF710FC236840B9D96C5A8C521A5A84196D9A8C521A9A840DE0BDF8E8
:40528000002031465A84BDF8022028469A846A46FFF70EFFFFF736FBE6E703B0F0BD00BF54A8FF1F2885FF1F70B5074C064623685D7C30B9FCF79AFE18B123685E74FCF7B6
:4052C0004EFD284670BD00BF2885FF1F08B5FEF7F3FDB0F5807F10D07F2810D83F2810D81F2810D80F2810D8072810D8032810D8012894BF002001200CE008200AE00720E0
:4053000008E0062006E0052004E0042002E0032000E00220012303FA00F0013808BD38B50446FEF7C9FD0546FEF7E4FDA54203D918B150F8240038BD002038BD2DE9F843D0
:405340008146FEF7B9FD0746FEF7D4FD0646E0B1002056F820304B4517D001308742F8DC002425466FF07F4856F825104846FCF75BFC804588BF2C4605F1010588BF804631
:40538000AF42F1DC2046BDE8F883BDE8F88337B5044670B1FCF7B2F8036802AD1B6945F8040D9B689847FEF714FE04462846FCF7B3F8204603B030BD37B50446D0B10E4B54
:4053C0001B68DB6D984201D1FCF7C9FC2046FCF795F80190406908B100F018FD02AD55F8043D1868FCF712FE2846FCF795F82046FCF7B2F803B030BD2885FF1F0129024810
:4054000018BF0020704700BF38BA00001629024818BF0020704700BFDD5E0000006810B1C3681B6A1847704737B580680D46FCF765F80246B2F904301489B2F906102B8046
:405440001C44538902A80B44013B013C40F8042D6980AC80EB80FCF75FF803B030BD00000E4B73B51B680646D86D0D46FCF746F8B0F90610C468691AB0F9045002AB761BE9
:405480007600183604FB016543F8040D44191846FCF742F8204602B070BD00BF2885FF1F08B508461146FFF7DBFF008808BD0000144BF7B51B680746D86D16460D46FCF77F
:4054C0001DF8314600902846FFF7CAFF3B6904469B68984723885840009B2080586960B1FCF70CF8836802AC44F8040D1B683246294698472046FCF70FF86846FCF70CF818
:4055000003B0F0BD2885FF1F73B51C46104B0D461B681646D86DFBF7F1FF314600902846FFF79EFF009B0480586960B1FBF7E6FF836802AC44F8040D1B6832462946984703
:405540002046FBF7E9FF6846FBF7E6FF02B070BD2885FF1F2DE9F7432C4C1E4623688046D86D0F461546FBF7C9FF00904069A14608B1FBF7C3FF019029463846FFF770FF20
:40558000D9F8003004461A7CD2071FD5D8F810309B6898471FFA80F8019820B183682A461B68394698472388013588EA03032380009BB542DB681C44EEDD6846FBF7ACFFCD
:4055C000019B03B301A8FBF7A7FF1CE0DB6B009AD3F80090019BD2F80C8063B101982A46836839461B6801359847AE42A4F800904444F3DAE1E7751B0135013DA4F8009067
:405600004444FAD1D9E703B0BDE8F0832885FF1F2DE9F04F2A4F1D463B681446DA6B87B012688346D86D89460292FBF767FF214604904846FFF714FF049A0646D368506964
:40564000C9EB0505039305F1010A88B1FBF756FF109B0DF118081B1B013348F8040D224600934946534600F0E5FB4046FBF754FFBDF808806D00109B9C421ADC3B681B7CB0
:40568000DB070DD5DBF810309B689847B31E80B2711933F8022F42408B421A80F9D104E0524641463046FFF78DFC039B01341E44E1E704A8FBF730FF07B0BDE8F08F00BF39
:4056C0002885FF1F07B50092FFF7A2FF03B05DF804FB00002DE9F04F904D91B002932B680A90D86D0E4605921D9CFBF707FF0E90406908B1FBF702FF0F9010A850F8083D06
:40570000DB680793FBF708FF1E9B0F9806EB030B50B12B681B7C990706D11A9B059A00935946029B00F086FB05995846FFF798FE1B9B0546102B22D1029BDFF8E4914FEAE5
:40574000430800261A9B9E4280F24A838CB185B10F9F424621462846D9F80030984747B1BB68059AD3F804A03244029B59463846D0471C9B01361C44079B1D44E2E71B9B46
:40578000172B44DD6FF0030303FB0BF306936FF0010303FB0BF30493029B4FF000085B4408931A9B984580F21B83059B03EB080934B91C9B08F101081C44079B1D44F0E757
:4057C000002DF6D00F9F37B1BB684A465E685946029B3846B0475E46069B04EB030A049BEB1803930A9B5AF826001B691B689847039B23F816002FB1BB684A461B6831461E
:4058000038469847089B01369E42EBD1D1E71B9B082B40F08780029B059E5B0006936FF0010303FB0BF30393029BDFF8F0905B44013C0493059B1A9AF31A9A4204F10101F9
:4058400040F3CE821F9B002B36D0D9F800301B7C13F0030309D0022B5AD1039BDDF83C80EB180893A2465F4621E0069B2246E9182B4612F8010F1F9F57F8200023F8020BA3
:405880008B42F6D144E01F9A52F82330089A22F81730B8F1000F06D0D8F8083032461B68394640469847049B01379F4230D01AF8013F002BF7D0E6E7D9F800301B7C13F0FE
:4058C000030309D0022B23D1039BDDF83C80EB180893A2465F4616E0114B029A28461B68984715E0089A22F81730B8F1000F06D0D8F8083032461B68394640469847049B84
:4059000001379F4204D01AF8013F002BF7D0E9E7079B01361D441C9B1C448BE72885FF1F4885FF1FAF4B1F9A002A08BF1A461E9B1F925B000B931E9B9B000C93631C03937E
:40594000831C0693059B0493069B059A9C1E039B03F1FF3A049B9B1A1A9A9A4240F340821B9B022B00F0C980042B00F06481012B40F02A829C4B1B68D86DFBF7BFFD1E9BDC
:405980009A4AC3F10805039B0E9013F8013CDDF83C90D65C1E9B029F1E41934B1B681B7C03F00303022B1FD0032B59D0012B57D0BD4228BF3D4622462B467F1B1F9806F0F2
:4059C000010150F82110013B22F8021B4FEA5606F4D104EB4504002F00F08B801AF8013F824A0825D65CE3E7D8461F9B9B880893BD4228BF3D467F1BB9F1000F24D01EB999
:405A000004EB4504A84423E0F20709D5D9F80830049A1B68414648469847BDF820302380013D08F1010804F1020411D07608E6E7F30748BFBDF8203004F1020448BF24F817
:405A4000023C013D04D07608002EF1D104EB4504002F4ED01AF8013F644A0825D65CC7E70A9BD8461B699B68984783B20993039B0893BD4228BF3D467F1BB9F1000F1CD0FB
:405A8000A24608EB05030D93F0070CD5D9F80830049A1B68414648469847BAF80030099A5340AAF800300D9B08F1010898450AF1020A4FEA5606E7D10FE02A462346F107E8
:405AC00044BF1988099803F1020344BF414023F8021C013A4FEA5606F1D104EB450447B1089B424A1B780825D65C089B01330893BFE70EA8FBF710FD66E11E9BC3F104053E
:405B0000039BEDB213F8016C0B9B9E40364BF6B21B681B7C03F00303012B09D00AD3022B40F052810F9BDDF8088008935F4636E0029B79E0029B9D42C8BFDDB22A46214622
:405B40005B1B1F9FB00957F82000013AB60012F0FF0221F8020BF6B2F3D1013DEDB2013504EB4504002B00F02F811AF8016F0425E1E716F0C00F24D10D9B09F10109B6008E
:405B80009945F6B2F5D16B1C013704EB43042F44B8F1000F00F018811AF8016F04254545C8BF5FFA88F5C5EB0808013DEDB27B1C2B440D936FF0010303FB0743B9460993D5
:405BC000D7E71F9AB30952F82330099A22F81930089B002BD0D09B68049A1B68494608989847C9E76CBA00002885FF1FACBA000016F0C00F18BF088802F1FF321CBF80F07D
:405C0000FF000880B60012F0FF0201F10201F6B2EED1013DEDB2013504EB4504002B00F0D3801AF8016F04259D42C8BFDDB25B1B2A462146DCE7039B0C9A13F8013C934000
:405C40006B4ADDB21268127C02F00302012A00F0958002D3022A35D0B6E01E9B5BB11F9B2D0953F82530039A2380029B069C013B1578924600E0029B012B1ADD5910221D58
:405C800003F001030AEB01001F9F2E0905F00F0557F8266057F8255022F8046C22F8025C1AF8015F3E46824502F10402ECD104EB8104002B00F088801F9B2D0953F82530C4
:405CC000238081E01E9A0F9EC2B113F0F00F0BD01F9B2D0953F8253023802EB1B368049A1B68594630469847029B069C03F1FF38039B0BF101071D789A460FE0DDF80880DC
:405D00005F460BE015F0F00F0CD115F00F0517D11AF8015F04340237A8F10208B8F1010FF0DC1AE01F9A2B0952F823302380002EEBD0B368049A1B68394630469847E4E7FB
:405D40001F9B53F825306380002EE1D0B368049A1B68791C30469847DAE7B8F1000F33D02D0931D01F9B53F82530238066B3B368049A1B6839463046984725E01E9B029AAE
:405D8000C3F10203DBB29342C8BFD3B219462046D21A15F0C00F18BF068801F1FF311CBF86F0FF0606802D0111F0FF0100F10200EDB2EED1013BDBB2013304EB43041AB156
:405DC0001AF8015F0223DEE7049B1C9A01330493039B13440393079A069B13440693B3E50F9B13B10FA8FBF797FB11B0BDE8F08F2885FF1F082904D0006820B1C3689B6A0B
:405E00001847102070474FF0FF30704737B50546FBF774FB848902AB013C24B243F8040D84811846FBF778FB14B92846FBF794FB03B030BD2DE9F843054688469946089C35
:405E40001444AB68561C5F6841464B462846B847B4423246F5D1BDE8F8832DE9F84F81460D4616461F4614468846DDF828B0DDF82CA039F8020BD847D047013C48F8040BF7
:405E8000F7D11F2F06D83A4631462846BDE8F84F00F0E2BBBDE8F88F2DE9F84F80460D4616461F4689460446DDF828B0DDF82CA014F8010BD847D047331B18EB030F49F854
:405EC000040BF5D11F2F06D83A4631462846BDE8F84F00F0C1BBBDE8F88F00002DE9F04F9BB0089109920546002800F09983FBF705FB1AAB43F81C0D44691846FBF70CFB46
:405F00002846FFF744FA08280746A54E02DD002C00F0C98101230027284619930D931897FBF7ECFA0268B0F90A3012690E93536832680DF1680949F8140D0469D0F8148026
:405F4000D0F80CA0B0F908B0507C0C93FDF7BCFF32680B90507CFDF7D5FF0A904846FBF7DBFA082C0A9A0D9B04D9102C8CBF0423022305E0012C03D118AB0D940A9301E082
:405F80000D930A970C9B934200F0DF803368587CFDF7C0FF0F904FEA8B00FBF73FFC1090002800F03D83284600F00DFC0546B8F1000F00F0B9804046FBF7A0FA05EB0A0309
:405FC00011930023DDF8249016900993119B099ACAEB03070E9B934240F3A28016980023179383680DF15C085B69099A414698478345054628D11098FBF780FA0F9B082C9B
:4060000001930C9B0146149000935A460B9B384602D9FFF722FF01E0FFF73EFF0A9B1AAD059355F8183D08980493002303930B9B5A4602930123019300934946FDF79CFC06
:406040002846FBF769FA62E0012C02D04FF0010857E0002D5BD01798089E00F0070306930A9B2A460593082390FBF3F33B440493012302930193009349463044CDF80CA0AA
:40608000FDF78EFB179B16981D44836817955B69099A414698470546DBE71098FBF72EFA0F9B01461490019317980C9B0D9E082C00932A460B9B00FB067025D9FFF7CDFE38
:4060C0000A9B17980593149B089E0493002303930B9B2A464946029330440123CDF80480CDF80080FDF748FC14A8FBF715FA179B16981D44836817955B69099A17A998475C
:406100000546002DC9D102E0FFF7C6FED8E7099B09F1010901330993119B5344119355E716A8FBF7F9F90EE00A9B04900593012301930093CDF80CA002940E9B5A460999B9
:406140000898FDF719FC109868E2284600F03BFB0746B8F1000F00F09A804046FBF7CEF9002516900E9BAB4240F38D8016980023179383680DF15C085B692A46414698479F
:406180008345064626D12E46169806F1010983684A465B6941469847834503D14E46F3E72885FF1F0A9BC5EB0608099908F10108059301230497019300932944CDF80CA0D4
:4061C000029443465A460898FDF7D6FB0AFB0877354656E0012C099B04D02B440B934FF001092BE0A04603EB05092EB3DDF85CE008980EF0070306930A9B3246059308234B
:406200009EFBF3F33B447044049349460123CDF80CA0CDF80880CDF80480CDF80080FDF7BFFA179B16981E44836817965B692A4617A998470646D8E7574422E0002EFBD09B
:406240000A9BDDF85CE005930D9B089803FB0E733246704404930B990123CDF80CA00294CDF80490CDF80090FDF786FB179B16981E44836817965B692A4641469847064614
:40628000DCE701356EE716A8FBF746F9C8E10A9B04900593012301930093CDF80CA002940E9B5A463AE02846FBF728F983461AA8BBF90A3040F810BDDBF800200B93DBF80F
:4062C0000C30D2F810800C93BBF90840FBF724F93268D8F80490507CA14A52F82020166933680A93FDF7F0FD08280C9B06D910288CBF4FF0040A4FF0020A01E04FF0010A8B
:40630000B04510D1002205922246039301230BF11800019300930B9B0490029709990898FDF72AFB7CE1202F40F0A2800AFB04F0FBF774FA0D90002800F07281FBF7DEF87C
:4063400018902846FBF7DAF8169033694FEACA0200F118054FEA840B0C9273B3DDF824804FF00109BAF1020F05D0BAF1040F02D0BAF1010F06D1284637695346224618992D
:40638000B8475D440023189A059303930C9B0492029322460123CDF80490CDF8009041460898FDF7E9FA0B9B099A08F1010713449F4200F02C81B846D4E7099F1E460B9BA6
:4063C0004FF001093B440993BAF1020FDDF8608016D0BAF1040F24D0BAF1010F30D143462A4652F8040B0E930A9B0B9298470E9B0B9A03F8010BE11A18EB010FF1D11EE03D
:4064000043462A46A04652F8040B0E930A9B0B9298470E9BB8F1010823F8020B0B9AF2D10DE02A46234652F8040B0E930A9B0B9298470E9B48F8040B013B0B9AF3D15D4458
:40644000189B059604930C9B03960293CDF804900123CDF80090224639460898FDF78CFA099B07F10108434500F0D1804746ABE7102F40F0D58004FB0AF0FBF7CFF90D90EE
:40648000002800F0CD80FBF739F818902846FBF735F81690336900F1180713B1D8F8143053B94FEACA03099D0C930B9B66002B444FF0000B099383E0B0F908008000FBF7B7
:4064C000ADF90C9018B1FBF719F8179001E00C9B1793179B002B00F09A8063000A93DDF824B04FEACA030E93BAF1020FDDF8609006D0BAF1040F05D0BAF1010F11D101E016
:40650000534600E00223384622461799D8F81450A84753462246494617983569A8470A9B1F440023059303930E9B189A02930123049201930093224659460898FDF71CFA5D
:406540000B9B099A0BF101091344994501D0CB46CAE717A8FAF7E0FF0C98FAF7FDFF56E098A8FF1FBAF1040F41D0BAF1010F11D143463A4632F8020B0E930B92C8470A9BB2
:4065800098470E9B0B9A03F8010BE11A18EB010FF0D13744189BCDF814B004930C9BCDF80CB00293012301930093224629460898FDF7E2F9099B05F10108434527D045468F
:4065C000BAF1020FDDF86080CCD143463A46A04632F8020B0E930B92C8470A9B98470E9BB8F1010823F8020B0B9AF1D1D1E73A46234632F8020B0E930B92C8470A9B984703
:406600000E9B48F8040B013B0B9AF2D1C1E716A8FAF782FF18A8FAF77FFF0D98FAF79CFF1BB0BDE8F08F00BF37B50546084C694623685A7C074B53F82200C3681B6B9847EE
:4066400020686A4629460830FEF791FC03B030BD2885FF1F98A8FF1F082A10B50EDD102A0ADC034600EB410150F8042B23F8022B8B42F9D1012010BD002010BD022A2AD120
:406680000446036801294FEA8313DBB220D0426802294FEA021202F0300243EA020301D1083016E0826803294FEA820202F00C0243EA020301D10C300BE0C268043902F0E0
:4066C00003021343103004F8013B0029D9D1D1E704300021F7E7042A15D104460129036818BF42684FEA0313DBB21BBF02F00F021343002102390CBF0430083004F8013BBB
:406700000029EBD1B6E7012A034654D11A6801294FEAC212D2B24BD05C6802294FEA841404F0400442EA040201D1083341E09C6803294FEA441404F0200442EA040201D1B1
:406740000C3336E0DC6804294FEA041404F0100442EA040201D110332BE01C6905294FEAC40404F0080442EA040201D1143320E05C6906294FEA840404F0040442EA0402C6
:4067800001D1183315E09C6907394FEA440404F0020442EA040217BFDC691C3304F00104224318BF203300F8012B0029AED161E704330021F7E7014450F8042B03F8012BB6
:4067C0009942F9D156E713B558B1FAF797FE02AB43F8040D00F118041846FAF79DFE2046FFE702B010BD0000014B1868704700BFB485FF1F0E4B70B51E460E4C0025E41AAD
:40680000A410A54204D056F8253098470135F8E705F0E8F9084B094C1E46E41AA4100025A54204D056F8253098470135F8E770BDF0BB0000F0BB0000F0BB0000F8BB000066
:4068400010B5431E0A44914204D011F8014B03F8014FF8E710BD814210B501EB020301D3421E0BE09842FBD28118D21AD34204D013F8014D01F8014DF8E710BD994204D009
:4068800011F8014B02F8014FF8E710BD03460244934202D003F8011BFAE770470EB400B54FF402719CB0ADF814106FF00041049107914FF6FF711DABADF81610084953F8B5
:4068C000042B02900690086802A9019300F06EF8029B00221A701CB05DF804EB03B07047B485FF1F10F8012B11F8013B012A28BF9A42F7D0D01A70472DE9F0478E68824648
:40690000B3420C469046994640D38A8912F4906F3AD02568096902236F1A656905EB450595FBF3F57B1C4B449D4238BF1D4653050FD5294600F014FB064698B121693A4651
:40694000FFF77EFFA38923F4906343F08003A38113E02A4600F05AFB064670B95046216900F0BAFA0C23CAF80030A3894FF0FF3043F04003A381BDE8F08726613E442660B3
:406980004E466561ED1BA560B14500D24E46324620684146FFF75FFFA36800209B1BA36023681E442660BDE8F08700002DE9F0439DB003938B8906461C060D4690460CD50E
:4069C0000B6953B9402100F0CBFA2860286110B90C233360CCE040236B610023099320238DF8293030238DF82A3043461C4613F8012B1AB9B4EB08090FD002E0252AF5D1FD
:406A0000F8E73046294642464B46FFF775FF013000F0A980099B4B4409932378002B00F0A28000234FF0FF3204930793059206938DF853301A9304F101084446DFF848913D
:406A400021784846052200F039FA08F10108049B30B1C9EB00000122824013430493ECE7D80644BF20228DF85320190744BF2B228DF8532022782A2A02D0079923460EE090
:406A8000039A0134111D12680391002ABBBF524243F0020307920792B8BF04930AE01C4622780133303A092A03D80A2000FB0121F5E7079123782E2B1AD163782A2B0AD1E1
:406AC000039B02341A1D1B680392002BB8BF4FF0FF3305930CE0611C00220C4623780131303B092B03D80A2000FB0232F5E70592DFF8988021784046032200F0DFF938B1F4
:406B0000049AC8EB00004023834013430493013421781A48062204F101088DF8281000F0CDF988B1164B33B9039B073323F007030833039313E003AB0093304604A92A4615
:406B4000104BAFF3008007E003AB0093304604A92A460C4B00F092F8421C074603D0099B3B44099341E7AB895B0601D4099801E04FF0FF301DB0BDE8F08300BFB8BB000036
:406B800000000000F9680000AEBB0000B4BB00002DE9F84391461F468A680B6906469342B8BF1346C9F8003091F843200C46DDF8208012B10133C9F800302368990642BF01
:406BC000D9F800300233C9F80030256815F006051CD094F843302268003318BF012392061FD5E118302081F843005A1C94F845102244023382F8431013E03046394604F101
:406C000019020123C047013007D00135E368D9F800209B1A9D42F0DBDBE74FF0FF30BDE8F8833046394604F14302C0470130F4D02268D9F80050E36802F00602042A08BFD5
:406C40005D1B2269A3680CBF25EAE57500259342C4BF9B1AED184FF00009A9450ADA3046394604F11A020123C0470130D5D009F10109F2E70020BDE8F88300002DE9FF4107
:406C80000C461746227E98466E2A06460A9B01F1430100F0B08012D8632A23D00AD8002A00F0BD80582A40F0CC8084F84520DFF804E257E0642A1ED0692A1CD0C1E0732A19
:406CC00000F0B18009D86F2A2ED0702A40F0B980226842F0200222603FE0752A24D0782A3BD0AEE01A6804F14205111D1960136884F84230A9E020681A6810F0800F02D0E9
:406D0000101D186008E010F0400F02F10400186002D0B2F9003000E01368002B3EDA2D225B4284F8432039E020681A6810F0800F02D0101D186007E010F0400F02F104009C
:406D4000186001D0138800E01368227EDFF864E16F2A0CBF08220A221CE07822DFF858E184F845202268186812F0800F00F104051D6003D1550601D5038800E00368D00713
:406D800044BF42F0200222601BB9226822F0200222601022002084F8430002E0DFF814E10A226568002DA8BF2068A560A4BF20F00400206003B965B10D46B3FBF2F002FB64
:406DC00010331EF8033005F8013D03460028F4D100E00D46082A0BD12368DA0708D5236962689A42DEBF302305F8013C05F1FF35491B21612EE025681A6815F0800F606926
:406E000003D0151D1D60136808E015F0400F02F104051D60136801D0188000E01860002323610D4616E01A68111D1960156800212846626800F042F808B1401B60606368AC
:406E400004E004F1420584F8422001232361002384F84330CDF800803046214603AA3B46FFF796FE013002D14FF0FF301FE0304639462A462369C0470130F5D023689B07F4
:406E800005D4E068039B9842B8BF18460FE00025E368039A9B1A9D42F3DA3046394604F119020123C0470130DED00135F0E704B0BDE8F081BFBB0000D0BB000010B5C9B2DC
:406EC00002449042034605D01C7801308C42F8D1184610BD002010BD30B500293CD051F8042C0B1F1D49002AB8BF9B180A680C4612B95A600B6030BD93420DD2196858182B
:406F0000904201BF5A5852181A60426823605A6030BD994203D80A4651680029F9D1146815199D420AD11B682344D0188842136012D10868034413604B680CE002D90C237A
:406F4000036030BD1C681819884201BF08684968001918605960536030BD00BF80A7FF1F70B5CC1C24F0030408340C2C38BF0C24002C064603DA0C233360002070BD8C427E
:406F8000F9D3204A136810461946A1B10A68121B0ED40B2A03D90A608B188C501FE08B420BBF5A684A6802605A6018BF0B4616E00B464968E9E7144D2B681BB9304600F05A
:406FC0004BF828603046214600F046F8421C0346D1D0C51C25F0030585420AD11C6003F10B001A1D20F00700821A0AD05142995070BD3046E91A00F02FF80130BBD02B462E
:40700000ECE770BD80A7FF1F7CA7FF1FF8B5074615460E4621B91146BDE8F840FFF7A0BF1AB9FFF759FF2846F8BD00F025F8A8420ED238462946FFF793FF044650B131466C
:407040002A46FFF7FDFB38463146FFF745FF01E03046F8BD2046F8BD38B5064C0023054608462360F9F732FE431C02D1236803B12B6038BDF8A8FF1F51F8040C0028BEBF11
:40708000091851F8043CC018043870471000000000000000017A5200027C0E011B0C0D0010000000180000003CF8FFFF140000000000000000000000556E7265636F676E0E
:4070C000697A6564206E6F7465000000536F6E672053656C656374696F6E000050726573732053573220666F72206E657874206F7074696F6E2E00005072657373205357A4
:407100003320746F20636F6E6669726D2073656C656374696F6E2E00536F6E672053656C656374656421000057656C636F6D6520746F0A5069616E6F2054696C65732100E4
:40714000506C61790000000043616C69627261746500000047350000462335002300000046350000453500004423350044350000432335004335000042340000412334008A
:40718000413400004723340047340000462334004634000045340000442334004434000043233400433400004233000041233300413300004723330047330000462333005A
:4071C0004633000045330000442333004433000043233300433300004232000041233200413200004723320047320000462332004632000045320000496E76616C6964217A
:40720000000000002564000053636F726500000057656C6C20446F6E6521000046757220456C6973650000005477696E6B6C652C205477696E6B6C652C0A4C6974746C6583
